{
  "contractName": "Election",
  "abi": [
    {
      "constant": true,
      "inputs": [
        {
          "internalType": "address",
          "name": "account",
          "type": "address"
        }
      ],
      "name": "isAdmin",
      "outputs": [
        {
          "internalType": "bool",
          "name": "",
          "type": "bool"
        }
      ],
      "payable": false,
      "stateMutability": "view",
      "type": "function"
    },
    {
      "constant": true,
      "inputs": [
        {
          "internalType": "uint256",
          "name": "",
          "type": "uint256"
        }
      ],
      "name": "candidates",
      "outputs": [
        {
          "internalType": "uint256",
          "name": "id",
          "type": "uint256"
        },
        {
          "internalType": "address",
          "name": "account",
          "type": "address"
        },
        {
          "internalType": "string",
          "name": "name",
          "type": "string"
        },
        {
          "internalType": "uint256",
          "name": "voteCount",
          "type": "uint256"
        },
        {
          "internalType": "bool",
          "name": "eligible",
          "type": "bool"
        }
      ],
      "payable": false,
      "stateMutability": "view",
      "type": "function"
    },
    {
      "constant": false,
      "inputs": [
        {
          "internalType": "address",
          "name": "account",
          "type": "address"
        }
      ],
      "name": "addCitizen",
      "outputs": [],
      "payable": false,
      "stateMutability": "nonpayable",
      "type": "function"
    },
    {
      "constant": false,
      "inputs": [],
      "name": "unpause",
      "outputs": [],
      "payable": false,
      "stateMutability": "nonpayable",
      "type": "function"
    },
    {
      "constant": true,
      "inputs": [
        {
          "internalType": "address",
          "name": "account",
          "type": "address"
        }
      ],
      "name": "isPauser",
      "outputs": [
        {
          "internalType": "bool",
          "name": "",
          "type": "bool"
        }
      ],
      "payable": false,
      "stateMutability": "view",
      "type": "function"
    },
    {
      "constant": true,
      "inputs": [],
      "name": "paused",
      "outputs": [
        {
          "internalType": "bool",
          "name": "",
          "type": "bool"
        }
      ],
      "payable": false,
      "stateMutability": "view",
      "type": "function"
    },
    {
      "constant": true,
      "inputs": [],
      "name": "counter",
      "outputs": [
        {
          "internalType": "uint256",
          "name": "",
          "type": "uint256"
        }
      ],
      "payable": false,
      "stateMutability": "view",
      "type": "function"
    },
    {
      "constant": false,
      "inputs": [],
      "name": "renouncePauser",
      "outputs": [],
      "payable": false,
      "stateMutability": "nonpayable",
      "type": "function"
    },
    {
      "constant": false,
      "inputs": [
        {
          "internalType": "address",
          "name": "account",
          "type": "address"
        }
      ],
      "name": "addAdmin",
      "outputs": [],
      "payable": false,
      "stateMutability": "nonpayable",
      "type": "function"
    },
    {
      "constant": true,
      "inputs": [
        {
          "internalType": "uint256",
          "name": "",
          "type": "uint256"
        }
      ],
      "name": "votersList",
      "outputs": [
        {
          "internalType": "address",
          "name": "",
          "type": "address"
        }
      ],
      "payable": false,
      "stateMutability": "view",
      "type": "function"
    },
    {
      "constant": false,
      "inputs": [
        {
          "internalType": "address",
          "name": "account",
          "type": "address"
        }
      ],
      "name": "addPauser",
      "outputs": [],
      "payable": false,
      "stateMutability": "nonpayable",
      "type": "function"
    },
    {
      "constant": false,
      "inputs": [],
      "name": "pause",
      "outputs": [],
      "payable": false,
      "stateMutability": "nonpayable",
      "type": "function"
    },
    {
      "constant": false,
      "inputs": [
        {
          "internalType": "address",
          "name": "account",
          "type": "address"
        }
      ],
      "name": "removeCitizen",
      "outputs": [],
      "payable": false,
      "stateMutability": "nonpayable",
      "type": "function"
    },
    {
      "constant": true,
      "inputs": [
        {
          "internalType": "address",
          "name": "",
          "type": "address"
        }
      ],
      "name": "voters",
      "outputs": [
        {
          "internalType": "bool",
          "name": "",
          "type": "bool"
        }
      ],
      "payable": false,
      "stateMutability": "view",
      "type": "function"
    },
    {
      "constant": false,
      "inputs": [],
      "name": "renonceAdmin",
      "outputs": [],
      "payable": false,
      "stateMutability": "nonpayable",
      "type": "function"
    },
    {
      "constant": true,
      "inputs": [
        {
          "internalType": "address",
          "name": "account",
          "type": "address"
        }
      ],
      "name": "isCitizen",
      "outputs": [
        {
          "internalType": "bool",
          "name": "",
          "type": "bool"
        }
      ],
      "payable": false,
      "stateMutability": "view",
      "type": "function"
    },
    {
      "anonymous": false,
      "inputs": [
        {
          "indexed": true,
          "internalType": "uint256",
          "name": "_id",
          "type": "uint256"
        },
        {
          "indexed": true,
          "internalType": "address",
          "name": "_candidate",
          "type": "address"
        },
        {
          "indexed": false,
          "internalType": "string",
          "name": "_name",
          "type": "string"
        },
        {
          "indexed": true,
          "internalType": "address",
          "name": "_voter",
          "type": "address"
        }
      ],
      "name": "votedEvent",
      "type": "event"
    },
    {
      "anonymous": false,
      "inputs": [
        {
          "indexed": true,
          "internalType": "uint256",
          "name": "_id",
          "type": "uint256"
        },
        {
          "indexed": true,
          "internalType": "address",
          "name": "_applicant",
          "type": "address"
        },
        {
          "indexed": false,
          "internalType": "string",
          "name": "_addedParty",
          "type": "string"
        }
      ],
      "name": "candidateEligible",
      "type": "event"
    },
    {
      "anonymous": false,
      "inputs": [
        {
          "indexed": true,
          "internalType": "uint256",
          "name": "_id",
          "type": "uint256"
        },
        {
          "indexed": true,
          "internalType": "address",
          "name": "_candidate",
          "type": "address"
        },
        {
          "indexed": false,
          "internalType": "string",
          "name": "_removedParty",
          "type": "string"
        }
      ],
      "name": "candidateWithdrawn",
      "type": "event"
    },
    {
      "anonymous": false,
      "inputs": [
        {
          "indexed": true,
          "internalType": "address",
          "name": "_admin",
          "type": "address"
        }
      ],
      "name": "votersResetEvent",
      "type": "event"
    },
    {
      "anonymous": false,
      "inputs": [
        {
          "indexed": true,
          "internalType": "uint256",
          "name": "_id",
          "type": "uint256"
        },
        {
          "indexed": true,
          "internalType": "address",
          "name": "_candidate",
          "type": "address"
        },
        {
          "indexed": false,
          "internalType": "string",
          "name": "_name",
          "type": "string"
        },
        {
          "indexed": false,
          "internalType": "uint256",
          "name": "_votes",
          "type": "uint256"
        }
      ],
      "name": "scrutinyEvent",
      "type": "event"
    },
    {
      "anonymous": false,
      "inputs": [
        {
          "indexed": false,
          "internalType": "address",
          "name": "account",
          "type": "address"
        }
      ],
      "name": "Paused",
      "type": "event"
    },
    {
      "anonymous": false,
      "inputs": [
        {
          "indexed": false,
          "internalType": "address",
          "name": "account",
          "type": "address"
        }
      ],
      "name": "Unpaused",
      "type": "event"
    },
    {
      "anonymous": false,
      "inputs": [
        {
          "indexed": true,
          "internalType": "address",
          "name": "account",
          "type": "address"
        }
      ],
      "name": "PauserAdded",
      "type": "event"
    },
    {
      "anonymous": false,
      "inputs": [
        {
          "indexed": true,
          "internalType": "address",
          "name": "account",
          "type": "address"
        }
      ],
      "name": "PauserRemoved",
      "type": "event"
    },
    {
      "anonymous": false,
      "inputs": [
        {
          "indexed": true,
          "internalType": "address",
          "name": "account",
          "type": "address"
        }
      ],
      "name": "CitizenAdded",
      "type": "event"
    },
    {
      "anonymous": false,
      "inputs": [
        {
          "indexed": true,
          "internalType": "address",
          "name": "account",
          "type": "address"
        }
      ],
      "name": "CitizenRemoved",
      "type": "event"
    },
    {
      "anonymous": false,
      "inputs": [
        {
          "indexed": true,
          "internalType": "address",
          "name": "account",
          "type": "address"
        }
      ],
      "name": "AdminAdded",
      "type": "event"
    },
    {
      "anonymous": false,
      "inputs": [
        {
          "indexed": true,
          "internalType": "address",
          "name": "account",
          "type": "address"
        }
      ],
      "name": "AdminRemoved",
      "type": "event"
    },
    {
      "constant": false,
      "inputs": [],
      "name": "resetVoters",
      "outputs": [],
      "payable": false,
      "stateMutability": "nonpayable",
      "type": "function"
    },
    {
      "constant": false,
      "inputs": [
        {
          "internalType": "uint256",
          "name": "_id",
          "type": "uint256"
        }
      ],
      "name": "vote",
      "outputs": [],
      "payable": false,
      "stateMutability": "nonpayable",
      "type": "function"
    },
    {
      "constant": false,
      "inputs": [
        {
          "internalType": "address",
          "name": "_candidate",
          "type": "address"
        },
        {
          "internalType": "string",
          "name": "_name",
          "type": "string"
        }
      ],
      "name": "standForElections",
      "outputs": [],
      "payable": false,
      "stateMutability": "nonpayable",
      "type": "function"
    },
    {
      "constant": false,
      "inputs": [
        {
          "internalType": "uint256",
          "name": "_id",
          "type": "uint256"
        }
      ],
      "name": "withdrawFromElections",
      "outputs": [],
      "payable": false,
      "stateMutability": "nonpayable",
      "type": "function"
    },
    {
      "constant": false,
      "inputs": [
        {
          "internalType": "uint256",
          "name": "_id",
          "type": "uint256"
        }
      ],
      "name": "scrutiny",
      "outputs": [],
      "payable": false,
      "stateMutability": "nonpayable",
      "type": "function"
    }
  ],
  "bytecode": "0x6080604052600060075560006008556200001f336200006060201b60201c565b6200003f62000033620000c160201b60201c565b620000c960201b60201c565b6000600360006101000a81548160ff021916908315150217905550620002ee565b6200007b8160006200012a60201b620022b01790919060201c565b8073ffffffffffffffffffffffffffffffffffffffff167f44d6d25963f097ad14f29f06854a01f575648a1ef82f30e562ccd3889717e33960405160405180910390a250565b600033905090565b620000e48160026200012a60201b620022b01790919060201c565b8073ffffffffffffffffffffffffffffffffffffffff167f6719d08c1888103bea251a4ed56406bd0c3e69723c8a1686e017e7bbe159b6f860405160405180910390a250565b6200013c82826200020e60201b60201c565b15620001b0576040517f08c379a000000000000000000000000000000000000000000000000000000000815260040180806020018281038252601f8152602001807f526f6c65733a206163636f756e7420616c72656164792068617320726f6c650081525060200191505060405180910390fd5b60018260000160008373ffffffffffffffffffffffffffffffffffffffff1673ffffffffffffffffffffffffffffffffffffffff16815260200190815260200160002060006101000a81548160ff0219169083151502179055505050565b60008073ffffffffffffffffffffffffffffffffffffffff168273ffffffffffffffffffffffffffffffffffffffff16141562000297576040517f08c379a0000000000000000000000000000000000000000000000000000000008152600401808060200182810382526022815260200180620029936022913960400191505060405180910390fd5b8260000160008373ffffffffffffffffffffffffffffffffffffffff1673ffffffffffffffffffffffffffffffffffffffff16815260200190815260200160002060009054906101000a900460ff16905092915050565b61269580620002fe6000396000f3fe608060405234801561001057600080fd5b50600436106101375760003560e01c806361bc221a116100b85780638456cb591161007c5780638456cb59146105745780639bf4dd0a1461057e578063a3ec138d146105c2578063bf0309481461061e578063f3caad0314610628578063fd88b6631461068457610137565b806361bc221a146104565780636ef8d66d14610474578063704802751461047e57806372ce73ab146104c257806382dc1ec41461053057610137565b80633920dfdf116100ff5780633920dfdf146103805780633f4ba83a146103c457806346fbf68e146103ce578063553bd3971461042a5780635c975abb1461043457610137565b80630121b93f1461013c5780631f664ffe1461016a57806320e8f9871461020357806324d7806c146102315780633477ee2e1461028d575b600080fd5b6101686004803603602081101561015257600080fd5b81019080803590602001909291905050506106b2565b005b6102016004803603604081101561018057600080fd5b81019080803573ffffffffffffffffffffffffffffffffffffffff169060200190929190803590602001906401000000008111156101bd57600080fd5b8201836020820111156101cf57600080fd5b803590602001918460018302840111640100000000831117156101f157600080fd5b9091929391929390505050610a1e565b005b61022f6004803603602081101561021957600080fd5b8101908080359060200190929190505050610d1f565b005b6102736004803603602081101561024757600080fd5b81019080803573ffffffffffffffffffffffffffffffffffffffff169060200190929190505050610e84565b604051808215151515815260200191505060405180910390f35b6102b9600480360360208110156102a357600080fd5b8101908080359060200190929190505050610ea1565b604051808681526020018573ffffffffffffffffffffffffffffffffffffffff1673ffffffffffffffffffffffffffffffffffffffff1681526020018060200184815260200183151515158152602001828103825285818151815260200191508051906020019080838360005b83811015610341578082015181840152602081019050610326565b50505050905090810190601f16801561036e5780820380516001836020036101000a031916815260200191505b50965050505050505060405180910390f35b6103c26004803603602081101561039657600080fd5b81019080803573ffffffffffffffffffffffffffffffffffffffff169060200190929190505050610f9c565b005b6103cc611006565b005b610410600480360360208110156103e457600080fd5b81019080803573ffffffffffffffffffffffffffffffffffffffff169060200190929190505050611174565b604051808215151515815260200191505060405180910390f35b610432611191565b005b61043c6113e7565b604051808215151515815260200191505060405180910390f35b61045e6113fe565b6040518082815260200191505060405180910390f35b61047c611404565b005b6104c06004803603602081101561049457600080fd5b81019080803573ffffffffffffffffffffffffffffffffffffffff169060200190929190505050611416565b005b6104ee600480360360208110156104d857600080fd5b8101908080359060200190929190505050611480565b604051808273ffffffffffffffffffffffffffffffffffffffff1673ffffffffffffffffffffffffffffffffffffffff16815260200191505060405180910390f35b6105726004803603602081101561054657600080fd5b81019080803573ffffffffffffffffffffffffffffffffffffffff1690602001909291905050506114b3565b005b61057c611524565b005b6105c06004803603602081101561059457600080fd5b81019080803573ffffffffffffffffffffffffffffffffffffffff169060200190929190505050611693565b005b610604600480360360208110156105d857600080fd5b81019080803573ffffffffffffffffffffffffffffffffffffffff1690602001909291905050506116fd565b604051808215151515815260200191505060405180910390f35b61062661171d565b005b61066a6004803603602081101561063e57600080fd5b81019080803573ffffffffffffffffffffffffffffffffffffffff169060200190929190505050611728565b604051808215151515815260200191505060405180910390f35b6106b06004803603602081101561069a57600080fd5b8101908080359060200190929190505050611745565b005b6106bb33611728565b610710576040517f08c379a00000000000000000000000000000000000000000000000000000000081526004018080602001828103825260328152602001806124ee6032913960400191505060405180910390fd5b600360009054906101000a900460ff1615610793576040517f08c379a00000000000000000000000000000000000000000000000000000000081526004018080602001828103825260108152602001807f5061757361626c653a207061757365640000000000000000000000000000000081525060200191505060405180910390fd5b600560003373ffffffffffffffffffffffffffffffffffffffff1673ffffffffffffffffffffffffffffffffffffffff16815260200190815260200160002060009054906101000a900460ff1615610853576040517f08c379a00000000000000000000000000000000000000000000000000000000081526004018080602001828103825260168152602001807f596f75206861766520616c726561647920766f7465640000000000000000000081525060200191505060405180910390fd5b6008548111156108cb576040517f08c379a00000000000000000000000000000000000000000000000000000000081526004018080602001828103825260188152602001807f43616e64696461746520646f6573206e6f74206578697374000000000000000081525060200191505060405180910390fd5b60008111610941576040517f08c379a00000000000000000000000000000000000000000000000000000000081526004018080602001828103825260188152602001807f43616e64696461746520646f6573206e6f74206578697374000000000000000081525060200191505060405180910390fd5b6004600082815260200190815260200160002060040160009054906101000a900460ff166109ba576040517f08c379a00000000000000000000000000000000000000000000000000000000081526004018080602001828103825260388152602001806125b86038913960400191505060405180910390fd5b6001600560003373ffffffffffffffffffffffffffffffffffffffff1673ffffffffffffffffffffffffffffffffffffffff16815260200190815260200160002060006101000a81548160ff021916908315150217905550610a1b816118d9565b50565b610a2733610e84565b610a7c576040517f08c379a000000000000000000000000000000000000000000000000000000000815260040180806020018281038252602e815260200180612633602e913960400191505060405180910390fd5b600360009054906101000a900460ff16610afe576040517f08c379a00000000000000000000000000000000000000000000000000000000081526004018080602001828103825260148152602001807f5061757361626c653a206e6f742070617573656400000000000000000000000081525060200191505060405180910390fd5b60008282905011610b77576040517f08c379a00000000000000000000000000000000000000000000000000000000081526004018080602001828103825260128152602001807f456e74657220612076616c6964206e616d65000000000000000000000000000081525060200191505060405180910390fd5b6000600190505b6008548111610c97576004600082815260200190815260200160002060040160009054906101000a900460ff1615610c8a576000600190505b6008548111610c88578473ffffffffffffffffffffffffffffffffffffffff166004600083815260200190815260200160002060010160009054906101000a900473ffffffffffffffffffffffffffffffffffffffff1673ffffffffffffffffffffffffffffffffffffffff161415610c7b576040517f08c379a000000000000000000000000000000000000000000000000000000000815260040180806020018281038252602f815260200180612559602f913960400191505060405180910390fd5b8080600101915050610bb7565b505b8080600101915050610b7e565b50600160046000600160085401815260200190815260200160002060040160006101000a81548160ff021916908315150217905550610d1a8383838080601f016020809104026020016040519081016040528093929190818152602001838380828437600081840152601f19601f82011690508083019250505050505050611a9b565b505050565b610d2833610e84565b610d7d576040517f08c379a000000000000000000000000000000000000000000000000000000000815260040180806020018281038252602e815260200180612633602e913960400191505060405180910390fd5b600360009054906101000a900460ff16610dff576040517f08c379a00000000000000000000000000000000000000000000000000000000081526004018080602001828103825260148152602001807f5061757361626c653a206e6f742070617573656400000000000000000000000081525060200191505060405180910390fd5b6004600082815260200190815260200160002060040160009054906101000a900460ff16610e78576040517f08c379a00000000000000000000000000000000000000000000000000000000081526004018080602001828103825260388152602001806125b86038913960400191505060405180910390fd5b610e8181611c5a565b50565b6000610e9a826000611d9790919063ffffffff16565b9050919050565b60046020528060005260406000206000915090508060000154908060010160009054906101000a900473ffffffffffffffffffffffffffffffffffffffff1690806002018054600181600116156101000203166002900480601f016020809104026020016040519081016040528092919081815260200182805460018160011615610100020316600290048015610f795780601f10610f4e57610100808354040283529160200191610f79565b820191906000526020600020905b815481529060010190602001808311610f5c57829003601f168201915b5050505050908060030154908060040160009054906101000a900460ff16905085565b610fa533610e84565b610ffa576040517f08c379a000000000000000000000000000000000000000000000000000000000815260040180806020018281038252602e815260200180612633602e913960400191505060405180910390fd5b61100381611e75565b50565b611016611011611ecf565b611174565b61106b576040517f08c379a00000000000000000000000000000000000000000000000000000000081526004018080602001828103825260308152602001806125886030913960400191505060405180910390fd5b600360009054906101000a900460ff166110ed576040517f08c379a00000000000000000000000000000000000000000000000000000000081526004018080602001828103825260148152602001807f5061757361626c653a206e6f742070617573656400000000000000000000000081525060200191505060405180910390fd5b6000600360006101000a81548160ff0219169083151502179055507f5db9ee0a495bf2e6ff9c91a7834c1ba4fdd244a5e8aa4e537bd38aeae4b073aa611131611ecf565b604051808273ffffffffffffffffffffffffffffffffffffffff1673ffffffffffffffffffffffffffffffffffffffff16815260200191505060405180910390a1565b600061118a826002611d9790919063ffffffff16565b9050919050565b61119a33610e84565b6111ef576040517f08c379a000000000000000000000000000000000000000000000000000000000815260040180806020018281038252602e815260200180612633602e913960400191505060405180910390fd5b600360009054906101000a900460ff16611271576040517f08c379a00000000000000000000000000000000000000000000000000000000081526004018080602001828103825260148152602001807f5061757361626c653a206e6f742070617573656400000000000000000000000081525060200191505060405180910390fd5b6000600754116112e9576040517f08c379a00000000000000000000000000000000000000000000000000000000081526004018080602001828103825260138152602001807f546865726520617265206e6f20766f746572730000000000000000000000000081525060200191505060405180910390fd5b6005600060066000600754815260200190815260200160002060009054906101000a900473ffffffffffffffffffffffffffffffffffffffff1673ffffffffffffffffffffffffffffffffffffffff1673ffffffffffffffffffffffffffffffffffffffff16815260200190815260200160002060009054906101000a900460ff166113dd576040517f08c379a00000000000000000000000000000000000000000000000000000000081526004018080602001828103825260148152602001807f566f7465727320616c726561647920726573657400000000000000000000000081525060200191505060405180910390fd5b6113e5611ed7565b565b6000600360009054906101000a900460ff16905090565b60085481565b61141461140f611ecf565b611fcd565b565b61141f33610e84565b611474576040517f08c379a000000000000000000000000000000000000000000000000000000000815260040180806020018281038252602e815260200180612633602e913960400191505060405180910390fd5b61147d81612027565b50565b60066020528060005260406000206000915054906101000a900473ffffffffffffffffffffffffffffffffffffffff1681565b6114c36114be611ecf565b611174565b611518576040517f08c379a00000000000000000000000000000000000000000000000000000000081526004018080602001828103825260308152602001806125886030913960400191505060405180910390fd5b61152181612081565b50565b61153461152f611ecf565b611174565b611589576040517f08c379a00000000000000000000000000000000000000000000000000000000081526004018080602001828103825260308152602001806125886030913960400191505060405180910390fd5b600360009054906101000a900460ff161561160c576040517f08c379a00000000000000000000000000000000000000000000000000000000081526004018080602001828103825260108152602001807f5061757361626c653a207061757365640000000000000000000000000000000081525060200191505060405180910390fd5b6001600360006101000a81548160ff0219169083151502179055507f62e78cea01bee320cd4e420270b5ea74000d11b0c9f74754ebdbfc544b05a258611650611ecf565b604051808273ffffffffffffffffffffffffffffffffffffffff1673ffffffffffffffffffffffffffffffffffffffff16815260200191505060405180910390a1565b61169c33610e84565b6116f1576040517f08c379a000000000000000000000000000000000000000000000000000000000815260040180806020018281038252602e815260200180612633602e913960400191505060405180910390fd5b6116fa816120db565b50565b60056020528060005260406000206000915054906101000a900460ff1681565b61172633612135565b565b600061173e826001611d9790919063ffffffff16565b9050919050565b61174e33610e84565b6117a3576040517f08c379a000000000000000000000000000000000000000000000000000000000815260040180806020018281038252602e815260200180612633602e913960400191505060405180910390fd5b600360009054906101000a900460ff16611825576040517f08c379a00000000000000000000000000000000000000000000000000000000081526004018080602001828103825260148152602001807f5061757361626c653a206e6f742070617573656400000000000000000000000081525060200191505060405180910390fd5b6004600082815260200190815260200160002060040160009054906101000a900460ff1661189e576040517f08c379a00000000000000000000000000000000000000000000000000000000081526004018080602001828103825260398152602001806125206039913960400191505060405180910390fd5b60006004600083815260200190815260200160002060040160006101000a81548160ff0219169083151502179055506118d68161218f565b50565b6007600081548092919060010191905055503360066000600754815260200190815260200160002060006101000a81548173ffffffffffffffffffffffffffffffffffffffff021916908373ffffffffffffffffffffffffffffffffffffffff16021790555060046000828152602001908152602001600020600301600081548092919060010191905055503373ffffffffffffffffffffffffffffffffffffffff166004600083815260200190815260200160002060010160009054906101000a900473ffffffffffffffffffffffffffffffffffffffff1673ffffffffffffffffffffffffffffffffffffffff16827f3b2da80c98f0ecdf36d775325c77aefbd63eefcabdd6380836628bae4b078677600460008681526020019081526020016000206002016040518080602001828103825283818154600181600116156101000203166002900481526020019150805460018160011615610100020316600290048015611a8a5780601f10611a5f57610100808354040283529160200191611a8a565b820191906000526020600020905b815481529060010190602001808311611a6d57829003601f168201915b50509250505060405180910390a450565b6008600081548092919060010191905055506040518060a0016040528060085481526020018373ffffffffffffffffffffffffffffffffffffffff16815260200182815260200160008152602001600115158152506004600060085481526020019081526020016000206000820151816000015560208201518160010160006101000a81548173ffffffffffffffffffffffffffffffffffffffff021916908373ffffffffffffffffffffffffffffffffffffffff1602179055506040820151816002019080519060200190611b72929190612448565b506060820151816003015560808201518160040160006101000a81548160ff0219169083151502179055509050508173ffffffffffffffffffffffffffffffffffffffff166008547f88fba8dd1879818286c8c9836d16c787dfba282db743831d538723117224064e836040518080602001828103825283818151815260200191508051906020019080838360005b83811015611c1c578082015181840152602081019050611c01565b50505050905090810190601f168015611c495780820380516001836020036101000a031916815260200191505b509250505060405180910390a35050565b6004600082815260200190815260200160002060010160009054906101000a900473ffffffffffffffffffffffffffffffffffffffff1673ffffffffffffffffffffffffffffffffffffffff16817f309e4537b55376c69d39576631487ac49b56925cdfdd7a154e61711afb9b4f066004600085815260200190815260200160002060020160046000868152602001908152602001600020600301546040518080602001838152602001828103825284818154600181600116156101000203166002900481526020019150805460018160011615610100020316600290048015611d855780601f10611d5a57610100808354040283529160200191611d85565b820191906000526020600020905b815481529060010190602001808311611d6857829003601f168201915b5050935050505060405180910390a350565b60008073ffffffffffffffffffffffffffffffffffffffff168273ffffffffffffffffffffffffffffffffffffffff161415611e1e576040517f08c379a00000000000000000000000000000000000000000000000000000000081526004018080602001828103825260228152602001806126116022913960400191505060405180910390fd5b8260000160008373ffffffffffffffffffffffffffffffffffffffff1673ffffffffffffffffffffffffffffffffffffffff16815260200190815260200160002060009054906101000a900460ff16905092915050565b611e898160016122b090919063ffffffff16565b8073ffffffffffffffffffffffffffffffffffffffff167f272724e48012716338baa876acb4880d28ebeeb2176425a360610dd5acb99c4760405160405180910390a250565b600033905090565b6000600190505b6007548111611f7f576000600560006006600085815260200190815260200160002060009054906101000a900473ffffffffffffffffffffffffffffffffffffffff1673ffffffffffffffffffffffffffffffffffffffff1673ffffffffffffffffffffffffffffffffffffffff16815260200190815260200160002060006101000a81548160ff0219169083151502179055508080600101915050611ede565b5060006007819055503373ffffffffffffffffffffffffffffffffffffffff167f57136497c5d9fd59c4659fb621a3bfdd072264c16cceb6f62b3dfa5768c541fe60405160405180910390a2565b611fe181600261238b90919063ffffffff16565b8073ffffffffffffffffffffffffffffffffffffffff167fcd265ebaf09df2871cc7bd4133404a235ba12eff2041bb89d9c714a2621c7c7e60405160405180910390a250565b61203b8160006122b090919063ffffffff16565b8073ffffffffffffffffffffffffffffffffffffffff167f44d6d25963f097ad14f29f06854a01f575648a1ef82f30e562ccd3889717e33960405160405180910390a250565b6120958160026122b090919063ffffffff16565b8073ffffffffffffffffffffffffffffffffffffffff167f6719d08c1888103bea251a4ed56406bd0c3e69723c8a1686e017e7bbe159b6f860405160405180910390a250565b6120ef81600161238b90919063ffffffff16565b8073ffffffffffffffffffffffffffffffffffffffff167f86ffc4c1bcf9a37474de354dc295e858ac1bb8e5dcf6255375aafca4b7f7474f60405160405180910390a250565b61214981600061238b90919063ffffffff16565b8073ffffffffffffffffffffffffffffffffffffffff167fa3b62bc36326052d97ea62d63c3d60308ed4c3ea8ac079dd8499f1e9c4f80c0f60405160405180910390a250565b6004600082815260200190815260200160002060010160009054906101000a900473ffffffffffffffffffffffffffffffffffffffff1673ffffffffffffffffffffffffffffffffffffffff166008547fd028872d4e03db6ac33a0fb589c1fa9fd898c3081a1df837d68184301aaef1cb60046000858152602001908152602001600020600201604051808060200182810382528381815460018160011615610100020316600290048152602001915080546001816001161561010002031660029004801561229f5780601f106122745761010080835404028352916020019161229f565b820191906000526020600020905b81548152906001019060200180831161228257829003601f168201915b50509250505060405180910390a350565b6122ba8282611d97565b1561232d576040517f08c379a000000000000000000000000000000000000000000000000000000000815260040180806020018281038252601f8152602001807f526f6c65733a206163636f756e7420616c72656164792068617320726f6c650081525060200191505060405180910390fd5b60018260000160008373ffffffffffffffffffffffffffffffffffffffff1673ffffffffffffffffffffffffffffffffffffffff16815260200190815260200160002060006101000a81548160ff0219169083151502179055505050565b6123958282611d97565b6123ea576040517f08c379a00000000000000000000000000000000000000000000000000000000081526004018080602001828103825260218152602001806125f06021913960400191505060405180910390fd5b60008260000160008373ffffffffffffffffffffffffffffffffffffffff1673ffffffffffffffffffffffffffffffffffffffff16815260200190815260200160002060006101000a81548160ff0219169083151502179055505050565b828054600181600116156101000203166002900490600052602060002090601f016020900481019282601f1061248957805160ff19168380011785556124b7565b828001600101855582156124b7579182015b828111156124b657825182559160200191906001019061249b565b5b5090506124c491906124c8565b5090565b6124ea91905b808211156124e65760008160009055506001016124ce565b5090565b9056fe436974697a656e526f6c653a2063616c6c657220646f6573206e6f7420686176652074686520436974697a656e20726f6c65546869732063616e646964617465206973206e6f742063757272656e746c792072756e6e696e6720666f722074686520656c656374696f6e73546869732063616e64696461746520697320616c72656164792072756e6e696e6720666f7220656c656374696f6e73506175736572526f6c653a2063616c6c657220646f6573206e6f742068617665207468652050617573657220726f6c65546869732063616e646964617465206973206e6f742063757272656e746c792072756e6e696e6720666f722074686520656c656374696f6e526f6c65733a206163636f756e7420646f6573206e6f74206861766520726f6c65526f6c65733a206163636f756e7420697320746865207a65726f206164647265737341646d696e526f6c653a2063616c6c657220646f6573206e6f742068617665207468652041646d696e20726f6c65a265627a7a72315820e7f60c4efdf1ef3eaac3d3ab273c18dff26eca65b8ca83f689e1d48125dc614964736f6c634300050b0032526f6c65733a206163636f756e7420697320746865207a65726f2061646472657373",
  "source": "pragma solidity ^0.5.11;\r\n\r\nimport \"./CitizenRole.sol\";\r\nimport \"./Pausable.sol\";\r\n\r\ncontract Election is CitizenRole, Pausable {\r\n    event votedEvent(uint indexed _id, address indexed _candidate, string _name, address indexed _voter);\r\n    event candidateEligible(uint indexed _id, address indexed _applicant, string _addedParty);\r\n    event candidateWithdrawn(uint indexed _id, address indexed _candidate, string _removedParty);\r\n    event votersResetEvent(address indexed _admin);\r\n    event scrutinyEvent(uint indexed _id, address indexed _candidate, string _name, uint _votes);\r\n\r\n    struct Candidate {\r\n        uint id;\r\n        address account;\r\n        string name;\r\n        uint voteCount;\r\n        bool eligible;\r\n    }\r\n\r\n    mapping(uint => Candidate) public candidates;\r\n    mapping(address => bool) public voters;\r\n    mapping(uint => address) public votersList;\r\n\r\n    uint votersCounter = 0;\r\n    uint public counter = 0;\r\n\r\n    function resetVoters() external onlyAdmin whenPaused {\r\n        require(votersCounter > 0,\"There are no voters\");\r\n        require(voters[votersList[votersCounter]],\"Voters already reset\");\r\n        _resetVoters();\r\n    }\r\n\r\n    function _resetVoters() internal {\r\n        for (uint i = 1; i <= votersCounter; i++){\r\n            voters[votersList[i]] = false;\r\n        }\r\n        votersCounter = 0;\r\n        emit votersResetEvent(msg.sender);\r\n    }\r\n\r\n    function vote (uint _id) external onlyCitizen whenNotPaused {\r\n        require(!voters[msg.sender], \"You have already voted\");\r\n        require(_id <= counter, \"Candidate does not exist\");\r\n        require(_id > 0, \"Candidate does not exist\");\r\n        require(candidates[_id].eligible, \"This candidate is not currently running for the election\");\r\n        voters[msg.sender] = true;\r\n        _vote(_id);\r\n    }\r\n\r\n    function _vote (uint _id) internal {\r\n        votersCounter ++;\r\n        votersList[votersCounter] = msg.sender;\r\n        candidates[_id].voteCount ++;\r\n        emit votedEvent(_id, candidates[_id].account, candidates[_id].name, msg.sender);\r\n    }\r\n\r\n    function standForElections(address _candidate, string calldata _name) external onlyAdmin whenPaused {\r\n        require(bytes(_name).length > 0, \"Enter a valid name\");\r\n        for (uint ii = 1; ii <= counter; ii++) {\r\n            if (candidates[ii].eligible) {\r\n                for (uint i = 1; i <= counter; i++) {\r\n                    require(candidates[i].account != _candidate, \"This candidate is already running for elections\");\r\n                }\r\n            }\r\n        }\r\n        candidates[counter + 1].eligible = true;\r\n        _standForElections(_candidate, _name);\r\n    }\r\n\r\n    function _standForElections(address _candidate, string memory _name) internal {\r\n        counter++;\r\n        candidates[counter] = Candidate(counter, _candidate, _name, 0, true);\r\n        emit candidateEligible(counter, _candidate, _name);\r\n    }\r\n\r\n    function withdrawFromElections(uint _id) external onlyAdmin whenPaused {\r\n        require(candidates[_id].eligible, \"This candidate is not currently running for the elections\");\r\n        candidates[_id].eligible = false;\r\n        _withdrawFromElections(_id);\r\n    }\r\n\r\n    function _withdrawFromElections(uint _id) internal {\r\n        emit candidateWithdrawn(counter, candidates[_id].account, candidates[_id].name);\r\n    }\r\n\r\n    function scrutiny(uint _id) external onlyAdmin whenPaused {\r\n        require(candidates[_id].eligible, \"This candidate is not currently running for the election\");\r\n        _scrutiny(_id);\r\n    }\r\n\r\n    function _scrutiny(uint _id) internal {\r\n        emit scrutinyEvent(_id, candidates[_id].account, candidates[_id].name, candidates[_id].voteCount);\r\n    }\r\n}",
  "sourcePath": "C:/Users/amoro/Desktop/PROYECTOS/Blockchain/Ethereum/BitVoteSystem/System/bitvote-system/src/contracts/Election.sol",
  "compiler": {
    "name": "solc",
    "version": "0.5.11+commit.c082d0b4.Emscripten.clang"
  },
  "schemaVersion": "3.0.11",
  "updatedAt": "2019-12-28T16:58:33.204Z",
  "devdoc": {
    "methods": {
      "pause()": {
        "details": "Called by a pauser to pause, triggers stopped state.\r"
      },
      "paused()": {
        "details": "Returns true if the contract is paused, and false otherwise.\r"
      },
      "unpause()": {
        "details": "Called by a pauser to unpause, returns to normal state.\r"
      }
    }
  },
  "userdoc": {
    "methods": {}
  }
}