{
  "contractName": "Election",
  "abi": [
    {
      "constant": true,
      "inputs": [
        {
          "internalType": "address",
          "name": "account",
          "type": "address"
        }
      ],
      "name": "isAdmin",
      "outputs": [
        {
          "internalType": "bool",
          "name": "",
          "type": "bool"
        }
      ],
      "payable": false,
      "stateMutability": "view",
      "type": "function"
    },
    {
      "constant": false,
      "inputs": [
        {
          "internalType": "address",
          "name": "account",
          "type": "address"
        }
      ],
      "name": "addCitizen",
      "outputs": [],
      "payable": false,
      "stateMutability": "nonpayable",
      "type": "function"
    },
    {
      "constant": false,
      "inputs": [],
      "name": "unpause",
      "outputs": [],
      "payable": false,
      "stateMutability": "nonpayable",
      "type": "function"
    },
    {
      "constant": true,
      "inputs": [
        {
          "internalType": "address",
          "name": "account",
          "type": "address"
        }
      ],
      "name": "isPauser",
      "outputs": [
        {
          "internalType": "bool",
          "name": "",
          "type": "bool"
        }
      ],
      "payable": false,
      "stateMutability": "view",
      "type": "function"
    },
    {
      "constant": true,
      "inputs": [],
      "name": "paused",
      "outputs": [
        {
          "internalType": "bool",
          "name": "",
          "type": "bool"
        }
      ],
      "payable": false,
      "stateMutability": "view",
      "type": "function"
    },
    {
      "constant": false,
      "inputs": [],
      "name": "renouncePauser",
      "outputs": [],
      "payable": false,
      "stateMutability": "nonpayable",
      "type": "function"
    },
    {
      "constant": false,
      "inputs": [
        {
          "internalType": "address",
          "name": "account",
          "type": "address"
        }
      ],
      "name": "addAdmin",
      "outputs": [],
      "payable": false,
      "stateMutability": "nonpayable",
      "type": "function"
    },
    {
      "constant": true,
      "inputs": [
        {
          "internalType": "uint256",
          "name": "",
          "type": "uint256"
        }
      ],
      "name": "votersList",
      "outputs": [
        {
          "internalType": "address",
          "name": "",
          "type": "address"
        }
      ],
      "payable": false,
      "stateMutability": "view",
      "type": "function"
    },
    {
      "constant": false,
      "inputs": [
        {
          "internalType": "address",
          "name": "account",
          "type": "address"
        }
      ],
      "name": "addPauser",
      "outputs": [],
      "payable": false,
      "stateMutability": "nonpayable",
      "type": "function"
    },
    {
      "constant": false,
      "inputs": [],
      "name": "pause",
      "outputs": [],
      "payable": false,
      "stateMutability": "nonpayable",
      "type": "function"
    },
    {
      "constant": true,
      "inputs": [
        {
          "internalType": "address",
          "name": "",
          "type": "address"
        }
      ],
      "name": "candidates",
      "outputs": [
        {
          "internalType": "address",
          "name": "account",
          "type": "address"
        },
        {
          "internalType": "string",
          "name": "name",
          "type": "string"
        },
        {
          "internalType": "uint256",
          "name": "voteCount",
          "type": "uint256"
        }
      ],
      "payable": false,
      "stateMutability": "view",
      "type": "function"
    },
    {
      "constant": false,
      "inputs": [
        {
          "internalType": "address",
          "name": "account",
          "type": "address"
        }
      ],
      "name": "removeCitizen",
      "outputs": [],
      "payable": false,
      "stateMutability": "nonpayable",
      "type": "function"
    },
    {
      "constant": true,
      "inputs": [
        {
          "internalType": "address",
          "name": "",
          "type": "address"
        }
      ],
      "name": "voters",
      "outputs": [
        {
          "internalType": "bool",
          "name": "",
          "type": "bool"
        }
      ],
      "payable": false,
      "stateMutability": "view",
      "type": "function"
    },
    {
      "constant": false,
      "inputs": [],
      "name": "renonceAdmin",
      "outputs": [],
      "payable": false,
      "stateMutability": "nonpayable",
      "type": "function"
    },
    {
      "constant": true,
      "inputs": [
        {
          "internalType": "address",
          "name": "",
          "type": "address"
        }
      ],
      "name": "applicants",
      "outputs": [
        {
          "internalType": "bool",
          "name": "",
          "type": "bool"
        }
      ],
      "payable": false,
      "stateMutability": "view",
      "type": "function"
    },
    {
      "constant": true,
      "inputs": [
        {
          "internalType": "address",
          "name": "account",
          "type": "address"
        }
      ],
      "name": "isCitizen",
      "outputs": [
        {
          "internalType": "bool",
          "name": "",
          "type": "bool"
        }
      ],
      "payable": false,
      "stateMutability": "view",
      "type": "function"
    },
    {
      "anonymous": false,
      "inputs": [
        {
          "indexed": true,
          "internalType": "address",
          "name": "_candidate",
          "type": "address"
        },
        {
          "indexed": true,
          "internalType": "address",
          "name": "_voter",
          "type": "address"
        }
      ],
      "name": "votedEvent",
      "type": "event"
    },
    {
      "anonymous": false,
      "inputs": [
        {
          "indexed": true,
          "internalType": "address",
          "name": "_applicant",
          "type": "address"
        },
        {
          "indexed": false,
          "internalType": "string",
          "name": "_addedParty",
          "type": "string"
        }
      ],
      "name": "candidateEligible",
      "type": "event"
    },
    {
      "anonymous": false,
      "inputs": [
        {
          "indexed": true,
          "internalType": "address",
          "name": "_candidate",
          "type": "address"
        },
        {
          "indexed": false,
          "internalType": "string",
          "name": "_removedParty",
          "type": "string"
        }
      ],
      "name": "candidateWithdrawn",
      "type": "event"
    },
    {
      "anonymous": false,
      "inputs": [
        {
          "indexed": true,
          "internalType": "address",
          "name": "_admin",
          "type": "address"
        }
      ],
      "name": "votersResetEvent",
      "type": "event"
    },
    {
      "anonymous": false,
      "inputs": [
        {
          "indexed": true,
          "internalType": "address",
          "name": "_candidate",
          "type": "address"
        },
        {
          "indexed": false,
          "internalType": "uint256",
          "name": "_votes",
          "type": "uint256"
        }
      ],
      "name": "scrutinyEvent",
      "type": "event"
    },
    {
      "anonymous": false,
      "inputs": [
        {
          "indexed": false,
          "internalType": "address",
          "name": "account",
          "type": "address"
        }
      ],
      "name": "Paused",
      "type": "event"
    },
    {
      "anonymous": false,
      "inputs": [
        {
          "indexed": false,
          "internalType": "address",
          "name": "account",
          "type": "address"
        }
      ],
      "name": "Unpaused",
      "type": "event"
    },
    {
      "anonymous": false,
      "inputs": [
        {
          "indexed": true,
          "internalType": "address",
          "name": "account",
          "type": "address"
        }
      ],
      "name": "PauserAdded",
      "type": "event"
    },
    {
      "anonymous": false,
      "inputs": [
        {
          "indexed": true,
          "internalType": "address",
          "name": "account",
          "type": "address"
        }
      ],
      "name": "PauserRemoved",
      "type": "event"
    },
    {
      "anonymous": false,
      "inputs": [
        {
          "indexed": true,
          "internalType": "address",
          "name": "account",
          "type": "address"
        }
      ],
      "name": "CitizenAdded",
      "type": "event"
    },
    {
      "anonymous": false,
      "inputs": [
        {
          "indexed": true,
          "internalType": "address",
          "name": "account",
          "type": "address"
        }
      ],
      "name": "CitizenRemoved",
      "type": "event"
    },
    {
      "anonymous": false,
      "inputs": [
        {
          "indexed": true,
          "internalType": "address",
          "name": "account",
          "type": "address"
        }
      ],
      "name": "AdminAdded",
      "type": "event"
    },
    {
      "anonymous": false,
      "inputs": [
        {
          "indexed": true,
          "internalType": "address",
          "name": "account",
          "type": "address"
        }
      ],
      "name": "AdminRemoved",
      "type": "event"
    },
    {
      "constant": false,
      "inputs": [],
      "name": "resetVoters",
      "outputs": [],
      "payable": false,
      "stateMutability": "nonpayable",
      "type": "function"
    },
    {
      "constant": false,
      "inputs": [
        {
          "internalType": "address",
          "name": "_candidate",
          "type": "address"
        }
      ],
      "name": "vote",
      "outputs": [],
      "payable": false,
      "stateMutability": "nonpayable",
      "type": "function"
    },
    {
      "constant": false,
      "inputs": [
        {
          "internalType": "address",
          "name": "_candidate",
          "type": "address"
        },
        {
          "internalType": "string",
          "name": "_name",
          "type": "string"
        }
      ],
      "name": "standForElections",
      "outputs": [],
      "payable": false,
      "stateMutability": "nonpayable",
      "type": "function"
    },
    {
      "constant": false,
      "inputs": [
        {
          "internalType": "address",
          "name": "_candidate",
          "type": "address"
        }
      ],
      "name": "withdrawFromElections",
      "outputs": [],
      "payable": false,
      "stateMutability": "nonpayable",
      "type": "function"
    },
    {
      "constant": false,
      "inputs": [
        {
          "internalType": "address",
          "name": "_candidate",
          "type": "address"
        }
      ],
      "name": "scrutiny",
      "outputs": [],
      "payable": false,
      "stateMutability": "nonpayable",
      "type": "function"
    }
  ],
  "bytecode": "0x608060405260006008556200001a336200005b60201b60201c565b6200003a6200002e620000bc60201b60201c565b620000c460201b60201c565b6000600360006101000a81548160ff021916908315150217905550620002e9565b620000768160006200012560201b620020ff1790919060201c565b8073ffffffffffffffffffffffffffffffffffffffff167f44d6d25963f097ad14f29f06854a01f575648a1ef82f30e562ccd3889717e33960405160405180910390a250565b600033905090565b620000df8160026200012560201b620020ff1790919060201c565b8073ffffffffffffffffffffffffffffffffffffffff167f6719d08c1888103bea251a4ed56406bd0c3e69723c8a1686e017e7bbe159b6f860405160405180910390a250565b6200013782826200020960201b60201c565b15620001ab576040517f08c379a000000000000000000000000000000000000000000000000000000000815260040180806020018281038252601f8152602001807f526f6c65733a206163636f756e7420616c72656164792068617320726f6c650081525060200191505060405180910390fd5b60018260000160008373ffffffffffffffffffffffffffffffffffffffff1673ffffffffffffffffffffffffffffffffffffffff16815260200190815260200160002060006101000a81548160ff0219169083151502179055505050565b60008073ffffffffffffffffffffffffffffffffffffffff168273ffffffffffffffffffffffffffffffffffffffff16141562000292576040517f08c379a0000000000000000000000000000000000000000000000000000000008152600401808060200182810382526022815260200180620027dd6022913960400191505060405180910390fd5b8260000160008373ffffffffffffffffffffffffffffffffffffffff1673ffffffffffffffffffffffffffffffffffffffff16815260200190815260200160002060009054906101000a900460ff16905092915050565b6124e480620002f96000396000f3fe608060405234801561001057600080fd5b50600436106101375760003560e01c806372ce73ab116100b85780639bf4dd0a1161007c5780639bf4dd0a14610590578063a3ec138d146105d4578063a6fd78da14610630578063bf03094814610674578063ccd668631461067e578063f3caad03146106da57610137565b806372ce73ab1461039957806374718bd81461040757806382dc1ec41461044b5780638456cb591461048f5780638ab66a901461049957610137565b8063553bd397116100ff578063553bd397146102db5780635c975abb146102e55780636dd7d8ea146103075780636ef8d66d1461034b578063704802751461035557610137565b80631f664ffe1461013c57806324d7806c146101d55780633920dfdf146102315780633f4ba83a1461027557806346fbf68e1461027f575b600080fd5b6101d36004803603604081101561015257600080fd5b81019080803573ffffffffffffffffffffffffffffffffffffffff1690602001909291908035906020019064010000000081111561018f57600080fd5b8201836020820111156101a157600080fd5b803590602001918460018302840111640100000000831117156101c357600080fd5b9091929391929390505050610736565b005b610217600480360360208110156101eb57600080fd5b81019080803573ffffffffffffffffffffffffffffffffffffffff1690602001909291905050506109dd565b604051808215151515815260200191505060405180910390f35b6102736004803603602081101561024757600080fd5b81019080803573ffffffffffffffffffffffffffffffffffffffff1690602001909291905050506109fa565b005b61027d610a64565b005b6102c16004803603602081101561029557600080fd5b81019080803573ffffffffffffffffffffffffffffffffffffffff169060200190929190505050610bd2565b604051808215151515815260200191505060405180910390f35b6102e3610bef565b005b6102ed610e45565b604051808215151515815260200191505060405180910390f35b6103496004803603602081101561031d57600080fd5b81019080803573ffffffffffffffffffffffffffffffffffffffff169060200190929190505050610e5c565b005b610353611103565b005b6103976004803603602081101561036b57600080fd5b81019080803573ffffffffffffffffffffffffffffffffffffffff169060200190929190505050611115565b005b6103c5600480360360208110156103af57600080fd5b810190808035906020019092919050505061117f565b604051808273ffffffffffffffffffffffffffffffffffffffff1673ffffffffffffffffffffffffffffffffffffffff16815260200191505060405180910390f35b6104496004803603602081101561041d57600080fd5b81019080803573ffffffffffffffffffffffffffffffffffffffff1690602001909291905050506111b2565b005b61048d6004803603602081101561046157600080fd5b81019080803573ffffffffffffffffffffffffffffffffffffffff169060200190929190505050611398565b005b610497611409565b005b6104db600480360360208110156104af57600080fd5b81019080803573ffffffffffffffffffffffffffffffffffffffff169060200190929190505050611578565b604051808473ffffffffffffffffffffffffffffffffffffffff1673ffffffffffffffffffffffffffffffffffffffff16815260200180602001838152602001828103825284818151815260200191508051906020019080838360005b83811015610553578082015181840152602081019050610538565b50505050905090810190601f1680156105805780820380516001836020036101000a031916815260200191505b5094505050505060405180910390f35b6105d2600480360360208110156105a657600080fd5b81019080803573ffffffffffffffffffffffffffffffffffffffff16906020019092919050505061165a565b005b610616600480360360208110156105ea57600080fd5b81019080803573ffffffffffffffffffffffffffffffffffffffff1690602001909291905050506116c4565b604051808215151515815260200191505060405180910390f35b6106726004803603602081101561064657600080fd5b81019080803573ffffffffffffffffffffffffffffffffffffffff1690602001909291905050506116e4565b005b61067c611872565b005b6106c06004803603602081101561069457600080fd5b81019080803573ffffffffffffffffffffffffffffffffffffffff16906020019092919050505061187d565b604051808215151515815260200191505060405180910390f35b61071c600480360360208110156106f057600080fd5b81019080803573ffffffffffffffffffffffffffffffffffffffff16906020019092919050505061189d565b604051808215151515815260200191505060405180910390f35b61073f336109dd565b610794576040517f08c379a000000000000000000000000000000000000000000000000000000000815260040180806020018281038252602e815260200180612482602e913960400191505060405180910390fd5b600360009054906101000a900460ff16610816576040517f08c379a00000000000000000000000000000000000000000000000000000000081526004018080602001828103825260148152602001807f5061757361626c653a206e6f742070617573656400000000000000000000000081525060200191505060405180910390fd5b6000828290501161088f576040517f08c379a00000000000000000000000000000000000000000000000000000000081526004018080602001828103825260128152602001807f456e74657220612076616c6964206e616d65000000000000000000000000000081525060200191505060405180910390fd5b600560008473ffffffffffffffffffffffffffffffffffffffff1673ffffffffffffffffffffffffffffffffffffffff16815260200190815260200160002060009054906101000a900460ff1615610932576040517f08c379a000000000000000000000000000000000000000000000000000000000815260040180806020018281038252602f8152602001806123a8602f913960400191505060405180910390fd5b6001600560008573ffffffffffffffffffffffffffffffffffffffff1673ffffffffffffffffffffffffffffffffffffffff16815260200190815260200160002060006101000a81548160ff0219169083151502179055506109d88383838080601f016020809104026020016040519081016040528093929190818152602001838380828437600081840152601f19601f820116905080830192505050505050506118ba565b505050565b60006109f3826000611a5390919063ffffffff16565b9050919050565b610a03336109dd565b610a58576040517f08c379a000000000000000000000000000000000000000000000000000000000815260040180806020018281038252602e815260200180612482602e913960400191505060405180910390fd5b610a6181611b31565b50565b610a74610a6f611b8b565b610bd2565b610ac9576040517f08c379a00000000000000000000000000000000000000000000000000000000081526004018080602001828103825260308152602001806123d76030913960400191505060405180910390fd5b600360009054906101000a900460ff16610b4b576040517f08c379a00000000000000000000000000000000000000000000000000000000081526004018080602001828103825260148152602001807f5061757361626c653a206e6f742070617573656400000000000000000000000081525060200191505060405180910390fd5b6000600360006101000a81548160ff0219169083151502179055507f5db9ee0a495bf2e6ff9c91a7834c1ba4fdd244a5e8aa4e537bd38aeae4b073aa610b8f611b8b565b604051808273ffffffffffffffffffffffffffffffffffffffff1673ffffffffffffffffffffffffffffffffffffffff16815260200191505060405180910390a1565b6000610be8826002611a5390919063ffffffff16565b9050919050565b610bf8336109dd565b610c4d576040517f08c379a000000000000000000000000000000000000000000000000000000000815260040180806020018281038252602e815260200180612482602e913960400191505060405180910390fd5b600360009054906101000a900460ff16610ccf576040517f08c379a00000000000000000000000000000000000000000000000000000000081526004018080602001828103825260148152602001807f5061757361626c653a206e6f742070617573656400000000000000000000000081525060200191505060405180910390fd5b600060085411610d47576040517f08c379a00000000000000000000000000000000000000000000000000000000081526004018080602001828103825260138152602001807f546865726520617265206e6f20766f746572730000000000000000000000000081525060200191505060405180910390fd5b6006600060076000600854815260200190815260200160002060009054906101000a900473ffffffffffffffffffffffffffffffffffffffff1673ffffffffffffffffffffffffffffffffffffffff1673ffffffffffffffffffffffffffffffffffffffff16815260200190815260200160002060009054906101000a900460ff16610e3b576040517f08c379a00000000000000000000000000000000000000000000000000000000081526004018080602001828103825260148152602001807f566f7465727320616c726561647920726573657400000000000000000000000081525060200191505060405180910390fd5b610e43611b93565b565b6000600360009054906101000a900460ff16905090565b610e653361189d565b610eba576040517f08c379a000000000000000000000000000000000000000000000000000000000815260040180806020018281038252603281526020018061233d6032913960400191505060405180910390fd5b600360009054906101000a900460ff1615610f3d576040517f08c379a00000000000000000000000000000000000000000000000000000000081526004018080602001828103825260108152602001807f5061757361626c653a207061757365640000000000000000000000000000000081525060200191505060405180910390fd5b600660003373ffffffffffffffffffffffffffffffffffffffff1673ffffffffffffffffffffffffffffffffffffffff16815260200190815260200160002060009054906101000a900460ff1615610ffd576040517f08c379a00000000000000000000000000000000000000000000000000000000081526004018080602001828103825260168152602001807f596f75206861766520616c726561647920766f7465640000000000000000000081525060200191505060405180910390fd5b600560008273ffffffffffffffffffffffffffffffffffffffff1673ffffffffffffffffffffffffffffffffffffffff16815260200190815260200160002060009054906101000a900460ff1661109f576040517f08c379a00000000000000000000000000000000000000000000000000000000081526004018080602001828103825260388152602001806124076038913960400191505060405180910390fd5b6001600660003373ffffffffffffffffffffffffffffffffffffffff1673ffffffffffffffffffffffffffffffffffffffff16815260200190815260200160002060006101000a81548160ff02191690831515021790555061110081611c81565b50565b61111361110e611b8b565b611d96565b565b61111e336109dd565b611173576040517f08c379a000000000000000000000000000000000000000000000000000000000815260040180806020018281038252602e815260200180612482602e913960400191505060405180910390fd5b61117c81611df0565b50565b60076020528060005260406000206000915054906101000a900473ffffffffffffffffffffffffffffffffffffffff1681565b6111bb336109dd565b611210576040517f08c379a000000000000000000000000000000000000000000000000000000000815260040180806020018281038252602e815260200180612482602e913960400191505060405180910390fd5b600360009054906101000a900460ff16611292576040517f08c379a00000000000000000000000000000000000000000000000000000000081526004018080602001828103825260148152602001807f5061757361626c653a206e6f742070617573656400000000000000000000000081525060200191505060405180910390fd5b600560008273ffffffffffffffffffffffffffffffffffffffff1673ffffffffffffffffffffffffffffffffffffffff16815260200190815260200160002060009054906101000a900460ff16611334576040517f08c379a000000000000000000000000000000000000000000000000000000000815260040180806020018281038252603981526020018061236f6039913960400191505060405180910390fd5b6000600560008373ffffffffffffffffffffffffffffffffffffffff1673ffffffffffffffffffffffffffffffffffffffff16815260200190815260200160002060006101000a81548160ff02191690831515021790555061139581611e4a565b50565b6113a86113a3611b8b565b610bd2565b6113fd576040517f08c379a00000000000000000000000000000000000000000000000000000000081526004018080602001828103825260308152602001806123d76030913960400191505060405180910390fd5b61140681611f5e565b50565b611419611414611b8b565b610bd2565b61146e576040517f08c379a00000000000000000000000000000000000000000000000000000000081526004018080602001828103825260308152602001806123d76030913960400191505060405180910390fd5b600360009054906101000a900460ff16156114f1576040517f08c379a00000000000000000000000000000000000000000000000000000000081526004018080602001828103825260108152602001807f5061757361626c653a207061757365640000000000000000000000000000000081525060200191505060405180910390fd5b6001600360006101000a81548160ff0219169083151502179055507f62e78cea01bee320cd4e420270b5ea74000d11b0c9f74754ebdbfc544b05a258611535611b8b565b604051808273ffffffffffffffffffffffffffffffffffffffff1673ffffffffffffffffffffffffffffffffffffffff16815260200191505060405180910390a1565b60046020528060005260406000206000915090508060000160009054906101000a900473ffffffffffffffffffffffffffffffffffffffff1690806001018054600181600116156101000203166002900480601f01602080910402602001604051908101604052809291908181526020018280546001816001161561010002031660029004801561164a5780601f1061161f5761010080835404028352916020019161164a565b820191906000526020600020905b81548152906001019060200180831161162d57829003601f168201915b5050505050908060020154905083565b611663336109dd565b6116b8576040517f08c379a000000000000000000000000000000000000000000000000000000000815260040180806020018281038252602e815260200180612482602e913960400191505060405180910390fd5b6116c181611fb8565b50565b60066020528060005260406000206000915054906101000a900460ff1681565b6116ed336109dd565b611742576040517f08c379a000000000000000000000000000000000000000000000000000000000815260040180806020018281038252602e815260200180612482602e913960400191505060405180910390fd5b600360009054906101000a900460ff166117c4576040517f08c379a00000000000000000000000000000000000000000000000000000000081526004018080602001828103825260148152602001807f5061757361626c653a206e6f742070617573656400000000000000000000000081525060200191505060405180910390fd5b600560008273ffffffffffffffffffffffffffffffffffffffff1673ffffffffffffffffffffffffffffffffffffffff16815260200190815260200160002060009054906101000a900460ff16611866576040517f08c379a00000000000000000000000000000000000000000000000000000000081526004018080602001828103825260388152602001806124076038913960400191505060405180910390fd5b61186f81612012565b50565b61187b336120a5565b565b60056020528060005260406000206000915054906101000a900460ff1681565b60006118b3826001611a5390919063ffffffff16565b9050919050565b60405180606001604052808373ffffffffffffffffffffffffffffffffffffffff1681526020018281526020016000815250600460008473ffffffffffffffffffffffffffffffffffffffff1673ffffffffffffffffffffffffffffffffffffffff16815260200190815260200160002060008201518160000160006101000a81548173ffffffffffffffffffffffffffffffffffffffff021916908373ffffffffffffffffffffffffffffffffffffffff160217905550602082015181600101908051906020019061198e929190612297565b50604082015181600201559050508173ffffffffffffffffffffffffffffffffffffffff167f988f762b5aae51fa7aff4f01022a71a1780ce4525ed6997b1c7b9c5930194ece826040518080602001828103825283818151815260200191508051906020019080838360005b83811015611a155780820151818401526020810190506119fa565b50505050905090810190601f168015611a425780820380516001836020036101000a031916815260200191505b509250505060405180910390a25050565b60008073ffffffffffffffffffffffffffffffffffffffff168273ffffffffffffffffffffffffffffffffffffffff161415611ada576040517f08c379a00000000000000000000000000000000000000000000000000000000081526004018080602001828103825260228152602001806124606022913960400191505060405180910390fd5b8260000160008373ffffffffffffffffffffffffffffffffffffffff1673ffffffffffffffffffffffffffffffffffffffff16815260200190815260200160002060009054906101000a900460ff16905092915050565b611b458160016120ff90919063ffffffff16565b8073ffffffffffffffffffffffffffffffffffffffff167f272724e48012716338baa876acb4880d28ebeeb2176425a360610dd5acb99c4760405160405180910390a250565b600033905090565b6000600190505b6008548111611c3b576000600660006007600085815260200190815260200160002060009054906101000a900473ffffffffffffffffffffffffffffffffffffffff1673ffffffffffffffffffffffffffffffffffffffff1673ffffffffffffffffffffffffffffffffffffffff16815260200190815260200160002060006101000a81548160ff0219169083151502179055508080600101915050611b9a565b503373ffffffffffffffffffffffffffffffffffffffff167f57136497c5d9fd59c4659fb621a3bfdd072264c16cceb6f62b3dfa5768c541fe60405160405180910390a2565b6008600081548092919060010191905055503360076000600854815260200190815260200160002060006101000a81548173ffffffffffffffffffffffffffffffffffffffff021916908373ffffffffffffffffffffffffffffffffffffffff160217905550600460008273ffffffffffffffffffffffffffffffffffffffff1673ffffffffffffffffffffffffffffffffffffffff168152602001908152602001600020600201600081548092919060010191905055503373ffffffffffffffffffffffffffffffffffffffff168173ffffffffffffffffffffffffffffffffffffffff167f1823a94934f802256db7958618e5f17e3f9b5671857295f8d6e353248c63465f60405160405180910390a350565b611daa8160026121da90919063ffffffff16565b8073ffffffffffffffffffffffffffffffffffffffff167fcd265ebaf09df2871cc7bd4133404a235ba12eff2041bb89d9c714a2621c7c7e60405160405180910390a250565b611e048160006120ff90919063ffffffff16565b8073ffffffffffffffffffffffffffffffffffffffff167f44d6d25963f097ad14f29f06854a01f575648a1ef82f30e562ccd3889717e33960405160405180910390a250565b8073ffffffffffffffffffffffffffffffffffffffff167f3c62119088abbb82a71c6c72938f3058a557251a99667b0e9703f814319da4d0600460008473ffffffffffffffffffffffffffffffffffffffff1673ffffffffffffffffffffffffffffffffffffffff1681526020019081526020016000206001016040518080602001828103825283818154600181600116156101000203166002900481526020019150805460018160011615610100020316600290048015611f4d5780601f10611f2257610100808354040283529160200191611f4d565b820191906000526020600020905b815481529060010190602001808311611f3057829003601f168201915b50509250505060405180910390a250565b611f728160026120ff90919063ffffffff16565b8073ffffffffffffffffffffffffffffffffffffffff167f6719d08c1888103bea251a4ed56406bd0c3e69723c8a1686e017e7bbe159b6f860405160405180910390a250565b611fcc8160016121da90919063ffffffff16565b8073ffffffffffffffffffffffffffffffffffffffff167f86ffc4c1bcf9a37474de354dc295e858ac1bb8e5dcf6255375aafca4b7f7474f60405160405180910390a250565b8073ffffffffffffffffffffffffffffffffffffffff167f31f9b1cf9c9e0f1972a4a15e51ad2a2b65138b6f740140947c91a72313254f6f600460008473ffffffffffffffffffffffffffffffffffffffff1673ffffffffffffffffffffffffffffffffffffffff168152602001908152602001600020600201546040518082815260200191505060405180910390a250565b6120b98160006121da90919063ffffffff16565b8073ffffffffffffffffffffffffffffffffffffffff167fa3b62bc36326052d97ea62d63c3d60308ed4c3ea8ac079dd8499f1e9c4f80c0f60405160405180910390a250565b6121098282611a53565b1561217c576040517f08c379a000000000000000000000000000000000000000000000000000000000815260040180806020018281038252601f8152602001807f526f6c65733a206163636f756e7420616c72656164792068617320726f6c650081525060200191505060405180910390fd5b60018260000160008373ffffffffffffffffffffffffffffffffffffffff1673ffffffffffffffffffffffffffffffffffffffff16815260200190815260200160002060006101000a81548160ff0219169083151502179055505050565b6121e48282611a53565b612239576040517f08c379a000000000000000000000000000000000000000000000000000000000815260040180806020018281038252602181526020018061243f6021913960400191505060405180910390fd5b60008260000160008373ffffffffffffffffffffffffffffffffffffffff1673ffffffffffffffffffffffffffffffffffffffff16815260200190815260200160002060006101000a81548160ff0219169083151502179055505050565b828054600181600116156101000203166002900490600052602060002090601f016020900481019282601f106122d857805160ff1916838001178555612306565b82800160010185558215612306579182015b828111156123055782518255916020019190600101906122ea565b5b5090506123139190612317565b5090565b61233991905b8082111561233557600081600090555060010161231d565b5090565b9056fe436974697a656e526f6c653a2063616c6c657220646f6573206e6f7420686176652074686520436974697a656e20726f6c65546869732063616e646964617465206973206e6f742063757272656e746c792072756e6e696e6720666f722074686520656c656374696f6e73546869732063616e64696461746520697320616c72656164792072756e6e696e6720666f7220656c656374696f6e73506175736572526f6c653a2063616c6c657220646f6573206e6f742068617665207468652050617573657220726f6c65546869732063616e646964617465206973206e6f742063757272656e746c792072756e6e696e6720666f722074686520656c656374696f6e526f6c65733a206163636f756e7420646f6573206e6f74206861766520726f6c65526f6c65733a206163636f756e7420697320746865207a65726f206164647265737341646d696e526f6c653a2063616c6c657220646f6573206e6f742068617665207468652041646d696e20726f6c65a265627a7a723158202baebc8d511bac401b38c3b095c979515fd4a314ff7056b4460ca1c02e19fbd864736f6c634300050b0032526f6c65733a206163636f756e7420697320746865207a65726f2061646472657373",
  "source": "pragma solidity ^0.5.11;\r\n\r\nimport \"./CitizenRole.sol\";\r\nimport \"./Pausable.sol\";\r\n\r\ncontract Election is CitizenRole, Pausable {\r\n    event votedEvent(address indexed _candidate, address indexed _voter);\r\n    event candidateEligible(address indexed _applicant, string _addedParty);\r\n    event candidateWithdrawn(address indexed _candidate, string _removedParty);\r\n    event votersResetEvent(address indexed _admin);\r\n    event scrutinyEvent(address indexed _candidate, uint _votes);\r\n\r\n    struct Candidate {\r\n        address account;\r\n        string name;\r\n        uint voteCount;\r\n    }\r\n\r\n    mapping(address => Candidate) public candidates;\r\n    mapping(address => bool) public applicants;\r\n    mapping(address => bool) public voters;\r\n    mapping(uint => address) public votersList;\r\n\r\n    uint counter = 0;\r\n\r\n    function resetVoters() external onlyAdmin whenPaused {\r\n        require(counter > 0,\"There are no voters\");\r\n        require(voters[votersList[counter]],\"Voters already reset\");\r\n        _resetVoters();\r\n    }\r\n\r\n    function _resetVoters() internal {\r\n        for (uint i = 1; i <= counter; i++){\r\n            voters[votersList[i]] = false;\r\n        }\r\n        emit votersResetEvent(msg.sender);\r\n    }\r\n\r\n    function vote (address _candidate) external onlyCitizen whenNotPaused {\r\n        require(!voters[msg.sender], \"You have already voted\");\r\n        require(applicants[_candidate], \"This candidate is not currently running for the election\");\r\n        voters[msg.sender] = true;\r\n        _vote(_candidate);\r\n    }\r\n\r\n    function _vote (address _candidate) internal {\r\n        counter ++;\r\n        votersList[counter] = msg.sender;\r\n        candidates[_candidate].voteCount ++;\r\n        emit votedEvent(_candidate, msg.sender);\r\n    }\r\n\r\n    function standForElections(address _candidate, string calldata _name) external onlyAdmin whenPaused {\r\n        require(bytes(_name).length > 0, \"Enter a valid name\");\r\n        require(!applicants[_candidate], \"This candidate is already running for elections\");\r\n        applicants[_candidate] = true;\r\n        _standForElections(_candidate, _name);\r\n    }\r\n\r\n    function _standForElections(address _candidate, string memory _name) internal {\r\n        candidates[_candidate] = Candidate(_candidate, _name, 0);\r\n        emit candidateEligible(_candidate, _name);\r\n    }\r\n\r\n    function withdrawFromElections(address _candidate) external onlyAdmin whenPaused {\r\n        require(applicants[_candidate], \"This candidate is not currently running for the elections\");\r\n        applicants[_candidate] = false;\r\n        _withdrawFromElections(_candidate);\r\n    }\r\n\r\n    function _withdrawFromElections(address _candidate) internal {\r\n        emit candidateWithdrawn(_candidate, candidates[_candidate].name);\r\n    }\r\n\r\n    function scrutiny(address _candidate) external onlyAdmin whenPaused {\r\n        require(applicants[_candidate], \"This candidate is not currently running for the election\");\r\n        _scrutiny(_candidate);\r\n    }\r\n\r\n    function _scrutiny(address _candidate) internal {\r\n        emit scrutinyEvent(_candidate, candidates[_candidate].voteCount);\r\n    }\r\n}",
  "sourcePath": "C:/Users/amoro/Desktop/PROYECTOS/Blockchain/Ethereum/BitVoteSystem/System/bitvote-system/src/contracts/Election.sol",
  "compiler": {
    "name": "solc",
    "version": "0.5.11+commit.c082d0b4.Emscripten.clang"
  },
  "schemaVersion": "3.0.11",
  "updatedAt": "2019-12-13T20:32:49.773Z",
  "devdoc": {
    "methods": {
      "pause()": {
        "details": "Called by a pauser to pause, triggers stopped state.\r"
      },
      "paused()": {
        "details": "Returns true if the contract is paused, and false otherwise.\r"
      },
      "unpause()": {
        "details": "Called by a pauser to unpause, returns to normal state.\r"
      }
    }
  },
  "userdoc": {
    "methods": {}
  }
}