{
  "contractName": "Proposals",
  "abi": [
    {
      "constant": true,
      "inputs": [
        {
          "internalType": "address",
          "name": "account",
          "type": "address"
        }
      ],
      "name": "isAdmin",
      "outputs": [
        {
          "internalType": "bool",
          "name": "",
          "type": "bool"
        }
      ],
      "payable": false,
      "stateMutability": "view",
      "type": "function"
    },
    {
      "constant": false,
      "inputs": [
        {
          "internalType": "address",
          "name": "account",
          "type": "address"
        }
      ],
      "name": "addCitizen",
      "outputs": [],
      "payable": false,
      "stateMutability": "nonpayable",
      "type": "function"
    },
    {
      "constant": false,
      "inputs": [],
      "name": "unpause",
      "outputs": [],
      "payable": false,
      "stateMutability": "nonpayable",
      "type": "function"
    },
    {
      "constant": true,
      "inputs": [
        {
          "internalType": "address",
          "name": "account",
          "type": "address"
        }
      ],
      "name": "isPauser",
      "outputs": [
        {
          "internalType": "bool",
          "name": "",
          "type": "bool"
        }
      ],
      "payable": false,
      "stateMutability": "view",
      "type": "function"
    },
    {
      "constant": true,
      "inputs": [],
      "name": "paused",
      "outputs": [
        {
          "internalType": "bool",
          "name": "",
          "type": "bool"
        }
      ],
      "payable": false,
      "stateMutability": "view",
      "type": "function"
    },
    {
      "constant": true,
      "inputs": [],
      "name": "counter",
      "outputs": [
        {
          "internalType": "uint256",
          "name": "",
          "type": "uint256"
        }
      ],
      "payable": false,
      "stateMutability": "view",
      "type": "function"
    },
    {
      "constant": false,
      "inputs": [],
      "name": "renouncePauser",
      "outputs": [],
      "payable": false,
      "stateMutability": "nonpayable",
      "type": "function"
    },
    {
      "constant": false,
      "inputs": [
        {
          "internalType": "address",
          "name": "account",
          "type": "address"
        }
      ],
      "name": "addAdmin",
      "outputs": [],
      "payable": false,
      "stateMutability": "nonpayable",
      "type": "function"
    },
    {
      "constant": false,
      "inputs": [
        {
          "internalType": "address",
          "name": "account",
          "type": "address"
        }
      ],
      "name": "addPauser",
      "outputs": [],
      "payable": false,
      "stateMutability": "nonpayable",
      "type": "function"
    },
    {
      "constant": false,
      "inputs": [],
      "name": "pause",
      "outputs": [],
      "payable": false,
      "stateMutability": "nonpayable",
      "type": "function"
    },
    {
      "constant": false,
      "inputs": [
        {
          "internalType": "address",
          "name": "account",
          "type": "address"
        }
      ],
      "name": "removeCitizen",
      "outputs": [],
      "payable": false,
      "stateMutability": "nonpayable",
      "type": "function"
    },
    {
      "constant": true,
      "inputs": [
        {
          "internalType": "uint256",
          "name": "",
          "type": "uint256"
        }
      ],
      "name": "BOE",
      "outputs": [
        {
          "internalType": "uint256",
          "name": "identifier",
          "type": "uint256"
        },
        {
          "internalType": "string",
          "name": "proposalType",
          "type": "string"
        },
        {
          "internalType": "string",
          "name": "title",
          "type": "string"
        },
        {
          "internalType": "string",
          "name": "body",
          "type": "string"
        },
        {
          "internalType": "string",
          "name": "predictions",
          "type": "string"
        },
        {
          "internalType": "address",
          "name": "author",
          "type": "address"
        },
        {
          "internalType": "uint256",
          "name": "votesFor",
          "type": "uint256"
        },
        {
          "internalType": "uint256",
          "name": "votesAgainst",
          "type": "uint256"
        },
        {
          "internalType": "uint256",
          "name": "abstentions",
          "type": "uint256"
        },
        {
          "internalType": "bool",
          "name": "voted",
          "type": "bool"
        },
        {
          "internalType": "bool",
          "name": "approved",
          "type": "bool"
        }
      ],
      "payable": false,
      "stateMutability": "view",
      "type": "function"
    },
    {
      "constant": false,
      "inputs": [],
      "name": "renonceAdmin",
      "outputs": [],
      "payable": false,
      "stateMutability": "nonpayable",
      "type": "function"
    },
    {
      "constant": true,
      "inputs": [
        {
          "internalType": "address",
          "name": "account",
          "type": "address"
        }
      ],
      "name": "isCitizen",
      "outputs": [
        {
          "internalType": "bool",
          "name": "",
          "type": "bool"
        }
      ],
      "payable": false,
      "stateMutability": "view",
      "type": "function"
    },
    {
      "anonymous": false,
      "inputs": [
        {
          "indexed": true,
          "internalType": "uint256",
          "name": "_proposalIdentifier",
          "type": "uint256"
        },
        {
          "indexed": true,
          "internalType": "address",
          "name": "_voter",
          "type": "address"
        }
      ],
      "name": "votedForEvent",
      "type": "event"
    },
    {
      "anonymous": false,
      "inputs": [
        {
          "indexed": true,
          "internalType": "uint256",
          "name": "_proposalIdentifier",
          "type": "uint256"
        },
        {
          "indexed": true,
          "internalType": "address",
          "name": "_voter",
          "type": "address"
        }
      ],
      "name": "votedAgainstEvent",
      "type": "event"
    },
    {
      "anonymous": false,
      "inputs": [
        {
          "indexed": true,
          "internalType": "uint256",
          "name": "_proposalIdentifier",
          "type": "uint256"
        },
        {
          "indexed": true,
          "internalType": "address",
          "name": "_voter",
          "type": "address"
        }
      ],
      "name": "votedAbstentionEvent",
      "type": "event"
    },
    {
      "anonymous": false,
      "inputs": [
        {
          "indexed": true,
          "internalType": "uint256",
          "name": "_proposalIdentifier",
          "type": "uint256"
        },
        {
          "indexed": false,
          "internalType": "string",
          "name": "_proposalType",
          "type": "string"
        },
        {
          "indexed": false,
          "internalType": "string",
          "name": "_title",
          "type": "string"
        },
        {
          "indexed": false,
          "internalType": "string",
          "name": "_body",
          "type": "string"
        },
        {
          "indexed": false,
          "internalType": "string",
          "name": "_predictions",
          "type": "string"
        },
        {
          "indexed": true,
          "internalType": "address",
          "name": "_author",
          "type": "address"
        }
      ],
      "name": "proposalCreatedEvent",
      "type": "event"
    },
    {
      "anonymous": false,
      "inputs": [
        {
          "indexed": true,
          "internalType": "uint256",
          "name": "_proposalIdentifier",
          "type": "uint256"
        },
        {
          "indexed": false,
          "internalType": "uint256",
          "name": "_votesFor",
          "type": "uint256"
        },
        {
          "indexed": false,
          "internalType": "uint256",
          "name": "_votesAgainst",
          "type": "uint256"
        },
        {
          "indexed": false,
          "internalType": "uint256",
          "name": "_abstentions",
          "type": "uint256"
        },
        {
          "indexed": false,
          "internalType": "bool",
          "name": "_approved",
          "type": "bool"
        },
        {
          "indexed": false,
          "internalType": "uint256",
          "name": "_majorityType",
          "type": "uint256"
        }
      ],
      "name": "proposalVotedEvent",
      "type": "event"
    },
    {
      "anonymous": false,
      "inputs": [
        {
          "indexed": false,
          "internalType": "address",
          "name": "account",
          "type": "address"
        }
      ],
      "name": "Paused",
      "type": "event"
    },
    {
      "anonymous": false,
      "inputs": [
        {
          "indexed": false,
          "internalType": "address",
          "name": "account",
          "type": "address"
        }
      ],
      "name": "Unpaused",
      "type": "event"
    },
    {
      "anonymous": false,
      "inputs": [
        {
          "indexed": true,
          "internalType": "address",
          "name": "account",
          "type": "address"
        }
      ],
      "name": "PauserAdded",
      "type": "event"
    },
    {
      "anonymous": false,
      "inputs": [
        {
          "indexed": true,
          "internalType": "address",
          "name": "account",
          "type": "address"
        }
      ],
      "name": "PauserRemoved",
      "type": "event"
    },
    {
      "anonymous": false,
      "inputs": [
        {
          "indexed": true,
          "internalType": "address",
          "name": "account",
          "type": "address"
        }
      ],
      "name": "CitizenAdded",
      "type": "event"
    },
    {
      "anonymous": false,
      "inputs": [
        {
          "indexed": true,
          "internalType": "address",
          "name": "account",
          "type": "address"
        }
      ],
      "name": "CitizenRemoved",
      "type": "event"
    },
    {
      "anonymous": false,
      "inputs": [
        {
          "indexed": true,
          "internalType": "address",
          "name": "account",
          "type": "address"
        }
      ],
      "name": "AdminAdded",
      "type": "event"
    },
    {
      "anonymous": false,
      "inputs": [
        {
          "indexed": true,
          "internalType": "address",
          "name": "account",
          "type": "address"
        }
      ],
      "name": "AdminRemoved",
      "type": "event"
    },
    {
      "constant": false,
      "inputs": [
        {
          "internalType": "uint256",
          "name": "_identifier",
          "type": "uint256"
        },
        {
          "internalType": "uint256",
          "name": "_majority",
          "type": "uint256"
        }
      ],
      "name": "voteLaw",
      "outputs": [],
      "payable": false,
      "stateMutability": "nonpayable",
      "type": "function"
    },
    {
      "constant": false,
      "inputs": [
        {
          "internalType": "uint256",
          "name": "_identifier",
          "type": "uint256"
        }
      ],
      "name": "voteFor",
      "outputs": [],
      "payable": false,
      "stateMutability": "nonpayable",
      "type": "function"
    },
    {
      "constant": false,
      "inputs": [
        {
          "internalType": "uint256",
          "name": "_identifier",
          "type": "uint256"
        }
      ],
      "name": "voteAgainst",
      "outputs": [],
      "payable": false,
      "stateMutability": "nonpayable",
      "type": "function"
    },
    {
      "constant": false,
      "inputs": [
        {
          "internalType": "uint256",
          "name": "_identifier",
          "type": "uint256"
        }
      ],
      "name": "voteAbstention",
      "outputs": [],
      "payable": false,
      "stateMutability": "nonpayable",
      "type": "function"
    },
    {
      "constant": false,
      "inputs": [
        {
          "internalType": "string",
          "name": "_proposalType",
          "type": "string"
        },
        {
          "internalType": "string",
          "name": "_title",
          "type": "string"
        },
        {
          "internalType": "string",
          "name": "_body",
          "type": "string"
        },
        {
          "internalType": "string",
          "name": "_predictions",
          "type": "string"
        }
      ],
      "name": "createProposal",
      "outputs": [],
      "payable": false,
      "stateMutability": "nonpayable",
      "type": "function"
    }
  ],
  "bytecode": "0x608060405260006005556200001a336200005b60201b60201c565b6200003a6200002e620000bc60201b60201c565b620000c460201b60201c565b6000600360006101000a81548160ff021916908315150217905550620002e9565b620000768160006200012560201b62002c331790919060201c565b8073ffffffffffffffffffffffffffffffffffffffff167f44d6d25963f097ad14f29f06854a01f575648a1ef82f30e562ccd3889717e33960405160405180910390a250565b600033905090565b620000df8160026200012560201b62002c331790919060201c565b8073ffffffffffffffffffffffffffffffffffffffff167f6719d08c1888103bea251a4ed56406bd0c3e69723c8a1686e017e7bbe159b6f860405160405180910390a250565b6200013782826200020960201b60201c565b15620001ab576040517f08c379a000000000000000000000000000000000000000000000000000000000815260040180806020018281038252601f8152602001807f526f6c65733a206163636f756e7420616c72656164792068617320726f6c650081525060200191505060405180910390fd5b60018260000160008373ffffffffffffffffffffffffffffffffffffffff1673ffffffffffffffffffffffffffffffffffffffff16815260200190815260200160002060006101000a81548160ff0219169083151502179055505050565b60008073ffffffffffffffffffffffffffffffffffffffff168273ffffffffffffffffffffffffffffffffffffffff16141562000292576040517f08c379a0000000000000000000000000000000000000000000000000000000008152600401808060200182810382526022815260200180620032bd6022913960400191505060405180910390fd5b8260000160008373ffffffffffffffffffffffffffffffffffffffff1673ffffffffffffffffffffffffffffffffffffffff16815260200190815260200160002060009054906101000a900460ff16905092915050565b612fc480620002f96000396000f3fe608060405234801561001057600080fd5b50600436106101215760003560e01c80636ef8d66d116100ad57806386a505351161007157806386a50535146105145780639bf4dd0a14610542578063b59ab66914610586578063bf030948146107d6578063f3caad03146107e057610121565b80636ef8d66d1461044a5780637048027514610454578063750e443a1461049857806382dc1ec4146104c65780638456cb591461050a57610121565b80633920dfdf116100f45780633920dfdf146103605780633f4ba83a146103a457806346fbf68e146103ae5780635c975abb1461040a57806361bc221a1461042c57610121565b80631914b06d146101265780631dd7c40e1461015457806324d7806c1461018c5780632a689692146101e8575b600080fd5b6101526004803603602081101561013c57600080fd5b810190808035906020019092919050505061083c565b005b61018a6004803603604081101561016a57600080fd5b810190808035906020019092919080359060200190929190505050610afb565b005b6101ce600480360360208110156101a257600080fd5b81019080803573ffffffffffffffffffffffffffffffffffffffff169060200190929190505050610e8b565b604051808215151515815260200191505060405180910390f35b61035e600480360360808110156101fe57600080fd5b810190808035906020019064010000000081111561021b57600080fd5b82018360208201111561022d57600080fd5b8035906020019184600183028401116401000000008311171561024f57600080fd5b90919293919293908035906020019064010000000081111561027057600080fd5b82018360208201111561028257600080fd5b803590602001918460018302840111640100000000831117156102a457600080fd5b9091929391929390803590602001906401000000008111156102c557600080fd5b8201836020820111156102d757600080fd5b803590602001918460018302840111640100000000831117156102f957600080fd5b90919293919293908035906020019064010000000081111561031a57600080fd5b82018360208201111561032c57600080fd5b8035906020019184600183028401116401000000008311171561034e57600080fd5b9091929391929390505050610ea8565b005b6103a26004803603602081101561037657600080fd5b81019080803573ffffffffffffffffffffffffffffffffffffffff169060200190929190505050611292565b005b6103ac6112fc565b005b6103f0600480360360208110156103c457600080fd5b81019080803573ffffffffffffffffffffffffffffffffffffffff16906020019092919050505061146a565b604051808215151515815260200191505060405180910390f35b610412611487565b604051808215151515815260200191505060405180910390f35b61043461149e565b6040518082815260200191505060405180910390f35b6104526114a4565b005b6104966004803603602081101561046a57600080fd5b81019080803573ffffffffffffffffffffffffffffffffffffffff1690602001909291905050506114b6565b005b6104c4600480360360208110156104ae57600080fd5b8101908080359060200190929190505050611520565b005b610508600480360360208110156104dc57600080fd5b81019080803573ffffffffffffffffffffffffffffffffffffffff1690602001909291905050506117df565b005b610512611850565b005b6105406004803603602081101561052a57600080fd5b81019080803590602001909291905050506119bf565b005b6105846004803603602081101561055857600080fd5b81019080803573ffffffffffffffffffffffffffffffffffffffff169060200190929190505050611c7e565b005b6105b26004803603602081101561059c57600080fd5b8101908080359060200190929190505050611ce8565b604051808c8152602001806020018060200180602001806020018b73ffffffffffffffffffffffffffffffffffffffff1673ffffffffffffffffffffffffffffffffffffffff1681526020018a8152602001898152602001888152602001871515151581526020018615151515815260200185810385528f818151815260200191508051906020019080838360005b8381101561065c578082015181840152602081019050610641565b50505050905090810190601f1680156106895780820380516001836020036101000a031916815260200191505b5085810384528e818151815260200191508051906020019080838360005b838110156106c25780820151818401526020810190506106a7565b50505050905090810190601f1680156106ef5780820380516001836020036101000a031916815260200191505b5085810383528d818151815260200191508051906020019080838360005b8381101561072857808201518184015260208101905061070d565b50505050905090810190601f1680156107555780820380516001836020036101000a031916815260200191505b5085810382528c818151815260200191508051906020019080838360005b8381101561078e578082015181840152602081019050610773565b50505050905090810190601f1680156107bb5780820380516001836020036101000a031916815260200191505b509f5050505050505050505050505050505060405180910390f35b6107de611fdc565b005b610822600480360360208110156107f657600080fd5b81019080803573ffffffffffffffffffffffffffffffffffffffff169060200190929190505050611fe7565b604051808215151515815260200191505060405180910390f35b61084533611fe7565b61089a576040517f08c379a0000000000000000000000000000000000000000000000000000000008152600401808060200182810382526032815260200180612e716032913960400191505060405180910390fd5b600360009054906101000a900460ff161561091d576040517f08c379a00000000000000000000000000000000000000000000000000000000081526004018080602001828103825260108152602001807f5061757361626c653a207061757365640000000000000000000000000000000081525060200191505060405180910390fd5b60008111610993576040517f08c379a00000000000000000000000000000000000000000000000000000000081526004018080602001828103825260198152602001807f50726f706f73616c203020646f6573206e6f742065786973740000000000000081525060200191505060405180910390fd5b61099d8133612004565b15610a10576040517f08c379a00000000000000000000000000000000000000000000000000000000081526004018080602001828103825260168152602001807f596f75206861766520616c726561647920766f7465640000000000000000000081525060200191505060405180910390fd5b600554811115610a6b576040517f08c379a0000000000000000000000000000000000000000000000000000000008152600401808060200182810382526029815260200180612f446029913960400191505060405180910390fd5b6004600082815260200190815260200160002060090160009054906101000a900460ff1615610ae5576040517f08c379a0000000000000000000000000000000000000000000000000000000008152600401808060200182810382526023815260200180612f6d6023913960400191505060405180910390fd5b610aef8133612074565b610af8816120ea565b50565b610b0433610e8b565b610b59576040517f08c379a000000000000000000000000000000000000000000000000000000000815260040180806020018281038252602e815260200180612f16602e913960400191505060405180910390fd5b600360009054906101000a900460ff16610bdb576040517f08c379a00000000000000000000000000000000000000000000000000000000081526004018080602001828103825260148152602001807f5061757361626c653a206e6f742070617573656400000000000000000000000081525060200191505060405180910390fd5b60008211610c51576040517f08c379a00000000000000000000000000000000000000000000000000000000081526004018080602001828103825260198152602001807f50726f706f73616c203020646f6573206e6f742065786973740000000000000081525060200191505060405180910390fd5b600554821115610cc9576040517f08c379a00000000000000000000000000000000000000000000000000000000081526004018080602001828103825260138152602001807f50726f706f73616c206e6f7420696e20424f450000000000000000000000000081525060200191505060405180910390fd5b6004600083815260200190815260200160002060090160009054906101000a900460ff1615610d60576040517f08c379a00000000000000000000000000000000000000000000000000000000081526004018080602001828103825260168152602001807f50726f706f73616c20616c726561647920766f7465640000000000000000000081525060200191505060405180910390fd5b6001811015610dd7576040517f08c379a000000000000000000000000000000000000000000000000000000000815260040180806020018281038252601c8152602001807f53656c65637420612076616c6964206d616a6f7269747920747970650000000081525060200191505060405180910390fd5b6004811115610e4e576040517f08c379a000000000000000000000000000000000000000000000000000000000815260040180806020018281038252601c8152602001807f53656c65637420612076616c6964206d616a6f7269747920747970650000000081525060200191505060405180910390fd5b60016004600084815260200190815260200160002060090160006101000a81548160ff021916908315150217905550610e878282612157565b5050565b6000610ea182600061249790919063ffffffff16565b9050919050565b610eb133611fe7565b610f06576040517f08c379a0000000000000000000000000000000000000000000000000000000008152600401808060200182810382526032815260200180612e716032913960400191505060405180910390fd5b600360009054906101000a900460ff16610f88576040517f08c379a00000000000000000000000000000000000000000000000000000000081526004018080602001828103825260148152602001807f5061757361626c653a206e6f742070617573656400000000000000000000000081525060200191505060405180910390fd5b60008888905011611001576040517f08c379a000000000000000000000000000000000000000000000000000000000815260040180806020018281038252601b8152602001807f456e74657220612076616c69642070726f706f73616c2074797065000000000081525060200191505060405180910390fd5b6000868690501161107a576040517f08c379a00000000000000000000000000000000000000000000000000000000081526004018080602001828103825260138152602001807f456e74657220612076616c6964207469746c650000000000000000000000000081525060200191505060405180910390fd5b600084849050116110f3576040517f08c379a00000000000000000000000000000000000000000000000000000000081526004018080602001828103825260128152602001807f456e74657220612076616c696420626f6479000000000000000000000000000081525060200191505060405180910390fd5b6000828290501161116c576040517f08c379a00000000000000000000000000000000000000000000000000000000081526004018080602001828103825260178152602001807f456e7465722076616c69642070726564696374696f6e7300000000000000000081525060200191505060405180910390fd5b61128888888080601f016020809104026020016040519081016040528093929190818152602001838380828437600081840152601f19601f8201169050808301925050505050505087878080601f016020809104026020016040519081016040528093929190818152602001838380828437600081840152601f19601f8201169050808301925050505050505086868080601f016020809104026020016040519081016040528093929190818152602001838380828437600081840152601f19601f8201169050808301925050505050505085858080601f016020809104026020016040519081016040528093929190818152602001838380828437600081840152601f19601f82011690508083019250505050505050612575565b5050505050505050565b61129b33610e8b565b6112f0576040517f08c379a000000000000000000000000000000000000000000000000000000000815260040180806020018281038252602e815260200180612f16602e913960400191505060405180910390fd5b6112f981612935565b50565b61130c61130761298f565b61146a565b611361576040517f08c379a0000000000000000000000000000000000000000000000000000000008152600401808060200182810382526030815260200180612ea36030913960400191505060405180910390fd5b600360009054906101000a900460ff166113e3576040517f08c379a00000000000000000000000000000000000000000000000000000000081526004018080602001828103825260148152602001807f5061757361626c653a206e6f742070617573656400000000000000000000000081525060200191505060405180910390fd5b6000600360006101000a81548160ff0219169083151502179055507f5db9ee0a495bf2e6ff9c91a7834c1ba4fdd244a5e8aa4e537bd38aeae4b073aa61142761298f565b604051808273ffffffffffffffffffffffffffffffffffffffff1673ffffffffffffffffffffffffffffffffffffffff16815260200191505060405180910390a1565b600061148082600261249790919063ffffffff16565b9050919050565b6000600360009054906101000a900460ff16905090565b60055481565b6114b46114af61298f565b612997565b565b6114bf33610e8b565b611514576040517f08c379a000000000000000000000000000000000000000000000000000000000815260040180806020018281038252602e815260200180612f16602e913960400191505060405180910390fd5b61151d816129f1565b50565b61152933611fe7565b61157e576040517f08c379a0000000000000000000000000000000000000000000000000000000008152600401808060200182810382526032815260200180612e716032913960400191505060405180910390fd5b600360009054906101000a900460ff1615611601576040517f08c379a00000000000000000000000000000000000000000000000000000000081526004018080602001828103825260108152602001807f5061757361626c653a207061757365640000000000000000000000000000000081525060200191505060405180910390fd5b60008111611677576040517f08c379a00000000000000000000000000000000000000000000000000000000081526004018080602001828103825260198152602001807f50726f706f73616c203020646f6573206e6f742065786973740000000000000081525060200191505060405180910390fd5b6116818133612004565b156116f4576040517f08c379a00000000000000000000000000000000000000000000000000000000081526004018080602001828103825260168152602001807f596f75206861766520616c726561647920766f7465640000000000000000000081525060200191505060405180910390fd5b60055481111561174f576040517f08c379a0000000000000000000000000000000000000000000000000000000008152600401808060200182810382526029815260200180612f446029913960400191505060405180910390fd5b6004600082815260200190815260200160002060090160009054906101000a900460ff16156117c9576040517f08c379a0000000000000000000000000000000000000000000000000000000008152600401808060200182810382526023815260200180612f6d6023913960400191505060405180910390fd5b6117d38133612074565b6117dc81612a4b565b50565b6117ef6117ea61298f565b61146a565b611844576040517f08c379a0000000000000000000000000000000000000000000000000000000008152600401808060200182810382526030815260200180612ea36030913960400191505060405180910390fd5b61184d81612ab8565b50565b61186061185b61298f565b61146a565b6118b5576040517f08c379a0000000000000000000000000000000000000000000000000000000008152600401808060200182810382526030815260200180612ea36030913960400191505060405180910390fd5b600360009054906101000a900460ff1615611938576040517f08c379a00000000000000000000000000000000000000000000000000000000081526004018080602001828103825260108152602001807f5061757361626c653a207061757365640000000000000000000000000000000081525060200191505060405180910390fd5b6001600360006101000a81548160ff0219169083151502179055507f62e78cea01bee320cd4e420270b5ea74000d11b0c9f74754ebdbfc544b05a25861197c61298f565b604051808273ffffffffffffffffffffffffffffffffffffffff1673ffffffffffffffffffffffffffffffffffffffff16815260200191505060405180910390a1565b6119c833611fe7565b611a1d576040517f08c379a0000000000000000000000000000000000000000000000000000000008152600401808060200182810382526032815260200180612e716032913960400191505060405180910390fd5b600360009054906101000a900460ff1615611aa0576040517f08c379a00000000000000000000000000000000000000000000000000000000081526004018080602001828103825260108152602001807f5061757361626c653a207061757365640000000000000000000000000000000081525060200191505060405180910390fd5b60008111611b16576040517f08c379a00000000000000000000000000000000000000000000000000000000081526004018080602001828103825260198152602001807f50726f706f73616c203020646f6573206e6f742065786973740000000000000081525060200191505060405180910390fd5b611b208133612004565b15611b93576040517f08c379a00000000000000000000000000000000000000000000000000000000081526004018080602001828103825260168152602001807f596f75206861766520616c726561647920766f7465640000000000000000000081525060200191505060405180910390fd5b600554811115611bee576040517f08c379a0000000000000000000000000000000000000000000000000000000008152600401808060200182810382526029815260200180612f446029913960400191505060405180910390fd5b6004600082815260200190815260200160002060090160009054906101000a900460ff1615611c68576040517f08c379a0000000000000000000000000000000000000000000000000000000008152600401808060200182810382526023815260200180612f6d6023913960400191505060405180910390fd5b611c728133612074565b611c7b81612b12565b50565b611c8733610e8b565b611cdc576040517f08c379a000000000000000000000000000000000000000000000000000000000815260040180806020018281038252602e815260200180612f16602e913960400191505060405180910390fd5b611ce581612b7f565b50565b6004602052806000526040600020600091509050806000015490806001018054600181600116156101000203166002900480601f016020809104026020016040519081016040528092919081815260200182805460018160011615610100020316600290048015611d9a5780601f10611d6f57610100808354040283529160200191611d9a565b820191906000526020600020905b815481529060010190602001808311611d7d57829003601f168201915b505050505090806002018054600181600116156101000203166002900480601f016020809104026020016040519081016040528092919081815260200182805460018160011615610100020316600290048015611e385780601f10611e0d57610100808354040283529160200191611e38565b820191906000526020600020905b815481529060010190602001808311611e1b57829003601f168201915b505050505090806003018054600181600116156101000203166002900480601f016020809104026020016040519081016040528092919081815260200182805460018160011615610100020316600290048015611ed65780601f10611eab57610100808354040283529160200191611ed6565b820191906000526020600020905b815481529060010190602001808311611eb957829003601f168201915b505050505090806004018054600181600116156101000203166002900480601f016020809104026020016040519081016040528092919081815260200182805460018160011615610100020316600290048015611f745780601f10611f4957610100808354040283529160200191611f74565b820191906000526020600020905b815481529060010190602001808311611f5757829003601f168201915b5050505050908060050160009054906101000a900473ffffffffffffffffffffffffffffffffffffffff16908060060154908060070154908060080154908060090160009054906101000a900460ff16908060090160019054906101000a900460ff1690508b565b611fe533612bd9565b565b6000611ffd82600161249790919063ffffffff16565b9050919050565b60008060046000858152602001908152602001600020905080600a0160008473ffffffffffffffffffffffffffffffffffffffff1673ffffffffffffffffffffffffffffffffffffffff16815260200190815260200160002060009054906101000a900460ff1691505092915050565b6000600460008481526020019081526020016000209050600181600a0160008473ffffffffffffffffffffffffffffffffffffffff1673ffffffffffffffffffffffffffffffffffffffff16815260200190815260200160002060006101000a81548160ff021916908315150217905550505050565b60046000828152602001908152602001600020600801600081548092919060010191905055503373ffffffffffffffffffffffffffffffffffffffff16817fd09245fb749f299c407a6d04d1f7c751368d4475c6f7b0b2a9f7db2ca60f5c0460405160405180910390a350565b60018114156121c9576004600083815260200190815260200160002060070154600460008481526020019081526020016000206006015411156121c45760016004600084815260200190815260200160002060090160016101000a81548160ff0219169083151502179055505b6123d2565b60028114156122775760046000838152602001908152602001600020600601546001600260046000868152602001908152602001600020600801546004600087815260200190815260200160002060070154600460008881526020019081526020016000206006015401018161223b57fe5b0401116122725760016004600084815260200190815260200160002060090160016101000a81548160ff0219169083151502179055505b6123d1565b600381141561232557600460008381526020019081526020016000206006015460056003600460008681526020019081526020016000206008015460046000878152602001908152602001600020600701546004600088815260200190815260200160002060060154010102816122ea57fe5b04116123205760016004600084815260200190815260200160002060090160016101000a81548160ff0219169083151502179055505b6123d0565b60048114156123cf576004600083815260200190815260200160002060060154600360026004600086815260200190815260200160002060080154600460008781526020019081526020016000206007015460046000888152602001908152602001600020600601540101028161239857fe5b04116123ce5760016004600084815260200190815260200160002060090160016101000a81548160ff0219169083151502179055505b5b5b5b5b817fcf28d44ef2a3af92c50f5d0e12cd1b22d249a2163cee125ef09558017a62b7486004600085815260200190815260200160002060060154600460008681526020019081526020016000206007015460046000878152602001908152602001600020600801546004600088815260200190815260200160002060090160019054906101000a900460ff168660405180868152602001858152602001848152602001831515151581526020018281526020019550505050505060405180910390a25050565b60008073ffffffffffffffffffffffffffffffffffffffff168273ffffffffffffffffffffffffffffffffffffffff16141561251e576040517f08c379a0000000000000000000000000000000000000000000000000000000008152600401808060200182810382526022815260200180612ef46022913960400191505060405180910390fd5b8260000160008373ffffffffffffffffffffffffffffffffffffffff1673ffffffffffffffffffffffffffffffffffffffff16815260200190815260200160002060009054906101000a900460ff16905092915050565b60056000815480929190600101919050555060405180610160016040528060055481526020018581526020018481526020018381526020018281526020013373ffffffffffffffffffffffffffffffffffffffff1681526020016000815260200160008152602001600081526020016000151581526020016000151581525060046000600554815260200190815260200160002060008201518160000155602082015181600101908051906020019061262f929190612dcb565b50604082015181600201908051906020019061264c929190612dcb565b506060820151816003019080519060200190612669929190612dcb565b506080820151816004019080519060200190612686929190612dcb565b5060a08201518160050160006101000a81548173ffffffffffffffffffffffffffffffffffffffff021916908373ffffffffffffffffffffffffffffffffffffffff16021790555060c0820151816006015560e0820151816007015561010082015181600801556101208201518160090160006101000a81548160ff0219169083151502179055506101408201518160090160016101000a81548160ff0219169083151502179055509050503373ffffffffffffffffffffffffffffffffffffffff166005547f03a8cd7013d9aba84663b53104bee3da9132bf4a58957331d62658988e79d4d2868686866040518080602001806020018060200180602001858103855289818151815260200191508051906020019080838360005b838110156127bd5780820151818401526020810190506127a2565b50505050905090810190601f1680156127ea5780820380516001836020036101000a031916815260200191505b50858103845288818151815260200191508051906020019080838360005b83811015612823578082015181840152602081019050612808565b50505050905090810190601f1680156128505780820380516001836020036101000a031916815260200191505b50858103835287818151815260200191508051906020019080838360005b8381101561288957808201518184015260208101905061286e565b50505050905090810190601f1680156128b65780820380516001836020036101000a031916815260200191505b50858103825286818151815260200191508051906020019080838360005b838110156128ef5780820151818401526020810190506128d4565b50505050905090810190601f16801561291c5780820380516001836020036101000a031916815260200191505b509850505050505050505060405180910390a350505050565b612949816001612c3390919063ffffffff16565b8073ffffffffffffffffffffffffffffffffffffffff167f272724e48012716338baa876acb4880d28ebeeb2176425a360610dd5acb99c4760405160405180910390a250565b600033905090565b6129ab816002612d0e90919063ffffffff16565b8073ffffffffffffffffffffffffffffffffffffffff167fcd265ebaf09df2871cc7bd4133404a235ba12eff2041bb89d9c714a2621c7c7e60405160405180910390a250565b612a05816000612c3390919063ffffffff16565b8073ffffffffffffffffffffffffffffffffffffffff167f44d6d25963f097ad14f29f06854a01f575648a1ef82f30e562ccd3889717e33960405160405180910390a250565b60046000828152602001908152602001600020600701600081548092919060010191905055503373ffffffffffffffffffffffffffffffffffffffff16817f2ceeb8c5f7191a9cac4d030da0c6285d75510517ce4a2c12d395ddebae06609f60405160405180910390a350565b612acc816002612c3390919063ffffffff16565b8073ffffffffffffffffffffffffffffffffffffffff167f6719d08c1888103bea251a4ed56406bd0c3e69723c8a1686e017e7bbe159b6f860405160405180910390a250565b60046000828152602001908152602001600020600601600081548092919060010191905055503373ffffffffffffffffffffffffffffffffffffffff16817fe258b293464188d496bcf995ff8c8a04f4e79ebaf6cd955e9364c4b329c0a16a60405160405180910390a350565b612b93816001612d0e90919063ffffffff16565b8073ffffffffffffffffffffffffffffffffffffffff167f86ffc4c1bcf9a37474de354dc295e858ac1bb8e5dcf6255375aafca4b7f7474f60405160405180910390a250565b612bed816000612d0e90919063ffffffff16565b8073ffffffffffffffffffffffffffffffffffffffff167fa3b62bc36326052d97ea62d63c3d60308ed4c3ea8ac079dd8499f1e9c4f80c0f60405160405180910390a250565b612c3d8282612497565b15612cb0576040517f08c379a000000000000000000000000000000000000000000000000000000000815260040180806020018281038252601f8152602001807f526f6c65733a206163636f756e7420616c72656164792068617320726f6c650081525060200191505060405180910390fd5b60018260000160008373ffffffffffffffffffffffffffffffffffffffff1673ffffffffffffffffffffffffffffffffffffffff16815260200190815260200160002060006101000a81548160ff0219169083151502179055505050565b612d188282612497565b612d6d576040517f08c379a0000000000000000000000000000000000000000000000000000000008152600401808060200182810382526021815260200180612ed36021913960400191505060405180910390fd5b60008260000160008373ffffffffffffffffffffffffffffffffffffffff1673ffffffffffffffffffffffffffffffffffffffff16815260200190815260200160002060006101000a81548160ff0219169083151502179055505050565b828054600181600116156101000203166002900490600052602060002090601f016020900481019282601f10612e0c57805160ff1916838001178555612e3a565b82800160010185558215612e3a579182015b82811115612e39578251825591602001919060010190612e1e565b5b509050612e479190612e4b565b5090565b612e6d91905b80821115612e69576000816000905550600101612e51565b5090565b9056fe436974697a656e526f6c653a2063616c6c657220646f6573206e6f7420686176652074686520436974697a656e20726f6c65506175736572526f6c653a2063616c6c657220646f6573206e6f742068617665207468652050617573657220726f6c65526f6c65733a206163636f756e7420646f6573206e6f74206861766520726f6c65526f6c65733a206163636f756e7420697320746865207a65726f206164647265737341646d696e526f6c653a2063616c6c657220646f6573206e6f742068617665207468652041646d696e20726f6c655468652070726f706f73616c206973206e6f74207265676973746572656420696e2074686520424f455468652070726f706f73616c2068617320616c7265616479206265656e20766f746564a265627a7a72315820559fdb11283a1ab622bc9ed18426b715ac8a63a5158c39fb6b7a0526502aad4f64736f6c634300050b0032526f6c65733a206163636f756e7420697320746865207a65726f2061646472657373",
  "source": "pragma solidity ^0.5.11;\r\n\r\nimport \"./CitizenRole.sol\";\r\nimport \"./Pausable.sol\";\r\n\r\ncontract Proposals is CitizenRole, Pausable {\r\n    event votedForEvent(uint indexed _proposalIdentifier, address indexed _voter);\r\n    event votedAgainstEvent(uint indexed _proposalIdentifier, address indexed _voter);\r\n    event votedAbstentionEvent(uint indexed _proposalIdentifier, address indexed _voter);\r\n    event proposalCreatedEvent(\r\n        uint indexed _proposalIdentifier,\r\n        string _proposalType,\r\n        string _title,\r\n        string _body,\r\n        string _predictions,\r\n        address indexed _author\r\n    );\r\n    event proposalVotedEvent(\r\n        uint indexed _proposalIdentifier,\r\n        uint _votesFor,\r\n        uint _votesAgainst,\r\n        uint _abstentions,\r\n        bool _approved,\r\n        uint _majorityType\r\n    );\r\n\r\n    struct Law {\r\n        uint identifier;\r\n        string proposalType;\r\n        string title;\r\n        string body;\r\n        string predictions;\r\n        address author;\r\n        uint votesFor;\r\n        uint votesAgainst;\r\n        uint abstentions;\r\n        bool voted;\r\n        bool approved;\r\n        mapping(address => bool) voters;\r\n    }\r\n\r\n    mapping(uint => Law) public BOE;\r\n\r\n    uint public counter = 0;\r\n\r\n    function voteLaw(uint _identifier, uint _majority) external onlyAdmin whenPaused {\r\n        require(_identifier > 0, \"Proposal 0 does not exist\");\r\n        require(_identifier <= counter, \"Proposal not in BOE\");\r\n        require(!BOE[_identifier].voted, \"Proposal already voted\");\r\n        require(_majority >= 1, \"Select a valid majority type\");\r\n        require(_majority <= 4, \"Select a valid majority type\");\r\n        BOE[_identifier].voted = true;\r\n        _voteLaw(_identifier, _majority);\r\n    }\r\n\r\n    function _voteLaw(uint _identifier, uint _majority) internal {\r\n        // mayoria simple\r\n        if (_majority == 1) {\r\n            if (BOE[_identifier].votesFor > BOE[_identifier].votesAgainst){\r\n                BOE[_identifier].approved = true;\r\n            }\r\n        // mayoria absoluta\r\n        } else if (_majority == 2) {\r\n            if ((((BOE[_identifier].votesFor + BOE[_identifier].votesAgainst + BOE[_identifier].abstentions)/2)+1) <= BOE[_identifier].votesFor) {\r\n                BOE[_identifier].approved = true;\r\n            }\r\n        // mayoria de 3/5\r\n        } else if (_majority == 3) {\r\n            if (((BOE[_identifier].votesFor + BOE[_identifier].votesAgainst + BOE[_identifier].abstentions)*3/5) <= BOE[_identifier].votesFor) {\r\n                BOE[_identifier].approved = true;\r\n            }\r\n        // mayoria de 2/3\r\n        } else if (_majority == 4) {\r\n            if (((BOE[_identifier].votesFor + BOE[_identifier].votesAgainst + BOE[_identifier].abstentions)*2/3) <= BOE[_identifier].votesFor) {\r\n                BOE[_identifier].approved = true;\r\n            }\r\n        }\r\n        emit proposalVotedEvent(\r\n            _identifier,\r\n            BOE[_identifier].votesFor,\r\n            BOE[_identifier].votesAgainst,\r\n            BOE[_identifier].abstentions,\r\n            BOE[_identifier].approved,\r\n            _majority\r\n        );\r\n    }\r\n\r\n    function _getLawVoters(uint _identifier, address _voter) internal view returns(bool) {\r\n        Law storage l = BOE[_identifier];\r\n        return (l.voters[_voter]);\r\n    }\r\n\r\n    function _countLawVote(uint _identifier, address _voter) internal {\r\n        Law storage l = BOE[_identifier];\r\n        l.voters[_voter] = true;\r\n    }\r\n\r\n    function voteFor(uint _identifier) external onlyCitizen whenNotPaused {\r\n        require(_identifier > 0, \"Proposal 0 does not exist\");\r\n        require(!_getLawVoters(_identifier, msg.sender), \"You have already voted\");\r\n        require(_identifier <= counter, \"The proposal is not registered in the BOE\");\r\n        require(!BOE[_identifier].voted,\"The proposal has already been voted\");\r\n        _countLawVote(_identifier, msg.sender);\r\n        _voteFor(_identifier);\r\n    }\r\n\r\n    function _voteFor(uint _identifier) internal {\r\n        BOE[_identifier].votesFor ++;\r\n        emit votedForEvent(_identifier, msg.sender);\r\n    }\r\n\r\n    function voteAgainst(uint _identifier) external onlyCitizen whenNotPaused {\r\n        require(_identifier > 0, \"Proposal 0 does not exist\");\r\n        require(!_getLawVoters(_identifier, msg.sender), \"You have already voted\");\r\n        require(_identifier <= counter, \"The proposal is not registered in the BOE\");\r\n        require(!BOE[_identifier].voted,\"The proposal has already been voted\");\r\n        _countLawVote(_identifier, msg.sender);\r\n        _voteAgainst(_identifier);\r\n    }\r\n\r\n    function _voteAgainst(uint _identifier) internal {\r\n        BOE[_identifier].votesAgainst ++;\r\n        emit votedAgainstEvent(_identifier, msg.sender);\r\n    }\r\n\r\n    function voteAbstention(uint _identifier) external onlyCitizen whenNotPaused {\r\n        require(_identifier > 0, \"Proposal 0 does not exist\");\r\n        require(!_getLawVoters(_identifier, msg.sender), \"You have already voted\");\r\n        require(_identifier <= counter, \"The proposal is not registered in the BOE\");\r\n        require(!BOE[_identifier].voted,\"The proposal has already been voted\");\r\n        _countLawVote(_identifier, msg.sender);\r\n        _voteAbstention(_identifier);\r\n    }\r\n\r\n    function _voteAbstention(uint _identifier) internal {\r\n        BOE[_identifier].abstentions ++;\r\n        emit votedAbstentionEvent(_identifier, msg.sender);\r\n    }\r\n\r\n    function createProposal(string calldata _proposalType, string calldata _title, string calldata _body, string calldata _predictions)\r\n            external\r\n            onlyCitizen\r\n            whenPaused\r\n        {\r\n            require(bytes(_proposalType).length > 0, \"Enter a valid proposal type\");\r\n            require(bytes(_title).length > 0, \"Enter a valid title\");\r\n            require(bytes(_body).length > 0, \"Enter a valid body\");\r\n            require(bytes(_predictions).length > 0, \"Enter valid predictions\");\r\n            _createProposal(_proposalType, _title, _body, _predictions);\r\n        }\r\n\r\n    function _createProposal(string memory _proposalType, string memory _title, string memory _body, string memory _predictions) internal {\r\n        counter ++;\r\n        BOE[counter] = Law(counter, _proposalType, _title, _body, _predictions, msg.sender, 0, 0, 0, false, false);\r\n        emit proposalCreatedEvent(counter, _proposalType, _title, _body, _predictions, msg.sender);\r\n    }\r\n}",
  "sourcePath": "C:/Users/amoro/Desktop/PROYECTOS/Blockchain/Ethereum/BitVoteSystem/System/bitvote-system/src/contracts/Proposals.sol",
  "compiler": {
    "name": "solc",
    "version": "0.5.11+commit.c082d0b4.Emscripten.clang"
  },
  "schemaVersion": "3.0.11",
  "updatedAt": "2019-12-07T22:22:06.113Z",
  "devdoc": {
    "methods": {
      "pause()": {
        "details": "Called by a pauser to pause, triggers stopped state.\r"
      },
      "paused()": {
        "details": "Returns true if the contract is paused, and false otherwise.\r"
      },
      "unpause()": {
        "details": "Called by a pauser to unpause, returns to normal state.\r"
      }
    }
  },
  "userdoc": {
    "methods": {}
  }
}