{
  "contractName": "Proposals",
  "abi": [
    {
      "constant": true,
      "inputs": [
        {
          "internalType": "address",
          "name": "account",
          "type": "address"
        }
      ],
      "name": "isAdmin",
      "outputs": [
        {
          "internalType": "bool",
          "name": "",
          "type": "bool"
        }
      ],
      "payable": false,
      "stateMutability": "view",
      "type": "function"
    },
    {
      "constant": false,
      "inputs": [
        {
          "internalType": "address",
          "name": "account",
          "type": "address"
        }
      ],
      "name": "addCitizen",
      "outputs": [],
      "payable": false,
      "stateMutability": "nonpayable",
      "type": "function"
    },
    {
      "constant": false,
      "inputs": [],
      "name": "unpause",
      "outputs": [],
      "payable": false,
      "stateMutability": "nonpayable",
      "type": "function"
    },
    {
      "constant": true,
      "inputs": [
        {
          "internalType": "address",
          "name": "account",
          "type": "address"
        }
      ],
      "name": "isPauser",
      "outputs": [
        {
          "internalType": "bool",
          "name": "",
          "type": "bool"
        }
      ],
      "payable": false,
      "stateMutability": "view",
      "type": "function"
    },
    {
      "constant": true,
      "inputs": [],
      "name": "paused",
      "outputs": [
        {
          "internalType": "bool",
          "name": "",
          "type": "bool"
        }
      ],
      "payable": false,
      "stateMutability": "view",
      "type": "function"
    },
    {
      "constant": true,
      "inputs": [],
      "name": "counter",
      "outputs": [
        {
          "internalType": "uint256",
          "name": "",
          "type": "uint256"
        }
      ],
      "payable": false,
      "stateMutability": "view",
      "type": "function"
    },
    {
      "constant": false,
      "inputs": [],
      "name": "renouncePauser",
      "outputs": [],
      "payable": false,
      "stateMutability": "nonpayable",
      "type": "function"
    },
    {
      "constant": false,
      "inputs": [
        {
          "internalType": "address",
          "name": "account",
          "type": "address"
        }
      ],
      "name": "addAdmin",
      "outputs": [],
      "payable": false,
      "stateMutability": "nonpayable",
      "type": "function"
    },
    {
      "constant": false,
      "inputs": [
        {
          "internalType": "address",
          "name": "account",
          "type": "address"
        }
      ],
      "name": "addPauser",
      "outputs": [],
      "payable": false,
      "stateMutability": "nonpayable",
      "type": "function"
    },
    {
      "constant": false,
      "inputs": [],
      "name": "pause",
      "outputs": [],
      "payable": false,
      "stateMutability": "nonpayable",
      "type": "function"
    },
    {
      "constant": false,
      "inputs": [
        {
          "internalType": "address",
          "name": "account",
          "type": "address"
        }
      ],
      "name": "removeCitizen",
      "outputs": [],
      "payable": false,
      "stateMutability": "nonpayable",
      "type": "function"
    },
    {
      "constant": true,
      "inputs": [
        {
          "internalType": "uint256",
          "name": "",
          "type": "uint256"
        }
      ],
      "name": "BOE",
      "outputs": [
        {
          "internalType": "uint256",
          "name": "identifier",
          "type": "uint256"
        },
        {
          "internalType": "string",
          "name": "proposalType",
          "type": "string"
        },
        {
          "internalType": "string",
          "name": "title",
          "type": "string"
        },
        {
          "internalType": "string",
          "name": "body",
          "type": "string"
        },
        {
          "internalType": "string",
          "name": "predictions",
          "type": "string"
        },
        {
          "internalType": "address",
          "name": "author",
          "type": "address"
        },
        {
          "internalType": "uint256",
          "name": "votesFor",
          "type": "uint256"
        },
        {
          "internalType": "uint256",
          "name": "votesAgainst",
          "type": "uint256"
        },
        {
          "internalType": "uint256",
          "name": "abstentions",
          "type": "uint256"
        },
        {
          "internalType": "bool",
          "name": "voted",
          "type": "bool"
        },
        {
          "internalType": "bool",
          "name": "approved",
          "type": "bool"
        }
      ],
      "payable": false,
      "stateMutability": "view",
      "type": "function"
    },
    {
      "constant": false,
      "inputs": [],
      "name": "renonceAdmin",
      "outputs": [],
      "payable": false,
      "stateMutability": "nonpayable",
      "type": "function"
    },
    {
      "constant": true,
      "inputs": [
        {
          "internalType": "address",
          "name": "account",
          "type": "address"
        }
      ],
      "name": "isCitizen",
      "outputs": [
        {
          "internalType": "bool",
          "name": "",
          "type": "bool"
        }
      ],
      "payable": false,
      "stateMutability": "view",
      "type": "function"
    },
    {
      "anonymous": false,
      "inputs": [
        {
          "indexed": true,
          "internalType": "uint256",
          "name": "_proposalIdentifier",
          "type": "uint256"
        },
        {
          "indexed": true,
          "internalType": "address",
          "name": "_voter",
          "type": "address"
        }
      ],
      "name": "votedForEvent",
      "type": "event"
    },
    {
      "anonymous": false,
      "inputs": [
        {
          "indexed": true,
          "internalType": "uint256",
          "name": "_proposalIdentifier",
          "type": "uint256"
        },
        {
          "indexed": true,
          "internalType": "address",
          "name": "_voter",
          "type": "address"
        }
      ],
      "name": "votedAgainstEvent",
      "type": "event"
    },
    {
      "anonymous": false,
      "inputs": [
        {
          "indexed": true,
          "internalType": "uint256",
          "name": "_proposalIdentifier",
          "type": "uint256"
        },
        {
          "indexed": true,
          "internalType": "address",
          "name": "_voter",
          "type": "address"
        }
      ],
      "name": "votedAbstentionEvent",
      "type": "event"
    },
    {
      "anonymous": false,
      "inputs": [
        {
          "indexed": true,
          "internalType": "uint256",
          "name": "_proposalIdentifier",
          "type": "uint256"
        },
        {
          "indexed": false,
          "internalType": "string",
          "name": "_proposalType",
          "type": "string"
        },
        {
          "indexed": false,
          "internalType": "string",
          "name": "_title",
          "type": "string"
        },
        {
          "indexed": false,
          "internalType": "string",
          "name": "_body",
          "type": "string"
        },
        {
          "indexed": false,
          "internalType": "string",
          "name": "_predictions",
          "type": "string"
        },
        {
          "indexed": true,
          "internalType": "address",
          "name": "_author",
          "type": "address"
        }
      ],
      "name": "proposalCreatedEvent",
      "type": "event"
    },
    {
      "anonymous": false,
      "inputs": [
        {
          "indexed": true,
          "internalType": "uint256",
          "name": "_proposalIdentifier",
          "type": "uint256"
        },
        {
          "indexed": false,
          "internalType": "uint256",
          "name": "_votesFor",
          "type": "uint256"
        },
        {
          "indexed": false,
          "internalType": "uint256",
          "name": "_votesAgainst",
          "type": "uint256"
        },
        {
          "indexed": false,
          "internalType": "uint256",
          "name": "_abstentions",
          "type": "uint256"
        },
        {
          "indexed": false,
          "internalType": "bool",
          "name": "_approved",
          "type": "bool"
        },
        {
          "indexed": false,
          "internalType": "uint256",
          "name": "_majorityType",
          "type": "uint256"
        }
      ],
      "name": "proposalVotedEvent",
      "type": "event"
    },
    {
      "anonymous": false,
      "inputs": [
        {
          "indexed": false,
          "internalType": "address",
          "name": "account",
          "type": "address"
        }
      ],
      "name": "Paused",
      "type": "event"
    },
    {
      "anonymous": false,
      "inputs": [
        {
          "indexed": false,
          "internalType": "address",
          "name": "account",
          "type": "address"
        }
      ],
      "name": "Unpaused",
      "type": "event"
    },
    {
      "anonymous": false,
      "inputs": [
        {
          "indexed": true,
          "internalType": "address",
          "name": "account",
          "type": "address"
        }
      ],
      "name": "PauserAdded",
      "type": "event"
    },
    {
      "anonymous": false,
      "inputs": [
        {
          "indexed": true,
          "internalType": "address",
          "name": "account",
          "type": "address"
        }
      ],
      "name": "PauserRemoved",
      "type": "event"
    },
    {
      "anonymous": false,
      "inputs": [
        {
          "indexed": true,
          "internalType": "address",
          "name": "account",
          "type": "address"
        }
      ],
      "name": "CitizenAdded",
      "type": "event"
    },
    {
      "anonymous": false,
      "inputs": [
        {
          "indexed": true,
          "internalType": "address",
          "name": "account",
          "type": "address"
        }
      ],
      "name": "CitizenRemoved",
      "type": "event"
    },
    {
      "anonymous": false,
      "inputs": [
        {
          "indexed": true,
          "internalType": "address",
          "name": "account",
          "type": "address"
        }
      ],
      "name": "AdminAdded",
      "type": "event"
    },
    {
      "anonymous": false,
      "inputs": [
        {
          "indexed": true,
          "internalType": "address",
          "name": "account",
          "type": "address"
        }
      ],
      "name": "AdminRemoved",
      "type": "event"
    },
    {
      "constant": true,
      "inputs": [
        {
          "internalType": "uint256",
          "name": "_identifier",
          "type": "uint256"
        },
        {
          "internalType": "uint256",
          "name": "_voteType",
          "type": "uint256"
        }
      ],
      "name": "votes",
      "outputs": [
        {
          "internalType": "uint256",
          "name": "",
          "type": "uint256"
        }
      ],
      "payable": false,
      "stateMutability": "view",
      "type": "function"
    },
    {
      "constant": false,
      "inputs": [
        {
          "internalType": "uint256",
          "name": "_identifier",
          "type": "uint256"
        },
        {
          "internalType": "uint256",
          "name": "_majority",
          "type": "uint256"
        }
      ],
      "name": "voteLaw",
      "outputs": [],
      "payable": false,
      "stateMutability": "nonpayable",
      "type": "function"
    },
    {
      "constant": false,
      "inputs": [
        {
          "internalType": "uint256",
          "name": "_identifier",
          "type": "uint256"
        }
      ],
      "name": "voteFor",
      "outputs": [],
      "payable": false,
      "stateMutability": "nonpayable",
      "type": "function"
    },
    {
      "constant": false,
      "inputs": [
        {
          "internalType": "uint256",
          "name": "_identifier",
          "type": "uint256"
        }
      ],
      "name": "voteAgainst",
      "outputs": [],
      "payable": false,
      "stateMutability": "nonpayable",
      "type": "function"
    },
    {
      "constant": false,
      "inputs": [
        {
          "internalType": "uint256",
          "name": "_identifier",
          "type": "uint256"
        }
      ],
      "name": "voteAbstention",
      "outputs": [],
      "payable": false,
      "stateMutability": "nonpayable",
      "type": "function"
    },
    {
      "constant": false,
      "inputs": [
        {
          "internalType": "string",
          "name": "_proposalType",
          "type": "string"
        },
        {
          "internalType": "string",
          "name": "_title",
          "type": "string"
        },
        {
          "internalType": "string",
          "name": "_body",
          "type": "string"
        },
        {
          "internalType": "string",
          "name": "_predictions",
          "type": "string"
        }
      ],
      "name": "createProposal",
      "outputs": [],
      "payable": false,
      "stateMutability": "nonpayable",
      "type": "function"
    }
  ],
  "bytecode": "0x608060405260006005556200001a336200005b60201b60201c565b6200003a6200002e620000bc60201b60201c565b620000c460201b60201c565b6000600360006101000a81548160ff021916908315150217905550620002e9565b620000768160006200012560201b6200305b1790919060201c565b8073ffffffffffffffffffffffffffffffffffffffff167f44d6d25963f097ad14f29f06854a01f575648a1ef82f30e562ccd3889717e33960405160405180910390a250565b600033905090565b620000df8160026200012560201b6200305b1790919060201c565b8073ffffffffffffffffffffffffffffffffffffffff167f6719d08c1888103bea251a4ed56406bd0c3e69723c8a1686e017e7bbe159b6f860405160405180910390a250565b6200013782826200020960201b60201c565b15620001ab576040517f08c379a000000000000000000000000000000000000000000000000000000000815260040180806020018281038252601f8152602001807f526f6c65733a206163636f756e7420616c72656164792068617320726f6c650081525060200191505060405180910390fd5b60018260000160008373ffffffffffffffffffffffffffffffffffffffff1673ffffffffffffffffffffffffffffffffffffffff16815260200190815260200160002060006101000a81548160ff0219169083151502179055505050565b60008073ffffffffffffffffffffffffffffffffffffffff168273ffffffffffffffffffffffffffffffffffffffff16141562000292576040517f08c379a0000000000000000000000000000000000000000000000000000000008152600401808060200182810382526022815260200180620036e56022913960400191505060405180910390fd5b8260000160008373ffffffffffffffffffffffffffffffffffffffff1673ffffffffffffffffffffffffffffffffffffffff16815260200190815260200160002060009054906101000a900460ff16905092915050565b6133ec80620002f96000396000f3fe608060405234801561001057600080fd5b506004361061012c5760003560e01c806370480275116100ad5780639bf4dd0a116100715780639bf4dd0a1461054d578063b59ab66914610591578063bf030948146107e1578063c6e36a32146107eb578063f3caad03146108375761012c565b8063704802751461045f578063750e443a146104a357806382dc1ec4146104d15780638456cb591461051557806386a505351461051f5761012c565b80633f4ba83a116100f45780633f4ba83a146103af57806346fbf68e146103b95780635c975abb1461041557806361bc221a146104375780636ef8d66d146104555761012c565b80631914b06d146101315780631dd7c40e1461015f57806324d7806c146101975780632a689692146101f35780633920dfdf1461036b575b600080fd5b61015d6004803603602081101561014757600080fd5b8101908080359060200190929190505050610893565b005b6101956004803603604081101561017557600080fd5b810190808035906020019092919080359060200190929190505050610b52565b005b6101d9600480360360208110156101ad57600080fd5b81019080803573ffffffffffffffffffffffffffffffffffffffff169060200190929190505050610ee2565b604051808215151515815260200191505060405180910390f35b6103696004803603608081101561020957600080fd5b810190808035906020019064010000000081111561022657600080fd5b82018360208201111561023857600080fd5b8035906020019184600183028401116401000000008311171561025a57600080fd5b90919293919293908035906020019064010000000081111561027b57600080fd5b82018360208201111561028d57600080fd5b803590602001918460018302840111640100000000831117156102af57600080fd5b9091929391929390803590602001906401000000008111156102d057600080fd5b8201836020820111156102e257600080fd5b8035906020019184600183028401116401000000008311171561030457600080fd5b90919293919293908035906020019064010000000081111561032557600080fd5b82018360208201111561033757600080fd5b8035906020019184600183028401116401000000008311171561035957600080fd5b9091929391929390505050610eff565b005b6103ad6004803603602081101561038157600080fd5b81019080803573ffffffffffffffffffffffffffffffffffffffff1690602001909291905050506112e9565b005b6103b7611353565b005b6103fb600480360360208110156103cf57600080fd5b81019080803573ffffffffffffffffffffffffffffffffffffffff1690602001909291905050506114c1565b604051808215151515815260200191505060405180910390f35b61041d6114de565b604051808215151515815260200191505060405180910390f35b61043f6114f5565b6040518082815260200191505060405180910390f35b61045d6114fb565b005b6104a16004803603602081101561047557600080fd5b81019080803573ffffffffffffffffffffffffffffffffffffffff16906020019092919050505061150d565b005b6104cf600480360360208110156104b957600080fd5b8101908080359060200190929190505050611577565b005b610513600480360360208110156104e757600080fd5b81019080803573ffffffffffffffffffffffffffffffffffffffff169060200190929190505050611836565b005b61051d6118a7565b005b61054b6004803603602081101561053557600080fd5b8101908080359060200190929190505050611a16565b005b61058f6004803603602081101561056357600080fd5b81019080803573ffffffffffffffffffffffffffffffffffffffff169060200190929190505050611cd5565b005b6105bd600480360360208110156105a757600080fd5b8101908080359060200190929190505050611d3f565b604051808c8152602001806020018060200180602001806020018b73ffffffffffffffffffffffffffffffffffffffff1673ffffffffffffffffffffffffffffffffffffffff1681526020018a8152602001898152602001888152602001871515151581526020018615151515815260200185810385528f818151815260200191508051906020019080838360005b8381101561066757808201518184015260208101905061064c565b50505050905090810190601f1680156106945780820380516001836020036101000a031916815260200191505b5085810384528e818151815260200191508051906020019080838360005b838110156106cd5780820151818401526020810190506106b2565b50505050905090810190601f1680156106fa5780820380516001836020036101000a031916815260200191505b5085810383528d818151815260200191508051906020019080838360005b83811015610733578082015181840152602081019050610718565b50505050905090810190601f1680156107605780820380516001836020036101000a031916815260200191505b5085810382528c818151815260200191508051906020019080838360005b8381101561079957808201518184015260208101905061077e565b50505050905090810190601f1680156107c65780820380516001836020036101000a031916815260200191505b509f5050505050505050505050505050505060405180910390f35b6107e9612033565b005b6108216004803603604081101561080157600080fd5b81019080803590602001909291908035906020019092919050505061203e565b6040518082815260200191505060405180910390f35b6108796004803603602081101561084d57600080fd5b81019080803573ffffffffffffffffffffffffffffffffffffffff16906020019092919050505061240f565b604051808215151515815260200191505060405180910390f35b61089c3361240f565b6108f1576040517f08c379a00000000000000000000000000000000000000000000000000000000081526004018080602001828103825260328152602001806132996032913960400191505060405180910390fd5b600360009054906101000a900460ff1615610974576040517f08c379a00000000000000000000000000000000000000000000000000000000081526004018080602001828103825260108152602001807f5061757361626c653a207061757365640000000000000000000000000000000081525060200191505060405180910390fd5b600081116109ea576040517f08c379a00000000000000000000000000000000000000000000000000000000081526004018080602001828103825260198152602001807f50726f706f73616c203020646f6573206e6f742065786973740000000000000081525060200191505060405180910390fd5b6109f4813361242c565b15610a67576040517f08c379a00000000000000000000000000000000000000000000000000000000081526004018080602001828103825260168152602001807f596f75206861766520616c726561647920766f7465640000000000000000000081525060200191505060405180910390fd5b600554811115610ac2576040517f08c379a000000000000000000000000000000000000000000000000000000000815260040180806020018281038252602981526020018061336c6029913960400191505060405180910390fd5b6004600082815260200190815260200160002060090160009054906101000a900460ff1615610b3c576040517f08c379a00000000000000000000000000000000000000000000000000000000081526004018080602001828103825260238152602001806133956023913960400191505060405180910390fd5b610b46813361249c565b610b4f81612512565b50565b610b5b33610ee2565b610bb0576040517f08c379a000000000000000000000000000000000000000000000000000000000815260040180806020018281038252602e81526020018061333e602e913960400191505060405180910390fd5b600360009054906101000a900460ff16610c32576040517f08c379a00000000000000000000000000000000000000000000000000000000081526004018080602001828103825260148152602001807f5061757361626c653a206e6f742070617573656400000000000000000000000081525060200191505060405180910390fd5b60008211610ca8576040517f08c379a00000000000000000000000000000000000000000000000000000000081526004018080602001828103825260198152602001807f50726f706f73616c203020646f6573206e6f742065786973740000000000000081525060200191505060405180910390fd5b600554821115610d20576040517f08c379a00000000000000000000000000000000000000000000000000000000081526004018080602001828103825260138152602001807f50726f706f73616c206e6f7420696e20424f450000000000000000000000000081525060200191505060405180910390fd5b6004600083815260200190815260200160002060090160009054906101000a900460ff1615610db7576040517f08c379a00000000000000000000000000000000000000000000000000000000081526004018080602001828103825260168152602001807f50726f706f73616c20616c726561647920766f7465640000000000000000000081525060200191505060405180910390fd5b6001811015610e2e576040517f08c379a000000000000000000000000000000000000000000000000000000000815260040180806020018281038252601c8152602001807f53656c65637420612076616c6964206d616a6f7269747920747970650000000081525060200191505060405180910390fd5b6004811115610ea5576040517f08c379a000000000000000000000000000000000000000000000000000000000815260040180806020018281038252601c8152602001807f53656c65637420612076616c6964206d616a6f7269747920747970650000000081525060200191505060405180910390fd5b60016004600084815260200190815260200160002060090160006101000a81548160ff021916908315150217905550610ede828261257f565b5050565b6000610ef88260006128bf90919063ffffffff16565b9050919050565b610f083361240f565b610f5d576040517f08c379a00000000000000000000000000000000000000000000000000000000081526004018080602001828103825260328152602001806132996032913960400191505060405180910390fd5b600360009054906101000a900460ff16610fdf576040517f08c379a00000000000000000000000000000000000000000000000000000000081526004018080602001828103825260148152602001807f5061757361626c653a206e6f742070617573656400000000000000000000000081525060200191505060405180910390fd5b60008888905011611058576040517f08c379a000000000000000000000000000000000000000000000000000000000815260040180806020018281038252601b8152602001807f456e74657220612076616c69642070726f706f73616c2074797065000000000081525060200191505060405180910390fd5b600086869050116110d1576040517f08c379a00000000000000000000000000000000000000000000000000000000081526004018080602001828103825260138152602001807f456e74657220612076616c6964207469746c650000000000000000000000000081525060200191505060405180910390fd5b6000848490501161114a576040517f08c379a00000000000000000000000000000000000000000000000000000000081526004018080602001828103825260128152602001807f456e74657220612076616c696420626f6479000000000000000000000000000081525060200191505060405180910390fd5b600082829050116111c3576040517f08c379a00000000000000000000000000000000000000000000000000000000081526004018080602001828103825260178152602001807f456e7465722076616c69642070726564696374696f6e7300000000000000000081525060200191505060405180910390fd5b6112df88888080601f016020809104026020016040519081016040528093929190818152602001838380828437600081840152601f19601f8201169050808301925050505050505087878080601f016020809104026020016040519081016040528093929190818152602001838380828437600081840152601f19601f8201169050808301925050505050505086868080601f016020809104026020016040519081016040528093929190818152602001838380828437600081840152601f19601f8201169050808301925050505050505085858080601f016020809104026020016040519081016040528093929190818152602001838380828437600081840152601f19601f8201169050808301925050505050505061299d565b5050505050505050565b6112f233610ee2565b611347576040517f08c379a000000000000000000000000000000000000000000000000000000000815260040180806020018281038252602e81526020018061333e602e913960400191505060405180910390fd5b61135081612d5d565b50565b61136361135e612db7565b6114c1565b6113b8576040517f08c379a00000000000000000000000000000000000000000000000000000000081526004018080602001828103825260308152602001806132cb6030913960400191505060405180910390fd5b600360009054906101000a900460ff1661143a576040517f08c379a00000000000000000000000000000000000000000000000000000000081526004018080602001828103825260148152602001807f5061757361626c653a206e6f742070617573656400000000000000000000000081525060200191505060405180910390fd5b6000600360006101000a81548160ff0219169083151502179055507f5db9ee0a495bf2e6ff9c91a7834c1ba4fdd244a5e8aa4e537bd38aeae4b073aa61147e612db7565b604051808273ffffffffffffffffffffffffffffffffffffffff1673ffffffffffffffffffffffffffffffffffffffff16815260200191505060405180910390a1565b60006114d78260026128bf90919063ffffffff16565b9050919050565b6000600360009054906101000a900460ff16905090565b60055481565b61150b611506612db7565b612dbf565b565b61151633610ee2565b61156b576040517f08c379a000000000000000000000000000000000000000000000000000000000815260040180806020018281038252602e81526020018061333e602e913960400191505060405180910390fd5b61157481612e19565b50565b6115803361240f565b6115d5576040517f08c379a00000000000000000000000000000000000000000000000000000000081526004018080602001828103825260328152602001806132996032913960400191505060405180910390fd5b600360009054906101000a900460ff1615611658576040517f08c379a00000000000000000000000000000000000000000000000000000000081526004018080602001828103825260108152602001807f5061757361626c653a207061757365640000000000000000000000000000000081525060200191505060405180910390fd5b600081116116ce576040517f08c379a00000000000000000000000000000000000000000000000000000000081526004018080602001828103825260198152602001807f50726f706f73616c203020646f6573206e6f742065786973740000000000000081525060200191505060405180910390fd5b6116d8813361242c565b1561174b576040517f08c379a00000000000000000000000000000000000000000000000000000000081526004018080602001828103825260168152602001807f596f75206861766520616c726561647920766f7465640000000000000000000081525060200191505060405180910390fd5b6005548111156117a6576040517f08c379a000000000000000000000000000000000000000000000000000000000815260040180806020018281038252602981526020018061336c6029913960400191505060405180910390fd5b6004600082815260200190815260200160002060090160009054906101000a900460ff1615611820576040517f08c379a00000000000000000000000000000000000000000000000000000000081526004018080602001828103825260238152602001806133956023913960400191505060405180910390fd5b61182a813361249c565b61183381612e73565b50565b611846611841612db7565b6114c1565b61189b576040517f08c379a00000000000000000000000000000000000000000000000000000000081526004018080602001828103825260308152602001806132cb6030913960400191505060405180910390fd5b6118a481612ee0565b50565b6118b76118b2612db7565b6114c1565b61190c576040517f08c379a00000000000000000000000000000000000000000000000000000000081526004018080602001828103825260308152602001806132cb6030913960400191505060405180910390fd5b600360009054906101000a900460ff161561198f576040517f08c379a00000000000000000000000000000000000000000000000000000000081526004018080602001828103825260108152602001807f5061757361626c653a207061757365640000000000000000000000000000000081525060200191505060405180910390fd5b6001600360006101000a81548160ff0219169083151502179055507f62e78cea01bee320cd4e420270b5ea74000d11b0c9f74754ebdbfc544b05a2586119d3612db7565b604051808273ffffffffffffffffffffffffffffffffffffffff1673ffffffffffffffffffffffffffffffffffffffff16815260200191505060405180910390a1565b611a1f3361240f565b611a74576040517f08c379a00000000000000000000000000000000000000000000000000000000081526004018080602001828103825260328152602001806132996032913960400191505060405180910390fd5b600360009054906101000a900460ff1615611af7576040517f08c379a00000000000000000000000000000000000000000000000000000000081526004018080602001828103825260108152602001807f5061757361626c653a207061757365640000000000000000000000000000000081525060200191505060405180910390fd5b60008111611b6d576040517f08c379a00000000000000000000000000000000000000000000000000000000081526004018080602001828103825260198152602001807f50726f706f73616c203020646f6573206e6f742065786973740000000000000081525060200191505060405180910390fd5b611b77813361242c565b15611bea576040517f08c379a00000000000000000000000000000000000000000000000000000000081526004018080602001828103825260168152602001807f596f75206861766520616c726561647920766f7465640000000000000000000081525060200191505060405180910390fd5b600554811115611c45576040517f08c379a000000000000000000000000000000000000000000000000000000000815260040180806020018281038252602981526020018061336c6029913960400191505060405180910390fd5b6004600082815260200190815260200160002060090160009054906101000a900460ff1615611cbf576040517f08c379a00000000000000000000000000000000000000000000000000000000081526004018080602001828103825260238152602001806133956023913960400191505060405180910390fd5b611cc9813361249c565b611cd281612f3a565b50565b611cde33610ee2565b611d33576040517f08c379a000000000000000000000000000000000000000000000000000000000815260040180806020018281038252602e81526020018061333e602e913960400191505060405180910390fd5b611d3c81612fa7565b50565b6004602052806000526040600020600091509050806000015490806001018054600181600116156101000203166002900480601f016020809104026020016040519081016040528092919081815260200182805460018160011615610100020316600290048015611df15780601f10611dc657610100808354040283529160200191611df1565b820191906000526020600020905b815481529060010190602001808311611dd457829003601f168201915b505050505090806002018054600181600116156101000203166002900480601f016020809104026020016040519081016040528092919081815260200182805460018160011615610100020316600290048015611e8f5780601f10611e6457610100808354040283529160200191611e8f565b820191906000526020600020905b815481529060010190602001808311611e7257829003601f168201915b505050505090806003018054600181600116156101000203166002900480601f016020809104026020016040519081016040528092919081815260200182805460018160011615610100020316600290048015611f2d5780601f10611f0257610100808354040283529160200191611f2d565b820191906000526020600020905b815481529060010190602001808311611f1057829003601f168201915b505050505090806004018054600181600116156101000203166002900480601f016020809104026020016040519081016040528092919081815260200182805460018160011615610100020316600290048015611fcb5780601f10611fa057610100808354040283529160200191611fcb565b820191906000526020600020905b815481529060010190602001808311611fae57829003601f168201915b5050505050908060050160009054906101000a900473ffffffffffffffffffffffffffffffffffffffff16908060060154908060070154908060080154908060090160009054906101000a900460ff16908060090160019054906101000a900460ff1690508b565b61203c33613001565b565b60006120493361240f565b61209e576040517f08c379a00000000000000000000000000000000000000000000000000000000081526004018080602001828103825260328152602001806132996032913960400191505060405180910390fd5b600360009054906101000a900460ff16612120576040517f08c379a00000000000000000000000000000000000000000000000000000000081526004018080602001828103825260148152602001807f5061757361626c653a206e6f742070617573656400000000000000000000000081525060200191505060405180910390fd5b6001821015612197576040517f08c379a00000000000000000000000000000000000000000000000000000000081526004018080602001828103825260118152602001807f496e76616c696420766f7465207479706500000000000000000000000000000081525060200191505060405180910390fd5b600382111561220e576040517f08c379a00000000000000000000000000000000000000000000000000000000081526004018080602001828103825260118152602001807f496e76616c696420766f7465207479706500000000000000000000000000000081525060200191505060405180910390fd5b6001831015612285576040517f08c379a00000000000000000000000000000000000000000000000000000000081526004018080602001828103825260198152602001807f50726f706f73616c203020646f6573206e6f742065786973740000000000000081525060200191505060405180910390fd5b6005548311156122fd576040517f08c379a00000000000000000000000000000000000000000000000000000000081526004018080602001828103825260138152602001807f50726f706f73616c206e6f7420696e20424f450000000000000000000000000081525060200191505060405180910390fd5b6004600084815260200190815260200160002060090160009054906101000a900460ff16612393576040517f08c379a00000000000000000000000000000000000000000000000000000000081526004018080602001828103825260168152602001807f50726f706f73616c206d75737420626520766f7465640000000000000000000081525060200191505060405180910390fd5b60018214156123ba5760046000848152602001908152602001600020600601549050612409565b60028214156123e15760046000848152602001908152602001600020600701549050612409565b60038214156124085760046000848152602001908152602001600020600801549050612409565b5b92915050565b60006124258260016128bf90919063ffffffff16565b9050919050565b60008060046000858152602001908152602001600020905080600a0160008473ffffffffffffffffffffffffffffffffffffffff1673ffffffffffffffffffffffffffffffffffffffff16815260200190815260200160002060009054906101000a900460ff1691505092915050565b6000600460008481526020019081526020016000209050600181600a0160008473ffffffffffffffffffffffffffffffffffffffff1673ffffffffffffffffffffffffffffffffffffffff16815260200190815260200160002060006101000a81548160ff021916908315150217905550505050565b60046000828152602001908152602001600020600801600081548092919060010191905055503373ffffffffffffffffffffffffffffffffffffffff16817fd09245fb749f299c407a6d04d1f7c751368d4475c6f7b0b2a9f7db2ca60f5c0460405160405180910390a350565b60018114156125f1576004600083815260200190815260200160002060070154600460008481526020019081526020016000206006015411156125ec5760016004600084815260200190815260200160002060090160016101000a81548160ff0219169083151502179055505b6127fa565b600281141561269f5760046000838152602001908152602001600020600601546001600260046000868152602001908152602001600020600801546004600087815260200190815260200160002060070154600460008881526020019081526020016000206006015401018161266357fe5b04011161269a5760016004600084815260200190815260200160002060090160016101000a81548160ff0219169083151502179055505b6127f9565b600381141561274d576004600083815260200190815260200160002060060154600560036004600086815260200190815260200160002060080154600460008781526020019081526020016000206007015460046000888152602001908152602001600020600601540101028161271257fe5b04116127485760016004600084815260200190815260200160002060090160016101000a81548160ff0219169083151502179055505b6127f8565b60048114156127f757600460008381526020019081526020016000206006015460036002600460008681526020019081526020016000206008015460046000878152602001908152602001600020600701546004600088815260200190815260200160002060060154010102816127c057fe5b04116127f65760016004600084815260200190815260200160002060090160016101000a81548160ff0219169083151502179055505b5b5b5b5b817fcf28d44ef2a3af92c50f5d0e12cd1b22d249a2163cee125ef09558017a62b7486004600085815260200190815260200160002060060154600460008681526020019081526020016000206007015460046000878152602001908152602001600020600801546004600088815260200190815260200160002060090160019054906101000a900460ff168660405180868152602001858152602001848152602001831515151581526020018281526020019550505050505060405180910390a25050565b60008073ffffffffffffffffffffffffffffffffffffffff168273ffffffffffffffffffffffffffffffffffffffff161415612946576040517f08c379a000000000000000000000000000000000000000000000000000000000815260040180806020018281038252602281526020018061331c6022913960400191505060405180910390fd5b8260000160008373ffffffffffffffffffffffffffffffffffffffff1673ffffffffffffffffffffffffffffffffffffffff16815260200190815260200160002060009054906101000a900460ff16905092915050565b60056000815480929190600101919050555060405180610160016040528060055481526020018581526020018481526020018381526020018281526020013373ffffffffffffffffffffffffffffffffffffffff16815260200160008152602001600081526020016000815260200160001515815260200160001515815250600460006005548152602001908152602001600020600082015181600001556020820151816001019080519060200190612a579291906131f3565b506040820151816002019080519060200190612a749291906131f3565b506060820151816003019080519060200190612a919291906131f3565b506080820151816004019080519060200190612aae9291906131f3565b5060a08201518160050160006101000a81548173ffffffffffffffffffffffffffffffffffffffff021916908373ffffffffffffffffffffffffffffffffffffffff16021790555060c0820151816006015560e0820151816007015561010082015181600801556101208201518160090160006101000a81548160ff0219169083151502179055506101408201518160090160016101000a81548160ff0219169083151502179055509050503373ffffffffffffffffffffffffffffffffffffffff166005547f03a8cd7013d9aba84663b53104bee3da9132bf4a58957331d62658988e79d4d2868686866040518080602001806020018060200180602001858103855289818151815260200191508051906020019080838360005b83811015612be5578082015181840152602081019050612bca565b50505050905090810190601f168015612c125780820380516001836020036101000a031916815260200191505b50858103845288818151815260200191508051906020019080838360005b83811015612c4b578082015181840152602081019050612c30565b50505050905090810190601f168015612c785780820380516001836020036101000a031916815260200191505b50858103835287818151815260200191508051906020019080838360005b83811015612cb1578082015181840152602081019050612c96565b50505050905090810190601f168015612cde5780820380516001836020036101000a031916815260200191505b50858103825286818151815260200191508051906020019080838360005b83811015612d17578082015181840152602081019050612cfc565b50505050905090810190601f168015612d445780820380516001836020036101000a031916815260200191505b509850505050505050505060405180910390a350505050565b612d7181600161305b90919063ffffffff16565b8073ffffffffffffffffffffffffffffffffffffffff167f272724e48012716338baa876acb4880d28ebeeb2176425a360610dd5acb99c4760405160405180910390a250565b600033905090565b612dd381600261313690919063ffffffff16565b8073ffffffffffffffffffffffffffffffffffffffff167fcd265ebaf09df2871cc7bd4133404a235ba12eff2041bb89d9c714a2621c7c7e60405160405180910390a250565b612e2d81600061305b90919063ffffffff16565b8073ffffffffffffffffffffffffffffffffffffffff167f44d6d25963f097ad14f29f06854a01f575648a1ef82f30e562ccd3889717e33960405160405180910390a250565b60046000828152602001908152602001600020600701600081548092919060010191905055503373ffffffffffffffffffffffffffffffffffffffff16817f2ceeb8c5f7191a9cac4d030da0c6285d75510517ce4a2c12d395ddebae06609f60405160405180910390a350565b612ef481600261305b90919063ffffffff16565b8073ffffffffffffffffffffffffffffffffffffffff167f6719d08c1888103bea251a4ed56406bd0c3e69723c8a1686e017e7bbe159b6f860405160405180910390a250565b60046000828152602001908152602001600020600601600081548092919060010191905055503373ffffffffffffffffffffffffffffffffffffffff16817fe258b293464188d496bcf995ff8c8a04f4e79ebaf6cd955e9364c4b329c0a16a60405160405180910390a350565b612fbb81600161313690919063ffffffff16565b8073ffffffffffffffffffffffffffffffffffffffff167f86ffc4c1bcf9a37474de354dc295e858ac1bb8e5dcf6255375aafca4b7f7474f60405160405180910390a250565b61301581600061313690919063ffffffff16565b8073ffffffffffffffffffffffffffffffffffffffff167fa3b62bc36326052d97ea62d63c3d60308ed4c3ea8ac079dd8499f1e9c4f80c0f60405160405180910390a250565b61306582826128bf565b156130d8576040517f08c379a000000000000000000000000000000000000000000000000000000000815260040180806020018281038252601f8152602001807f526f6c65733a206163636f756e7420616c72656164792068617320726f6c650081525060200191505060405180910390fd5b60018260000160008373ffffffffffffffffffffffffffffffffffffffff1673ffffffffffffffffffffffffffffffffffffffff16815260200190815260200160002060006101000a81548160ff0219169083151502179055505050565b61314082826128bf565b613195576040517f08c379a00000000000000000000000000000000000000000000000000000000081526004018080602001828103825260218152602001806132fb6021913960400191505060405180910390fd5b60008260000160008373ffffffffffffffffffffffffffffffffffffffff1673ffffffffffffffffffffffffffffffffffffffff16815260200190815260200160002060006101000a81548160ff0219169083151502179055505050565b828054600181600116156101000203166002900490600052602060002090601f016020900481019282601f1061323457805160ff1916838001178555613262565b82800160010185558215613262579182015b82811115613261578251825591602001919060010190613246565b5b50905061326f9190613273565b5090565b61329591905b80821115613291576000816000905550600101613279565b5090565b9056fe436974697a656e526f6c653a2063616c6c657220646f6573206e6f7420686176652074686520436974697a656e20726f6c65506175736572526f6c653a2063616c6c657220646f6573206e6f742068617665207468652050617573657220726f6c65526f6c65733a206163636f756e7420646f6573206e6f74206861766520726f6c65526f6c65733a206163636f756e7420697320746865207a65726f206164647265737341646d696e526f6c653a2063616c6c657220646f6573206e6f742068617665207468652041646d696e20726f6c655468652070726f706f73616c206973206e6f74207265676973746572656420696e2074686520424f455468652070726f706f73616c2068617320616c7265616479206265656e20766f746564a265627a7a723158205c906302174e5f88d682d823e2ae54966396b535a9eed48f2ad41535b6e3756e64736f6c634300050b0032526f6c65733a206163636f756e7420697320746865207a65726f2061646472657373",
  "source": "pragma solidity ^0.5.0;\r\n\r\nimport \"./CitizenRole.sol\";\r\nimport \"./Pausable.sol\";\r\n\r\ncontract Proposals is CitizenRole, Pausable {\r\n    event votedForEvent(uint indexed _proposalIdentifier, address indexed _voter);\r\n    event votedAgainstEvent(uint indexed _proposalIdentifier, address indexed _voter);\r\n    event votedAbstentionEvent(uint indexed _proposalIdentifier, address indexed _voter);\r\n    event proposalCreatedEvent(\r\n        uint indexed _proposalIdentifier,\r\n        string _proposalType,\r\n        string _title,\r\n        string _body,\r\n        string _predictions,\r\n        address indexed _author\r\n    );\r\n    event proposalVotedEvent(\r\n        uint indexed _proposalIdentifier,\r\n        uint _votesFor,\r\n        uint _votesAgainst,\r\n        uint _abstentions,\r\n        bool _approved,\r\n        uint _majorityType\r\n    );\r\n\r\n    struct Law {\r\n        uint identifier;\r\n        string proposalType;\r\n        string title;\r\n        string body;\r\n        string predictions;\r\n        address author;\r\n        uint votesFor;\r\n        uint votesAgainst;\r\n        uint abstentions;\r\n        bool voted;\r\n        bool approved;\r\n        mapping(address => bool) voters;\r\n    }\r\n\r\n    mapping(uint => Law) public BOE;\r\n\r\n    uint public counter = 0;\r\n\r\n    function votes(uint _identifier, uint _voteType) external view onlyCitizen whenPaused returns(uint){\r\n        require(_voteType >= 1, \"Invalid vote type\");\r\n        require(_voteType <= 3, \"Invalid vote type\");\r\n        require(_identifier >= 1, \"Proposal 0 does not exist\");\r\n        require(_identifier <= counter, \"Proposal not in BOE\");\r\n        require(BOE[_identifier].voted, \"Proposal must be voted\");\r\n        if (_voteType == 1) {\r\n            return BOE[_identifier].votesFor;\r\n        } else if (_voteType == 2) {\r\n            return BOE[_identifier].votesAgainst;\r\n        } else if (_voteType == 3) {\r\n            return BOE[_identifier].abstentions;\r\n        }\r\n    }\r\n\r\n    function voteLaw(uint _identifier, uint _majority) external onlyAdmin whenPaused {\r\n        require(_identifier > 0, \"Proposal 0 does not exist\");\r\n        require(_identifier <= counter, \"Proposal not in BOE\");\r\n        require(!BOE[_identifier].voted, \"Proposal already voted\");\r\n        require(_majority >= 1, \"Select a valid majority type\");\r\n        require(_majority <= 4, \"Select a valid majority type\");\r\n        BOE[_identifier].voted = true;\r\n        _voteLaw(_identifier, _majority);\r\n    }\r\n\r\n    function _voteLaw(uint _identifier, uint _majority) internal {\r\n        // mayoria simple\r\n        if (_majority == 1) {\r\n            if (BOE[_identifier].votesFor > BOE[_identifier].votesAgainst){\r\n                BOE[_identifier].approved = true;\r\n            }\r\n        // mayoria absoluta\r\n        } else if (_majority == 2) {\r\n            if ((((BOE[_identifier].votesFor + BOE[_identifier].votesAgainst + BOE[_identifier].abstentions)/2)+1) <= BOE[_identifier].votesFor) {\r\n                BOE[_identifier].approved = true;\r\n            }\r\n        // mayoria de 3/5\r\n        } else if (_majority == 3) {\r\n            if (((BOE[_identifier].votesFor + BOE[_identifier].votesAgainst + BOE[_identifier].abstentions)*3/5) <= BOE[_identifier].votesFor) {\r\n                BOE[_identifier].approved = true;\r\n            }\r\n        // mayoria de 2/3\r\n        } else if (_majority == 4) {\r\n            if (((BOE[_identifier].votesFor + BOE[_identifier].votesAgainst + BOE[_identifier].abstentions)*2/3) <= BOE[_identifier].votesFor) {\r\n                BOE[_identifier].approved = true;\r\n            }\r\n        }\r\n        emit proposalVotedEvent(\r\n            _identifier,\r\n            BOE[_identifier].votesFor,\r\n            BOE[_identifier].votesAgainst,\r\n            BOE[_identifier].abstentions,\r\n            BOE[_identifier].approved,\r\n            _majority\r\n        );\r\n    }\r\n\r\n    function _getLawVoters(uint _identifier, address _voter) internal view returns(bool) {\r\n        Law storage l = BOE[_identifier];\r\n        return (l.voters[_voter]);\r\n    }\r\n\r\n    function _countLawVote(uint _identifier, address _voter) internal {\r\n        Law storage l = BOE[_identifier];\r\n        l.voters[_voter] = true;\r\n    }\r\n\r\n    function voteFor(uint _identifier) external onlyCitizen whenNotPaused {\r\n        require(_identifier > 0, \"Proposal 0 does not exist\");\r\n        require(!_getLawVoters(_identifier, msg.sender), \"You have already voted\");\r\n        require(_identifier <= counter, \"The proposal is not registered in the BOE\");\r\n        require(!BOE[_identifier].voted,\"The proposal has already been voted\");\r\n        _countLawVote(_identifier, msg.sender);\r\n        _voteFor(_identifier);\r\n    }\r\n\r\n    function _voteFor(uint _identifier) internal {\r\n        BOE[_identifier].votesFor ++;\r\n        emit votedForEvent(_identifier, msg.sender);\r\n    }\r\n\r\n    function voteAgainst(uint _identifier) external onlyCitizen whenNotPaused {\r\n        require(_identifier > 0, \"Proposal 0 does not exist\");\r\n        require(!_getLawVoters(_identifier, msg.sender), \"You have already voted\");\r\n        require(_identifier <= counter, \"The proposal is not registered in the BOE\");\r\n        require(!BOE[_identifier].voted,\"The proposal has already been voted\");\r\n        _countLawVote(_identifier, msg.sender);\r\n        _voteAgainst(_identifier);\r\n    }\r\n\r\n    function _voteAgainst(uint _identifier) internal {\r\n        BOE[_identifier].votesAgainst ++;\r\n        emit votedAgainstEvent(_identifier, msg.sender);\r\n    }\r\n\r\n    function voteAbstention(uint _identifier) external onlyCitizen whenNotPaused {\r\n        require(_identifier > 0, \"Proposal 0 does not exist\");\r\n        require(!_getLawVoters(_identifier, msg.sender), \"You have already voted\");\r\n        require(_identifier <= counter, \"The proposal is not registered in the BOE\");\r\n        require(!BOE[_identifier].voted,\"The proposal has already been voted\");\r\n        _countLawVote(_identifier, msg.sender);\r\n        _voteAbstention(_identifier);\r\n    }\r\n\r\n    function _voteAbstention(uint _identifier) internal {\r\n        BOE[_identifier].abstentions ++;\r\n        emit votedAbstentionEvent(_identifier, msg.sender);\r\n    }\r\n\r\n    function createProposal(string calldata _proposalType, string calldata _title, string calldata _body, string calldata _predictions)\r\n            external\r\n            onlyCitizen\r\n            whenPaused\r\n        {\r\n            require(bytes(_proposalType).length > 0, \"Enter a valid proposal type\");\r\n            require(bytes(_title).length > 0, \"Enter a valid title\");\r\n            require(bytes(_body).length > 0, \"Enter a valid body\");\r\n            require(bytes(_predictions).length > 0, \"Enter valid predictions\");\r\n            _createProposal(_proposalType, _title, _body, _predictions);\r\n        }\r\n\r\n    function _createProposal(string memory _proposalType, string memory _title, string memory _body, string memory _predictions) internal {\r\n        counter ++;\r\n        BOE[counter] = Law(counter, _proposalType, _title, _body, _predictions, msg.sender, 0, 0, 0, false, false);\r\n        emit proposalCreatedEvent(counter, _proposalType, _title, _body, _predictions, msg.sender);\r\n    }\r\n}",
  "sourcePath": "C:/Users/amoro/Desktop/PROYECTOS/Blockchain/Ethereum/BitVoteSystem/System/bitvote-system/src/contracts/Proposals.sol",
  "compiler": {
    "name": "solc",
    "version": "0.5.11+commit.c082d0b4.Emscripten.clang"
  },
  "schemaVersion": "3.0.11",
  "updatedAt": "2019-12-20T16:31:58.326Z",
  "devdoc": {
    "methods": {
      "pause()": {
        "details": "Called by a pauser to pause, triggers stopped state.\r"
      },
      "paused()": {
        "details": "Returns true if the contract is paused, and false otherwise.\r"
      },
      "unpause()": {
        "details": "Called by a pauser to unpause, returns to normal state.\r"
      }
    }
  },
  "userdoc": {
    "methods": {}
  }
}