{
  "contractName": "CandidateRole",
  "abi": [
    {
      "constant": true,
      "inputs": [
        {
          "internalType": "address",
          "name": "account",
          "type": "address"
        }
      ],
      "name": "isAdmin",
      "outputs": [
        {
          "internalType": "bool",
          "name": "",
          "type": "bool"
        }
      ],
      "payable": false,
      "stateMutability": "view",
      "type": "function"
    },
    {
      "constant": false,
      "inputs": [
        {
          "internalType": "address",
          "name": "account",
          "type": "address"
        }
      ],
      "name": "addAdmin",
      "outputs": [],
      "payable": false,
      "stateMutability": "nonpayable",
      "type": "function"
    },
    {
      "constant": false,
      "inputs": [],
      "name": "renonceAdmin",
      "outputs": [],
      "payable": false,
      "stateMutability": "nonpayable",
      "type": "function"
    },
    {
      "anonymous": false,
      "inputs": [
        {
          "indexed": true,
          "internalType": "address",
          "name": "account",
          "type": "address"
        }
      ],
      "name": "CandidateAdded",
      "type": "event"
    },
    {
      "anonymous": false,
      "inputs": [
        {
          "indexed": true,
          "internalType": "address",
          "name": "account",
          "type": "address"
        }
      ],
      "name": "CandidateRemoved",
      "type": "event"
    },
    {
      "anonymous": false,
      "inputs": [
        {
          "indexed": true,
          "internalType": "address",
          "name": "account",
          "type": "address"
        }
      ],
      "name": "AdminAdded",
      "type": "event"
    },
    {
      "anonymous": false,
      "inputs": [
        {
          "indexed": true,
          "internalType": "address",
          "name": "account",
          "type": "address"
        }
      ],
      "name": "AdminRemoved",
      "type": "event"
    },
    {
      "constant": true,
      "inputs": [
        {
          "internalType": "address",
          "name": "account",
          "type": "address"
        }
      ],
      "name": "isCandidate",
      "outputs": [
        {
          "internalType": "bool",
          "name": "",
          "type": "bool"
        }
      ],
      "payable": false,
      "stateMutability": "view",
      "type": "function"
    },
    {
      "constant": false,
      "inputs": [
        {
          "internalType": "address",
          "name": "account",
          "type": "address"
        }
      ],
      "name": "addCandidate",
      "outputs": [],
      "payable": false,
      "stateMutability": "nonpayable",
      "type": "function"
    },
    {
      "constant": false,
      "inputs": [
        {
          "internalType": "address",
          "name": "account",
          "type": "address"
        }
      ],
      "name": "removeCandidate",
      "outputs": [],
      "payable": false,
      "stateMutability": "nonpayable",
      "type": "function"
    },
    {
      "constant": false,
      "inputs": [],
      "name": "renonceCandidate",
      "outputs": [],
      "payable": false,
      "stateMutability": "nonpayable",
      "type": "function"
    }
  ],
  "bytecode": "0x60806040526100133361001860201b60201c565b610235565b61003081600061007660201b6105ee1790919060201c565b8073ffffffffffffffffffffffffffffffffffffffff167f44d6d25963f097ad14f29f06854a01f575648a1ef82f30e562ccd3889717e33960405160405180910390a250565b610086828261015760201b60201c565b156100f9576040517f08c379a000000000000000000000000000000000000000000000000000000000815260040180806020018281038252601f8152602001807f526f6c65733a206163636f756e7420616c72656164792068617320726f6c650081525060200191505060405180910390fd5b60018260000160008373ffffffffffffffffffffffffffffffffffffffff1673ffffffffffffffffffffffffffffffffffffffff16815260200190815260200160002060006101000a81548160ff0219169083151502179055505050565b60008073ffffffffffffffffffffffffffffffffffffffff168273ffffffffffffffffffffffffffffffffffffffff1614156101de576040517f08c379a0000000000000000000000000000000000000000000000000000000008152600401808060200182810382526022815260200180610a706022913960400191505060405180910390fd5b8260000160008373ffffffffffffffffffffffffffffffffffffffff1673ffffffffffffffffffffffffffffffffffffffff16815260200190815260200160002060009054906101000a900460ff16905092915050565b61082c806102446000396000f3fe608060405234801561001057600080fd5b506004361061007d5760003560e01c8063704802751161005b5780637048027514610166578063811ee724146101aa578063bf030948146101b4578063d51b9e93146101be5761007d565b806324d7806c146100825780633acd75f8146100de5780636dd091f914610122575b600080fd5b6100c46004803603602081101561009857600080fd5b81019080803573ffffffffffffffffffffffffffffffffffffffff16906020019092919050505061021a565b604051808215151515815260200191505060405180910390f35b610120600480360360208110156100f457600080fd5b81019080803573ffffffffffffffffffffffffffffffffffffffff169060200190929190505050610237565b005b6101646004803603602081101561013857600080fd5b81019080803573ffffffffffffffffffffffffffffffffffffffff1690602001909291905050506102a1565b005b6101a86004803603602081101561017c57600080fd5b81019080803573ffffffffffffffffffffffffffffffffffffffff16906020019092919050505061030b565b005b6101b2610375565b005b6101bc610380565b005b610200600480360360208110156101d457600080fd5b81019080803573ffffffffffffffffffffffffffffffffffffffff16906020019092919050505061038b565b604051808215151515815260200191505060405180910390f35b60006102308260006103a890919063ffffffff16565b9050919050565b6102403361021a565b610295576040517f08c379a000000000000000000000000000000000000000000000000000000000815260040180806020018281038252602e8152602001806107ca602e913960400191505060405180910390fd5b61029e81610486565b50565b6102aa3361021a565b6102ff576040517f08c379a000000000000000000000000000000000000000000000000000000000815260040180806020018281038252602e8152602001806107ca602e913960400191505060405180910390fd5b610308816104e0565b50565b6103143361021a565b610369576040517f08c379a000000000000000000000000000000000000000000000000000000000815260040180806020018281038252602e8152602001806107ca602e913960400191505060405180910390fd5b6103728161053a565b50565b61037e336104e0565b565b61038933610594565b565b60006103a18260016103a890919063ffffffff16565b9050919050565b60008073ffffffffffffffffffffffffffffffffffffffff168273ffffffffffffffffffffffffffffffffffffffff16141561042f576040517f08c379a00000000000000000000000000000000000000000000000000000000081526004018080602001828103825260228152602001806107a86022913960400191505060405180910390fd5b8260000160008373ffffffffffffffffffffffffffffffffffffffff1673ffffffffffffffffffffffffffffffffffffffff16815260200190815260200160002060009054906101000a900460ff16905092915050565b61049a8160016105ee90919063ffffffff16565b8073ffffffffffffffffffffffffffffffffffffffff167faa38be308bdffe126c2b6be720070355eb22e0efc549ac39221b1ce71642ed4060405160405180910390a250565b6104f48160016106c990919063ffffffff16565b8073ffffffffffffffffffffffffffffffffffffffff167fa9c38d4e36441185df66deccc5454d2ac0fab4f049d916441884300f6b7c605c60405160405180910390a250565b61054e8160006105ee90919063ffffffff16565b8073ffffffffffffffffffffffffffffffffffffffff167f44d6d25963f097ad14f29f06854a01f575648a1ef82f30e562ccd3889717e33960405160405180910390a250565b6105a88160006106c990919063ffffffff16565b8073ffffffffffffffffffffffffffffffffffffffff167fa3b62bc36326052d97ea62d63c3d60308ed4c3ea8ac079dd8499f1e9c4f80c0f60405160405180910390a250565b6105f882826103a8565b1561066b576040517f08c379a000000000000000000000000000000000000000000000000000000000815260040180806020018281038252601f8152602001807f526f6c65733a206163636f756e7420616c72656164792068617320726f6c650081525060200191505060405180910390fd5b60018260000160008373ffffffffffffffffffffffffffffffffffffffff1673ffffffffffffffffffffffffffffffffffffffff16815260200190815260200160002060006101000a81548160ff0219169083151502179055505050565b6106d382826103a8565b610728576040517f08c379a00000000000000000000000000000000000000000000000000000000081526004018080602001828103825260218152602001806107876021913960400191505060405180910390fd5b60008260000160008373ffffffffffffffffffffffffffffffffffffffff1673ffffffffffffffffffffffffffffffffffffffff16815260200190815260200160002060006101000a81548160ff021916908315150217905550505056fe526f6c65733a206163636f756e7420646f6573206e6f74206861766520726f6c65526f6c65733a206163636f756e7420697320746865207a65726f206164647265737341646d696e526f6c653a2063616c6c657220646f6573206e6f742068617665207468652041646d696e20726f6c65a265627a7a72315820f21d605b851562855ca83799d4175bda0ad1cb98af464a3eedc5a50c4591710e64736f6c634300050b0032526f6c65733a206163636f756e7420697320746865207a65726f2061646472657373",
  "source": "pragma solidity ^0.5.11;\r\n\r\nimport \"../node_modules/openzeppelin-solidity/contracts/access/Roles.sol\";\r\nimport \"./AdminRole.sol\";\r\n\r\ncontract CandidateRole is AdminRole {\r\n    using Roles for Roles.Role;\r\n\r\n    event CandidateAdded(address indexed account);\r\n    event CandidateRemoved(address indexed account);\r\n\r\n    Roles.Role private _candidates;\r\n\r\n    modifier onlyCandidate() {\r\n        require(isCandidate(msg.sender), \"CandidateRole: caller does not have the Candidate role\");\r\n        _;\r\n    }\r\n\r\n    function isCandidate(address account) public view returns (bool) {\r\n        return _candidates.has(account);\r\n    }\r\n\r\n    function addCandidate(address account) public onlyAdmin {\r\n        _addCandidate(account);\r\n    }\r\n\r\n    function removeCandidate(address account) public onlyAdmin {\r\n        _removeCandidate(account);\r\n    }\r\n\r\n    function renonceCandidate() public {\r\n        _removeCandidate(msg.sender);\r\n    }\r\n\r\n    function _addCandidate(address account) internal {\r\n        _candidates.add(account);\r\n        emit CandidateAdded(account);\r\n    }\r\n\r\n    function _removeCandidate(address account) internal {\r\n        _candidates.remove(account);\r\n        emit CandidateRemoved(account);\r\n    }\r\n}\r\n",
  "sourcePath": "C:\\Users\\amoro\\Desktop\\PROYECTOS\\Blockchain\\Ethereum\\BitVoteSystem\\System\\bitvote-system\\contracts\\CandidateRole.sol",
  "compiler": {
    "name": "solc",
    "version": "0.5.11+commit.c082d0b4.Emscripten.clang"
  },
  "schemaVersion": "3.0.11",
  "updatedAt": "2019-08-27T21:56:31.806Z",
  "devdoc": {
    "methods": {}
  },
  "userdoc": {
    "methods": {}
  }
}