{
  "contractName": "CitizenRole",
  "abi": [
    {
      "constant": true,
      "inputs": [
        {
          "internalType": "address",
          "name": "account",
          "type": "address"
        }
      ],
      "name": "isAdmin",
      "outputs": [
        {
          "internalType": "bool",
          "name": "",
          "type": "bool"
        }
      ],
      "payable": false,
      "stateMutability": "view",
      "type": "function"
    },
    {
      "constant": false,
      "inputs": [
        {
          "internalType": "address",
          "name": "account",
          "type": "address"
        }
      ],
      "name": "addAdmin",
      "outputs": [],
      "payable": false,
      "stateMutability": "nonpayable",
      "type": "function"
    },
    {
      "constant": false,
      "inputs": [],
      "name": "renonceAdmin",
      "outputs": [],
      "payable": false,
      "stateMutability": "nonpayable",
      "type": "function"
    },
    {
      "anonymous": false,
      "inputs": [
        {
          "indexed": true,
          "internalType": "address",
          "name": "account",
          "type": "address"
        }
      ],
      "name": "CitizenAdded",
      "type": "event"
    },
    {
      "anonymous": false,
      "inputs": [
        {
          "indexed": true,
          "internalType": "address",
          "name": "account",
          "type": "address"
        }
      ],
      "name": "CitizenRemoved",
      "type": "event"
    },
    {
      "anonymous": false,
      "inputs": [
        {
          "indexed": true,
          "internalType": "address",
          "name": "account",
          "type": "address"
        }
      ],
      "name": "AdminAdded",
      "type": "event"
    },
    {
      "anonymous": false,
      "inputs": [
        {
          "indexed": true,
          "internalType": "address",
          "name": "account",
          "type": "address"
        }
      ],
      "name": "AdminRemoved",
      "type": "event"
    },
    {
      "constant": true,
      "inputs": [
        {
          "internalType": "address",
          "name": "account",
          "type": "address"
        }
      ],
      "name": "isCitizen",
      "outputs": [
        {
          "internalType": "bool",
          "name": "",
          "type": "bool"
        }
      ],
      "payable": false,
      "stateMutability": "view",
      "type": "function"
    },
    {
      "constant": false,
      "inputs": [
        {
          "internalType": "address",
          "name": "account",
          "type": "address"
        }
      ],
      "name": "addCitizen",
      "outputs": [],
      "payable": false,
      "stateMutability": "nonpayable",
      "type": "function"
    },
    {
      "constant": false,
      "inputs": [
        {
          "internalType": "address",
          "name": "account",
          "type": "address"
        }
      ],
      "name": "removeCitizen",
      "outputs": [],
      "payable": false,
      "stateMutability": "nonpayable",
      "type": "function"
    }
  ],
  "bytecode": "0x60806040526100133361001860201b60201c565b610235565b61003081600061007660201b6105be1790919060201c565b8073ffffffffffffffffffffffffffffffffffffffff167f44d6d25963f097ad14f29f06854a01f575648a1ef82f30e562ccd3889717e33960405160405180910390a250565b610086828261015760201b60201c565b156100f9576040517f08c379a000000000000000000000000000000000000000000000000000000000815260040180806020018281038252601f8152602001807f526f6c65733a206163636f756e7420616c72656164792068617320726f6c650081525060200191505060405180910390fd5b60018260000160008373ffffffffffffffffffffffffffffffffffffffff1673ffffffffffffffffffffffffffffffffffffffff16815260200190815260200160002060006101000a81548160ff0219169083151502179055505050565b60008073ffffffffffffffffffffffffffffffffffffffff168273ffffffffffffffffffffffffffffffffffffffff1614156101de576040517f08c379a0000000000000000000000000000000000000000000000000000000008152600401808060200182810382526022815260200180610a406022913960400191505060405180910390fd5b8260000160008373ffffffffffffffffffffffffffffffffffffffff1673ffffffffffffffffffffffffffffffffffffffff16815260200190815260200160002060009054906101000a900460ff16905092915050565b6107fc806102446000396000f3fe608060405234801561001057600080fd5b50600436106100625760003560e01c806324d7806c146100675780633920dfdf146100c357806370480275146101075780639bf4dd0a1461014b578063bf0309481461018f578063f3caad0314610199575b600080fd5b6100a96004803603602081101561007d57600080fd5b81019080803573ffffffffffffffffffffffffffffffffffffffff1690602001909291905050506101f5565b604051808215151515815260200191505060405180910390f35b610105600480360360208110156100d957600080fd5b81019080803573ffffffffffffffffffffffffffffffffffffffff169060200190929190505050610212565b005b6101496004803603602081101561011d57600080fd5b81019080803573ffffffffffffffffffffffffffffffffffffffff16906020019092919050505061027c565b005b61018d6004803603602081101561016157600080fd5b81019080803573ffffffffffffffffffffffffffffffffffffffff1690602001909291905050506102e6565b005b610197610350565b005b6101db600480360360208110156101af57600080fd5b81019080803573ffffffffffffffffffffffffffffffffffffffff16906020019092919050505061035b565b604051808215151515815260200191505060405180910390f35b600061020b82600061037890919063ffffffff16565b9050919050565b61021b336101f5565b610270576040517f08c379a000000000000000000000000000000000000000000000000000000000815260040180806020018281038252602e81526020018061079a602e913960400191505060405180910390fd5b61027981610456565b50565b610285336101f5565b6102da576040517f08c379a000000000000000000000000000000000000000000000000000000000815260040180806020018281038252602e81526020018061079a602e913960400191505060405180910390fd5b6102e3816104b0565b50565b6102ef336101f5565b610344576040517f08c379a000000000000000000000000000000000000000000000000000000000815260040180806020018281038252602e81526020018061079a602e913960400191505060405180910390fd5b61034d8161050a565b50565b61035933610564565b565b600061037182600161037890919063ffffffff16565b9050919050565b60008073ffffffffffffffffffffffffffffffffffffffff168273ffffffffffffffffffffffffffffffffffffffff1614156103ff576040517f08c379a00000000000000000000000000000000000000000000000000000000081526004018080602001828103825260228152602001806107786022913960400191505060405180910390fd5b8260000160008373ffffffffffffffffffffffffffffffffffffffff1673ffffffffffffffffffffffffffffffffffffffff16815260200190815260200160002060009054906101000a900460ff16905092915050565b61046a8160016105be90919063ffffffff16565b8073ffffffffffffffffffffffffffffffffffffffff167f272724e48012716338baa876acb4880d28ebeeb2176425a360610dd5acb99c4760405160405180910390a250565b6104c48160006105be90919063ffffffff16565b8073ffffffffffffffffffffffffffffffffffffffff167f44d6d25963f097ad14f29f06854a01f575648a1ef82f30e562ccd3889717e33960405160405180910390a250565b61051e81600161069990919063ffffffff16565b8073ffffffffffffffffffffffffffffffffffffffff167f86ffc4c1bcf9a37474de354dc295e858ac1bb8e5dcf6255375aafca4b7f7474f60405160405180910390a250565b61057881600061069990919063ffffffff16565b8073ffffffffffffffffffffffffffffffffffffffff167fa3b62bc36326052d97ea62d63c3d60308ed4c3ea8ac079dd8499f1e9c4f80c0f60405160405180910390a250565b6105c88282610378565b1561063b576040517f08c379a000000000000000000000000000000000000000000000000000000000815260040180806020018281038252601f8152602001807f526f6c65733a206163636f756e7420616c72656164792068617320726f6c650081525060200191505060405180910390fd5b60018260000160008373ffffffffffffffffffffffffffffffffffffffff1673ffffffffffffffffffffffffffffffffffffffff16815260200190815260200160002060006101000a81548160ff0219169083151502179055505050565b6106a38282610378565b6106f8576040517f08c379a00000000000000000000000000000000000000000000000000000000081526004018080602001828103825260218152602001806107576021913960400191505060405180910390fd5b60008260000160008373ffffffffffffffffffffffffffffffffffffffff1673ffffffffffffffffffffffffffffffffffffffff16815260200190815260200160002060006101000a81548160ff021916908315150217905550505056fe526f6c65733a206163636f756e7420646f6573206e6f74206861766520726f6c65526f6c65733a206163636f756e7420697320746865207a65726f206164647265737341646d696e526f6c653a2063616c6c657220646f6573206e6f742068617665207468652041646d696e20726f6c65a265627a7a72315820b5eec2915d1492c4997420931b54f9883ef92b3034fc8a14f28dfdd68ba033b064736f6c634300050b0032526f6c65733a206163636f756e7420697320746865207a65726f2061646472657373",
  "source": "pragma solidity ^0.5.11;\r\n\r\nimport \"../node_modules/openzeppelin-solidity/contracts/access/Roles.sol\";\r\nimport \"./AdminRole.sol\";\r\n\r\ncontract CitizenRole is AdminRole {\r\n    using Roles for Roles.Role;\r\n\r\n    event CitizenAdded(address indexed account);\r\n    event CitizenRemoved(address indexed account);\r\n\r\n    Roles.Role private _citizens;\r\n\r\n    modifier onlyCitizen() {\r\n        require(isCitizen(msg.sender), \"CitizenRole: caller does not have the Citizen role\");\r\n        _;\r\n    }\r\n\r\n    function isCitizen(address account) public view returns (bool) {\r\n        return _citizens.has(account);\r\n    }\r\n\r\n    function addCitizen(address account) public onlyAdmin {\r\n        _addCitizen(account);\r\n    }\r\n\r\n    function removeCitizen(address account) public onlyAdmin {\r\n        _removeCitizen(account);\r\n    }\r\n\r\n    /*function renonceCitizen() public {\r\n        _removeCitizen(msg.sender);\r\n    } */\r\n\r\n    function _addCitizen(address account) internal {\r\n        _citizens.add(account);\r\n        emit CitizenAdded(account);\r\n    }\r\n\r\n    function _removeCitizen(address account) internal {\r\n        _citizens.remove(account);\r\n        emit CitizenRemoved(account);\r\n    }\r\n}\r\n",
  "sourcePath": "C:\\Users\\amoro\\Desktop\\PROYECTOS\\Blockchain\\Ethereum\\BitVoteSystem\\System\\bitvote-system\\contracts\\CitizenRole.sol",
  "compiler": {
    "name": "solc",
    "version": "0.5.11+commit.c082d0b4.Emscripten.clang"
  },
  "schemaVersion": "3.0.11",
  "updatedAt": "2019-09-07T18:41:48.592Z",
  "devdoc": {
    "methods": {}
  },
  "userdoc": {
    "methods": {}
  }
}