{
  "contractName": "Election",
  "abi": [
    {
      "constant": true,
      "inputs": [
        {
          "internalType": "address",
          "name": "account",
          "type": "address"
        }
      ],
      "name": "isAdmin",
      "outputs": [
        {
          "internalType": "bool",
          "name": "",
          "type": "bool"
        }
      ],
      "payable": false,
      "stateMutability": "view",
      "type": "function"
    },
    {
      "constant": false,
      "inputs": [
        {
          "internalType": "address",
          "name": "account",
          "type": "address"
        }
      ],
      "name": "addCitizen",
      "outputs": [],
      "payable": false,
      "stateMutability": "nonpayable",
      "type": "function"
    },
    {
      "constant": false,
      "inputs": [],
      "name": "unpause",
      "outputs": [],
      "payable": false,
      "stateMutability": "nonpayable",
      "type": "function"
    },
    {
      "constant": true,
      "inputs": [
        {
          "internalType": "address",
          "name": "account",
          "type": "address"
        }
      ],
      "name": "isPauser",
      "outputs": [
        {
          "internalType": "bool",
          "name": "",
          "type": "bool"
        }
      ],
      "payable": false,
      "stateMutability": "view",
      "type": "function"
    },
    {
      "constant": true,
      "inputs": [],
      "name": "paused",
      "outputs": [
        {
          "internalType": "bool",
          "name": "",
          "type": "bool"
        }
      ],
      "payable": false,
      "stateMutability": "view",
      "type": "function"
    },
    {
      "constant": false,
      "inputs": [],
      "name": "renouncePauser",
      "outputs": [],
      "payable": false,
      "stateMutability": "nonpayable",
      "type": "function"
    },
    {
      "constant": false,
      "inputs": [
        {
          "internalType": "address",
          "name": "account",
          "type": "address"
        }
      ],
      "name": "addAdmin",
      "outputs": [],
      "payable": false,
      "stateMutability": "nonpayable",
      "type": "function"
    },
    {
      "constant": false,
      "inputs": [
        {
          "internalType": "address",
          "name": "account",
          "type": "address"
        }
      ],
      "name": "addPauser",
      "outputs": [],
      "payable": false,
      "stateMutability": "nonpayable",
      "type": "function"
    },
    {
      "constant": false,
      "inputs": [],
      "name": "pause",
      "outputs": [],
      "payable": false,
      "stateMutability": "nonpayable",
      "type": "function"
    },
    {
      "constant": true,
      "inputs": [
        {
          "internalType": "address",
          "name": "",
          "type": "address"
        }
      ],
      "name": "candidates",
      "outputs": [
        {
          "internalType": "address",
          "name": "account",
          "type": "address"
        },
        {
          "internalType": "string",
          "name": "name",
          "type": "string"
        },
        {
          "internalType": "uint256",
          "name": "voteCount",
          "type": "uint256"
        }
      ],
      "payable": false,
      "stateMutability": "view",
      "type": "function"
    },
    {
      "constant": false,
      "inputs": [
        {
          "internalType": "address",
          "name": "account",
          "type": "address"
        }
      ],
      "name": "removeCitizen",
      "outputs": [],
      "payable": false,
      "stateMutability": "nonpayable",
      "type": "function"
    },
    {
      "constant": true,
      "inputs": [
        {
          "internalType": "address",
          "name": "",
          "type": "address"
        }
      ],
      "name": "voters",
      "outputs": [
        {
          "internalType": "bool",
          "name": "",
          "type": "bool"
        }
      ],
      "payable": false,
      "stateMutability": "view",
      "type": "function"
    },
    {
      "constant": false,
      "inputs": [],
      "name": "renonceAdmin",
      "outputs": [],
      "payable": false,
      "stateMutability": "nonpayable",
      "type": "function"
    },
    {
      "constant": true,
      "inputs": [
        {
          "internalType": "address",
          "name": "",
          "type": "address"
        }
      ],
      "name": "applicants",
      "outputs": [
        {
          "internalType": "bool",
          "name": "",
          "type": "bool"
        }
      ],
      "payable": false,
      "stateMutability": "view",
      "type": "function"
    },
    {
      "constant": true,
      "inputs": [
        {
          "internalType": "address",
          "name": "account",
          "type": "address"
        }
      ],
      "name": "isCitizen",
      "outputs": [
        {
          "internalType": "bool",
          "name": "",
          "type": "bool"
        }
      ],
      "payable": false,
      "stateMutability": "view",
      "type": "function"
    },
    {
      "anonymous": false,
      "inputs": [
        {
          "indexed": true,
          "internalType": "address",
          "name": "_candidate",
          "type": "address"
        },
        {
          "indexed": true,
          "internalType": "address",
          "name": "_voter",
          "type": "address"
        }
      ],
      "name": "votedEvent",
      "type": "event"
    },
    {
      "anonymous": false,
      "inputs": [
        {
          "indexed": true,
          "internalType": "address",
          "name": "_applicant",
          "type": "address"
        },
        {
          "indexed": false,
          "internalType": "string",
          "name": "_addedParty",
          "type": "string"
        }
      ],
      "name": "candidateEligible",
      "type": "event"
    },
    {
      "anonymous": false,
      "inputs": [
        {
          "indexed": true,
          "internalType": "address",
          "name": "_candidate",
          "type": "address"
        },
        {
          "indexed": false,
          "internalType": "string",
          "name": "_removedParty",
          "type": "string"
        }
      ],
      "name": "candidateWithdrawn",
      "type": "event"
    },
    {
      "anonymous": false,
      "inputs": [
        {
          "indexed": false,
          "internalType": "address",
          "name": "account",
          "type": "address"
        }
      ],
      "name": "Paused",
      "type": "event"
    },
    {
      "anonymous": false,
      "inputs": [
        {
          "indexed": false,
          "internalType": "address",
          "name": "account",
          "type": "address"
        }
      ],
      "name": "Unpaused",
      "type": "event"
    },
    {
      "anonymous": false,
      "inputs": [
        {
          "indexed": true,
          "internalType": "address",
          "name": "account",
          "type": "address"
        }
      ],
      "name": "PauserAdded",
      "type": "event"
    },
    {
      "anonymous": false,
      "inputs": [
        {
          "indexed": true,
          "internalType": "address",
          "name": "account",
          "type": "address"
        }
      ],
      "name": "PauserRemoved",
      "type": "event"
    },
    {
      "anonymous": false,
      "inputs": [
        {
          "indexed": true,
          "internalType": "address",
          "name": "account",
          "type": "address"
        }
      ],
      "name": "CitizenAdded",
      "type": "event"
    },
    {
      "anonymous": false,
      "inputs": [
        {
          "indexed": true,
          "internalType": "address",
          "name": "account",
          "type": "address"
        }
      ],
      "name": "CitizenRemoved",
      "type": "event"
    },
    {
      "anonymous": false,
      "inputs": [
        {
          "indexed": true,
          "internalType": "address",
          "name": "account",
          "type": "address"
        }
      ],
      "name": "AdminAdded",
      "type": "event"
    },
    {
      "anonymous": false,
      "inputs": [
        {
          "indexed": true,
          "internalType": "address",
          "name": "account",
          "type": "address"
        }
      ],
      "name": "AdminRemoved",
      "type": "event"
    },
    {
      "constant": false,
      "inputs": [
        {
          "internalType": "address",
          "name": "_candidate",
          "type": "address"
        }
      ],
      "name": "vote",
      "outputs": [],
      "payable": false,
      "stateMutability": "nonpayable",
      "type": "function"
    },
    {
      "constant": false,
      "inputs": [
        {
          "internalType": "address",
          "name": "_candidate",
          "type": "address"
        },
        {
          "internalType": "string",
          "name": "_name",
          "type": "string"
        }
      ],
      "name": "standForElections",
      "outputs": [],
      "payable": false,
      "stateMutability": "nonpayable",
      "type": "function"
    },
    {
      "constant": false,
      "inputs": [
        {
          "internalType": "address",
          "name": "_candidate",
          "type": "address"
        }
      ],
      "name": "withdrawFromElections",
      "outputs": [],
      "payable": false,
      "stateMutability": "nonpayable",
      "type": "function"
    },
    {
      "constant": true,
      "inputs": [
        {
          "internalType": "address",
          "name": "_candidate",
          "type": "address"
        }
      ],
      "name": "scrutiny",
      "outputs": [
        {
          "internalType": "uint256",
          "name": "",
          "type": "uint256"
        }
      ],
      "payable": false,
      "stateMutability": "view",
      "type": "function"
    }
  ],
  "bytecode": "0x608060405262000015336200004760201b60201c565b6200002633620000a860201b60201c565b6000600360006101000a81548160ff021916908315150217905550620002cd565b620000628160006200010960201b62001c231790919060201c565b8073ffffffffffffffffffffffffffffffffffffffff167f44d6d25963f097ad14f29f06854a01f575648a1ef82f30e562ccd3889717e33960405160405180910390a250565b620000c38160026200010960201b62001c231790919060201c565b8073ffffffffffffffffffffffffffffffffffffffff167f6719d08c1888103bea251a4ed56406bd0c3e69723c8a1686e017e7bbe159b6f860405160405180910390a250565b6200011b8282620001ed60201b60201c565b156200018f576040517f08c379a000000000000000000000000000000000000000000000000000000000815260040180806020018281038252601f8152602001807f526f6c65733a206163636f756e7420616c72656164792068617320726f6c650081525060200191505060405180910390fd5b60018260000160008373ffffffffffffffffffffffffffffffffffffffff1673ffffffffffffffffffffffffffffffffffffffff16815260200190815260200160002060006101000a81548160ff0219169083151502179055505050565b60008073ffffffffffffffffffffffffffffffffffffffff168273ffffffffffffffffffffffffffffffffffffffff16141562000276576040517f08c379a0000000000000000000000000000000000000000000000000000000008152600401808060200182810382526022815260200180620022e56022913960400191505060405180910390fd5b8260000160008373ffffffffffffffffffffffffffffffffffffffff1673ffffffffffffffffffffffffffffffffffffffff16815260200190815260200160002060009054906101000a900460ff16905092915050565b61200880620002dd6000396000f3fe608060405234801561001057600080fd5b50600436106101215760003560e01c806374718bd8116100ad578063a3ec138d11610071578063a3ec138d14610546578063a6fd78da146105a2578063bf030948146105fa578063ccd6686314610604578063f3caad031461066057610121565b806374718bd81461037957806382dc1ec4146103bd5780638456cb59146104015780638ab66a901461040b5780639bf4dd0a1461050257610121565b806346fbf68e116100f457806346fbf68e146102695780635c975abb146102c55780636dd7d8ea146102e75780636ef8d66d1461032b578063704802751461033557610121565b80631f664ffe1461012657806324d7806c146101bf5780633920dfdf1461021b5780633f4ba83a1461025f575b600080fd5b6101bd6004803603604081101561013c57600080fd5b81019080803573ffffffffffffffffffffffffffffffffffffffff1690602001909291908035906020019064010000000081111561017957600080fd5b82018360208201111561018b57600080fd5b803590602001918460018302840111640100000000831117156101ad57600080fd5b90919293919293905050506106bc565b005b610201600480360360208110156101d557600080fd5b81019080803573ffffffffffffffffffffffffffffffffffffffff169060200190929190505050610963565b604051808215151515815260200191505060405180910390f35b61025d6004803603602081101561023157600080fd5b81019080803573ffffffffffffffffffffffffffffffffffffffff169060200190929190505050610980565b005b6102676109ea565b005b6102ab6004803603602081101561027f57600080fd5b81019080803573ffffffffffffffffffffffffffffffffffffffff169060200190929190505050610b4a565b604051808215151515815260200191505060405180910390f35b6102cd610b67565b604051808215151515815260200191505060405180910390f35b610329600480360360208110156102fd57600080fd5b81019080803573ffffffffffffffffffffffffffffffffffffffff169060200190929190505050610b7e565b005b610333610e25565b005b6103776004803603602081101561034b57600080fd5b81019080803573ffffffffffffffffffffffffffffffffffffffff169060200190929190505050610e30565b005b6103bb6004803603602081101561038f57600080fd5b81019080803573ffffffffffffffffffffffffffffffffffffffff169060200190929190505050610e9a565b005b6103ff600480360360208110156103d357600080fd5b81019080803573ffffffffffffffffffffffffffffffffffffffff169060200190929190505050611080565b005b6104096110ea565b005b61044d6004803603602081101561042157600080fd5b81019080803573ffffffffffffffffffffffffffffffffffffffff16906020019092919050505061124b565b604051808473ffffffffffffffffffffffffffffffffffffffff1673ffffffffffffffffffffffffffffffffffffffff16815260200180602001838152602001828103825284818151815260200191508051906020019080838360005b838110156104c55780820151818401526020810190506104aa565b50505050905090810190601f1680156104f25780820380516001836020036101000a031916815260200191505b5094505050505060405180910390f35b6105446004803603602081101561051857600080fd5b81019080803573ffffffffffffffffffffffffffffffffffffffff16906020019092919050505061132d565b005b6105886004803603602081101561055c57600080fd5b81019080803573ffffffffffffffffffffffffffffffffffffffff169060200190929190505050611397565b604051808215151515815260200191505060405180910390f35b6105e4600480360360208110156105b857600080fd5b81019080803573ffffffffffffffffffffffffffffffffffffffff1690602001909291905050506113b7565b6040518082815260200191505060405180910390f35b610602611585565b005b6106466004803603602081101561061a57600080fd5b81019080803573ffffffffffffffffffffffffffffffffffffffff169060200190929190505050611590565b604051808215151515815260200191505060405180910390f35b6106a26004803603602081101561067657600080fd5b81019080803573ffffffffffffffffffffffffffffffffffffffff1690602001909291905050506115b0565b604051808215151515815260200191505060405180910390f35b6106c533610963565b61071a576040517f08c379a000000000000000000000000000000000000000000000000000000000815260040180806020018281038252602e815260200180611fa6602e913960400191505060405180910390fd5b600360009054906101000a900460ff1661079c576040517f08c379a00000000000000000000000000000000000000000000000000000000081526004018080602001828103825260148152602001807f5061757361626c653a206e6f742070617573656400000000000000000000000081525060200191505060405180910390fd5b60008282905011610815576040517f08c379a00000000000000000000000000000000000000000000000000000000081526004018080602001828103825260128152602001807f456e74657220612076616c6964206e616d65000000000000000000000000000081525060200191505060405180910390fd5b600560008473ffffffffffffffffffffffffffffffffffffffff1673ffffffffffffffffffffffffffffffffffffffff16815260200190815260200160002060009054906101000a900460ff16156108b8576040517f08c379a000000000000000000000000000000000000000000000000000000000815260040180806020018281038252602f815260200180611ecc602f913960400191505060405180910390fd5b6001600560008573ffffffffffffffffffffffffffffffffffffffff1673ffffffffffffffffffffffffffffffffffffffff16815260200190815260200160002060006101000a81548160ff02191690831515021790555061095e8383838080601f016020809104026020016040519081016040528093929190818152602001838380828437600081840152601f19601f820116905080830192505050505050506115cd565b505050565b600061097982600061176690919063ffffffff16565b9050919050565b61098933610963565b6109de576040517f08c379a000000000000000000000000000000000000000000000000000000000815260040180806020018281038252602e815260200180611fa6602e913960400191505060405180910390fd5b6109e781611844565b50565b6109f333610b4a565b610a48576040517f08c379a0000000000000000000000000000000000000000000000000000000008152600401808060200182810382526030815260200180611efb6030913960400191505060405180910390fd5b600360009054906101000a900460ff16610aca576040517f08c379a00000000000000000000000000000000000000000000000000000000081526004018080602001828103825260148152602001807f5061757361626c653a206e6f742070617573656400000000000000000000000081525060200191505060405180910390fd5b6000600360006101000a81548160ff0219169083151502179055507f5db9ee0a495bf2e6ff9c91a7834c1ba4fdd244a5e8aa4e537bd38aeae4b073aa33604051808273ffffffffffffffffffffffffffffffffffffffff1673ffffffffffffffffffffffffffffffffffffffff16815260200191505060405180910390a1565b6000610b6082600261176690919063ffffffff16565b9050919050565b6000600360009054906101000a900460ff16905090565b610b87336115b0565b610bdc576040517f08c379a0000000000000000000000000000000000000000000000000000000008152600401808060200182810382526032815260200180611e616032913960400191505060405180910390fd5b600360009054906101000a900460ff1615610c5f576040517f08c379a00000000000000000000000000000000000000000000000000000000081526004018080602001828103825260108152602001807f5061757361626c653a207061757365640000000000000000000000000000000081525060200191505060405180910390fd5b600660003373ffffffffffffffffffffffffffffffffffffffff1673ffffffffffffffffffffffffffffffffffffffff16815260200190815260200160002060009054906101000a900460ff1615610d1f576040517f08c379a00000000000000000000000000000000000000000000000000000000081526004018080602001828103825260168152602001807f596f75206861766520616c726561647920766f7465640000000000000000000081525060200191505060405180910390fd5b600560008273ffffffffffffffffffffffffffffffffffffffff1673ffffffffffffffffffffffffffffffffffffffff16815260200190815260200160002060009054906101000a900460ff16610dc1576040517f08c379a0000000000000000000000000000000000000000000000000000000008152600401808060200182810382526038815260200180611f2b6038913960400191505060405180910390fd5b6001600660003373ffffffffffffffffffffffffffffffffffffffff1673ffffffffffffffffffffffffffffffffffffffff16815260200190815260200160002060006101000a81548160ff021916908315150217905550610e228161189e565b50565b610e2e3361194d565b565b610e3933610963565b610e8e576040517f08c379a000000000000000000000000000000000000000000000000000000000815260040180806020018281038252602e815260200180611fa6602e913960400191505060405180910390fd5b610e97816119a7565b50565b610ea333610963565b610ef8576040517f08c379a000000000000000000000000000000000000000000000000000000000815260040180806020018281038252602e815260200180611fa6602e913960400191505060405180910390fd5b600360009054906101000a900460ff16610f7a576040517f08c379a00000000000000000000000000000000000000000000000000000000081526004018080602001828103825260148152602001807f5061757361626c653a206e6f742070617573656400000000000000000000000081525060200191505060405180910390fd5b600560008273ffffffffffffffffffffffffffffffffffffffff1673ffffffffffffffffffffffffffffffffffffffff16815260200190815260200160002060009054906101000a900460ff1661101c576040517f08c379a0000000000000000000000000000000000000000000000000000000008152600401808060200182810382526039815260200180611e936039913960400191505060405180910390fd5b6000600560008373ffffffffffffffffffffffffffffffffffffffff1673ffffffffffffffffffffffffffffffffffffffff16815260200190815260200160002060006101000a81548160ff02191690831515021790555061107d81611a01565b50565b61108933610b4a565b6110de576040517f08c379a0000000000000000000000000000000000000000000000000000000008152600401808060200182810382526030815260200180611efb6030913960400191505060405180910390fd5b6110e781611b15565b50565b6110f333610b4a565b611148576040517f08c379a0000000000000000000000000000000000000000000000000000000008152600401808060200182810382526030815260200180611efb6030913960400191505060405180910390fd5b600360009054906101000a900460ff16156111cb576040517f08c379a00000000000000000000000000000000000000000000000000000000081526004018080602001828103825260108152602001807f5061757361626c653a207061757365640000000000000000000000000000000081525060200191505060405180910390fd5b6001600360006101000a81548160ff0219169083151502179055507f62e78cea01bee320cd4e420270b5ea74000d11b0c9f74754ebdbfc544b05a25833604051808273ffffffffffffffffffffffffffffffffffffffff1673ffffffffffffffffffffffffffffffffffffffff16815260200191505060405180910390a1565b60046020528060005260406000206000915090508060000160009054906101000a900473ffffffffffffffffffffffffffffffffffffffff1690806001018054600181600116156101000203166002900480601f01602080910402602001604051908101604052809291908181526020018280546001816001161561010002031660029004801561131d5780601f106112f25761010080835404028352916020019161131d565b820191906000526020600020905b81548152906001019060200180831161130057829003601f168201915b5050505050908060020154905083565b61133633610963565b61138b576040517f08c379a000000000000000000000000000000000000000000000000000000000815260040180806020018281038252602e815260200180611fa6602e913960400191505060405180910390fd5b61139481611b6f565b50565b60066020528060005260406000206000915054906101000a900460ff1681565b60006113c2336115b0565b611417576040517f08c379a0000000000000000000000000000000000000000000000000000000008152600401808060200182810382526032815260200180611e616032913960400191505060405180910390fd5b600360009054906101000a900460ff16611499576040517f08c379a00000000000000000000000000000000000000000000000000000000081526004018080602001828103825260148152602001807f5061757361626c653a206e6f742070617573656400000000000000000000000081525060200191505060405180910390fd5b600560008373ffffffffffffffffffffffffffffffffffffffff1673ffffffffffffffffffffffffffffffffffffffff16815260200190815260200160002060009054906101000a900460ff1661153b576040517f08c379a0000000000000000000000000000000000000000000000000000000008152600401808060200182810382526038815260200180611f2b6038913960400191505060405180910390fd5b600460008373ffffffffffffffffffffffffffffffffffffffff1673ffffffffffffffffffffffffffffffffffffffff168152602001908152602001600020600201549050919050565b61158e33611bc9565b565b60056020528060005260406000206000915054906101000a900460ff1681565b60006115c682600161176690919063ffffffff16565b9050919050565b60405180606001604052808373ffffffffffffffffffffffffffffffffffffffff1681526020018281526020016000815250600460008473ffffffffffffffffffffffffffffffffffffffff1673ffffffffffffffffffffffffffffffffffffffff16815260200190815260200160002060008201518160000160006101000a81548173ffffffffffffffffffffffffffffffffffffffff021916908373ffffffffffffffffffffffffffffffffffffffff16021790555060208201518160010190805190602001906116a1929190611dbb565b50604082015181600201559050508173ffffffffffffffffffffffffffffffffffffffff167f988f762b5aae51fa7aff4f01022a71a1780ce4525ed6997b1c7b9c5930194ece826040518080602001828103825283818151815260200191508051906020019080838360005b8381101561172857808201518184015260208101905061170d565b50505050905090810190601f1680156117555780820380516001836020036101000a031916815260200191505b509250505060405180910390a25050565b60008073ffffffffffffffffffffffffffffffffffffffff168273ffffffffffffffffffffffffffffffffffffffff1614156117ed576040517f08c379a0000000000000000000000000000000000000000000000000000000008152600401808060200182810382526022815260200180611f846022913960400191505060405180910390fd5b8260000160008373ffffffffffffffffffffffffffffffffffffffff1673ffffffffffffffffffffffffffffffffffffffff16815260200190815260200160002060009054906101000a900460ff16905092915050565b611858816001611c2390919063ffffffff16565b8073ffffffffffffffffffffffffffffffffffffffff167f272724e48012716338baa876acb4880d28ebeeb2176425a360610dd5acb99c4760405160405180910390a250565b600460008273ffffffffffffffffffffffffffffffffffffffff1673ffffffffffffffffffffffffffffffffffffffff168152602001908152602001600020600201600081548092919060010191905055503373ffffffffffffffffffffffffffffffffffffffff168173ffffffffffffffffffffffffffffffffffffffff167f1823a94934f802256db7958618e5f17e3f9b5671857295f8d6e353248c63465f60405160405180910390a350565b611961816002611cfe90919063ffffffff16565b8073ffffffffffffffffffffffffffffffffffffffff167fcd265ebaf09df2871cc7bd4133404a235ba12eff2041bb89d9c714a2621c7c7e60405160405180910390a250565b6119bb816000611c2390919063ffffffff16565b8073ffffffffffffffffffffffffffffffffffffffff167f44d6d25963f097ad14f29f06854a01f575648a1ef82f30e562ccd3889717e33960405160405180910390a250565b8073ffffffffffffffffffffffffffffffffffffffff167f3c62119088abbb82a71c6c72938f3058a557251a99667b0e9703f814319da4d0600460008473ffffffffffffffffffffffffffffffffffffffff1673ffffffffffffffffffffffffffffffffffffffff1681526020019081526020016000206001016040518080602001828103825283818154600181600116156101000203166002900481526020019150805460018160011615610100020316600290048015611b045780601f10611ad957610100808354040283529160200191611b04565b820191906000526020600020905b815481529060010190602001808311611ae757829003601f168201915b50509250505060405180910390a250565b611b29816002611c2390919063ffffffff16565b8073ffffffffffffffffffffffffffffffffffffffff167f6719d08c1888103bea251a4ed56406bd0c3e69723c8a1686e017e7bbe159b6f860405160405180910390a250565b611b83816001611cfe90919063ffffffff16565b8073ffffffffffffffffffffffffffffffffffffffff167f86ffc4c1bcf9a37474de354dc295e858ac1bb8e5dcf6255375aafca4b7f7474f60405160405180910390a250565b611bdd816000611cfe90919063ffffffff16565b8073ffffffffffffffffffffffffffffffffffffffff167fa3b62bc36326052d97ea62d63c3d60308ed4c3ea8ac079dd8499f1e9c4f80c0f60405160405180910390a250565b611c2d8282611766565b15611ca0576040517f08c379a000000000000000000000000000000000000000000000000000000000815260040180806020018281038252601f8152602001807f526f6c65733a206163636f756e7420616c72656164792068617320726f6c650081525060200191505060405180910390fd5b60018260000160008373ffffffffffffffffffffffffffffffffffffffff1673ffffffffffffffffffffffffffffffffffffffff16815260200190815260200160002060006101000a81548160ff0219169083151502179055505050565b611d088282611766565b611d5d576040517f08c379a0000000000000000000000000000000000000000000000000000000008152600401808060200182810382526021815260200180611f636021913960400191505060405180910390fd5b60008260000160008373ffffffffffffffffffffffffffffffffffffffff1673ffffffffffffffffffffffffffffffffffffffff16815260200190815260200160002060006101000a81548160ff0219169083151502179055505050565b828054600181600116156101000203166002900490600052602060002090601f016020900481019282601f10611dfc57805160ff1916838001178555611e2a565b82800160010185558215611e2a579182015b82811115611e29578251825591602001919060010190611e0e565b5b509050611e379190611e3b565b5090565b611e5d91905b80821115611e59576000816000905550600101611e41565b5090565b9056fe436974697a656e526f6c653a2063616c6c657220646f6573206e6f7420686176652074686520436974697a656e20726f6c65546869732063616e646964617465206973206e6f742063757272656e746c792072756e6e696e6720666f722074686520656c656374696f6e73546869732063616e64696461746520697320616c72656164792072756e6e696e6720666f7220656c656374696f6e73506175736572526f6c653a2063616c6c657220646f6573206e6f742068617665207468652050617573657220726f6c65546869732063616e646964617465206973206e6f742063757272656e746c792072756e6e696e6720666f722074686520656c656374696f6e526f6c65733a206163636f756e7420646f6573206e6f74206861766520726f6c65526f6c65733a206163636f756e7420697320746865207a65726f206164647265737341646d696e526f6c653a2063616c6c657220646f6573206e6f742068617665207468652041646d696e20726f6c65a265627a7a72315820ffdf2d5771bd0dbd5b841c2d0598b006a5d01d2a0d34eece147c73cdc48a638264736f6c634300050b0032526f6c65733a206163636f756e7420697320746865207a65726f2061646472657373",
  "source": "pragma solidity ^0.5.11;\r\n\r\nimport \"./CitizenRole.sol\";\r\nimport \"../node_modules/openzeppelin-solidity/contracts/lifecycle/Pausable.sol\";\r\n\r\ncontract Election is CitizenRole, Pausable {\r\n    event votedEvent (address indexed _candidate, address indexed _voter);\r\n    event candidateEligible(address indexed _applicant, string _addedParty);\r\n    event candidateWithdrawn(address indexed _candidate, string _removedParty);\r\n\r\n    struct Candidate {\r\n        address account;\r\n        string name;\r\n        uint voteCount;\r\n    }\r\n\r\n    mapping(address => Candidate) public candidates;\r\n    mapping(address => bool) public applicants;\r\n    mapping(address => bool) public voters;\r\n\r\n    function vote (address _candidate) external onlyCitizen whenNotPaused {\r\n        require(!voters[msg.sender], \"You have already voted\");\r\n        require(applicants[_candidate], \"This candidate is not currently running for the election\");\r\n        voters[msg.sender] = true;\r\n        _vote(_candidate);\r\n    }\r\n\r\n    function _vote (address _candidate) internal {\r\n        candidates[_candidate].voteCount ++;\r\n        emit votedEvent(_candidate, msg.sender);\r\n    }\r\n\r\n    function standForElections(address _candidate, string calldata _name) external onlyAdmin whenPaused {\r\n        require(bytes(_name).length > 0, \"Enter a valid name\");\r\n        require(!applicants[_candidate], \"This candidate is already running for elections\");\r\n        applicants[_candidate] = true;\r\n        _standForElections(_candidate, _name);\r\n    }\r\n\r\n    function _standForElections(address _candidate, string memory _name) internal {\r\n        candidates[_candidate] = Candidate(_candidate, _name, 0);\r\n        emit candidateEligible(_candidate, _name);\r\n    }\r\n\r\n    function withdrawFromElections(address _candidate) external onlyAdmin whenPaused {\r\n        require(applicants[_candidate], \"This candidate is not currently running for the elections\");\r\n        applicants[_candidate] = false;\r\n        _withdrawFromElections(_candidate);\r\n    }\r\n\r\n    function _withdrawFromElections(address _candidate) internal {\r\n        emit candidateWithdrawn(_candidate, candidates[_candidate].name);\r\n    }\r\n\r\n    function scrutiny(address _candidate) external view onlyCitizen whenPaused returns (uint256) {\r\n        require(applicants[_candidate], \"This candidate is not currently running for the election\");\r\n        return candidates[_candidate].voteCount;\r\n    }\r\n}",
  "sourcePath": "C:/Users/amoro/Desktop/PROYECTOS/Blockchain/Ethereum/BitVoteSystem/System/bitvote-system/contracts/Election.sol",
  "compiler": {
    "name": "solc",
    "version": "0.5.11+commit.c082d0b4.Emscripten.clang"
  },
  "schemaVersion": "3.0.11",
  "updatedAt": "2019-10-05T10:44:25.145Z",
  "devdoc": {
    "methods": {
      "pause()": {
        "details": "Called by a pauser to pause, triggers stopped state."
      },
      "paused()": {
        "details": "Returns true if the contract is paused, and false otherwise."
      },
      "unpause()": {
        "details": "Called by a pauser to unpause, returns to normal state."
      }
    }
  },
  "userdoc": {
    "methods": {}
  }
}