{
  "contractName": "Election",
  "abi": [
    {
      "constant": true,
      "inputs": [
        {
          "internalType": "address",
          "name": "account",
          "type": "address"
        }
      ],
      "name": "isAdmin",
      "outputs": [
        {
          "internalType": "bool",
          "name": "",
          "type": "bool"
        }
      ],
      "payable": false,
      "stateMutability": "view",
      "type": "function"
    },
    {
      "constant": false,
      "inputs": [
        {
          "internalType": "address",
          "name": "account",
          "type": "address"
        }
      ],
      "name": "addCitizen",
      "outputs": [],
      "payable": false,
      "stateMutability": "nonpayable",
      "type": "function"
    },
    {
      "constant": false,
      "inputs": [
        {
          "internalType": "address",
          "name": "account",
          "type": "address"
        }
      ],
      "name": "addCandidate",
      "outputs": [],
      "payable": false,
      "stateMutability": "nonpayable",
      "type": "function"
    },
    {
      "constant": false,
      "inputs": [],
      "name": "unpause",
      "outputs": [],
      "payable": false,
      "stateMutability": "nonpayable",
      "type": "function"
    },
    {
      "constant": true,
      "inputs": [
        {
          "internalType": "address",
          "name": "account",
          "type": "address"
        }
      ],
      "name": "isPauser",
      "outputs": [
        {
          "internalType": "bool",
          "name": "",
          "type": "bool"
        }
      ],
      "payable": false,
      "stateMutability": "view",
      "type": "function"
    },
    {
      "constant": true,
      "inputs": [],
      "name": "paused",
      "outputs": [
        {
          "internalType": "bool",
          "name": "",
          "type": "bool"
        }
      ],
      "payable": false,
      "stateMutability": "view",
      "type": "function"
    },
    {
      "constant": false,
      "inputs": [
        {
          "internalType": "address",
          "name": "account",
          "type": "address"
        }
      ],
      "name": "removeCandidate",
      "outputs": [],
      "payable": false,
      "stateMutability": "nonpayable",
      "type": "function"
    },
    {
      "constant": false,
      "inputs": [],
      "name": "renouncePauser",
      "outputs": [],
      "payable": false,
      "stateMutability": "nonpayable",
      "type": "function"
    },
    {
      "constant": false,
      "inputs": [
        {
          "internalType": "address",
          "name": "account",
          "type": "address"
        }
      ],
      "name": "addAdmin",
      "outputs": [],
      "payable": false,
      "stateMutability": "nonpayable",
      "type": "function"
    },
    {
      "constant": false,
      "inputs": [],
      "name": "renonceCandidate",
      "outputs": [],
      "payable": false,
      "stateMutability": "nonpayable",
      "type": "function"
    },
    {
      "constant": false,
      "inputs": [
        {
          "internalType": "address",
          "name": "account",
          "type": "address"
        }
      ],
      "name": "addPauser",
      "outputs": [],
      "payable": false,
      "stateMutability": "nonpayable",
      "type": "function"
    },
    {
      "constant": false,
      "inputs": [],
      "name": "pause",
      "outputs": [],
      "payable": false,
      "stateMutability": "nonpayable",
      "type": "function"
    },
    {
      "constant": true,
      "inputs": [
        {
          "internalType": "address",
          "name": "",
          "type": "address"
        }
      ],
      "name": "candidates",
      "outputs": [
        {
          "internalType": "address",
          "name": "account",
          "type": "address"
        },
        {
          "internalType": "string",
          "name": "name",
          "type": "string"
        },
        {
          "internalType": "uint256",
          "name": "voteCount",
          "type": "uint256"
        }
      ],
      "payable": false,
      "stateMutability": "view",
      "type": "function"
    },
    {
      "constant": false,
      "inputs": [
        {
          "internalType": "address",
          "name": "account",
          "type": "address"
        }
      ],
      "name": "removeCitizen",
      "outputs": [],
      "payable": false,
      "stateMutability": "nonpayable",
      "type": "function"
    },
    {
      "constant": true,
      "inputs": [
        {
          "internalType": "address",
          "name": "",
          "type": "address"
        }
      ],
      "name": "voters",
      "outputs": [
        {
          "internalType": "bool",
          "name": "",
          "type": "bool"
        }
      ],
      "payable": false,
      "stateMutability": "view",
      "type": "function"
    },
    {
      "constant": false,
      "inputs": [],
      "name": "renonceAdmin",
      "outputs": [],
      "payable": false,
      "stateMutability": "nonpayable",
      "type": "function"
    },
    {
      "constant": true,
      "inputs": [
        {
          "internalType": "address",
          "name": "",
          "type": "address"
        }
      ],
      "name": "applicants",
      "outputs": [
        {
          "internalType": "bool",
          "name": "",
          "type": "bool"
        }
      ],
      "payable": false,
      "stateMutability": "view",
      "type": "function"
    },
    {
      "constant": true,
      "inputs": [
        {
          "internalType": "address",
          "name": "account",
          "type": "address"
        }
      ],
      "name": "isCandidate",
      "outputs": [
        {
          "internalType": "bool",
          "name": "",
          "type": "bool"
        }
      ],
      "payable": false,
      "stateMutability": "view",
      "type": "function"
    },
    {
      "constant": true,
      "inputs": [
        {
          "internalType": "address",
          "name": "account",
          "type": "address"
        }
      ],
      "name": "isCitizen",
      "outputs": [
        {
          "internalType": "bool",
          "name": "",
          "type": "bool"
        }
      ],
      "payable": false,
      "stateMutability": "view",
      "type": "function"
    },
    {
      "anonymous": false,
      "inputs": [
        {
          "indexed": true,
          "internalType": "address",
          "name": "_candidate",
          "type": "address"
        },
        {
          "indexed": false,
          "internalType": "address",
          "name": "_voter",
          "type": "address"
        }
      ],
      "name": "votedEvent",
      "type": "event"
    },
    {
      "anonymous": false,
      "inputs": [
        {
          "indexed": true,
          "internalType": "address",
          "name": "_applicant",
          "type": "address"
        }
      ],
      "name": "candidateEligible",
      "type": "event"
    },
    {
      "anonymous": false,
      "inputs": [
        {
          "indexed": true,
          "internalType": "address",
          "name": "_candidate",
          "type": "address"
        }
      ],
      "name": "candidateWithdrawn",
      "type": "event"
    },
    {
      "anonymous": false,
      "inputs": [
        {
          "indexed": false,
          "internalType": "address",
          "name": "account",
          "type": "address"
        }
      ],
      "name": "Paused",
      "type": "event"
    },
    {
      "anonymous": false,
      "inputs": [
        {
          "indexed": false,
          "internalType": "address",
          "name": "account",
          "type": "address"
        }
      ],
      "name": "Unpaused",
      "type": "event"
    },
    {
      "anonymous": false,
      "inputs": [
        {
          "indexed": true,
          "internalType": "address",
          "name": "account",
          "type": "address"
        }
      ],
      "name": "PauserAdded",
      "type": "event"
    },
    {
      "anonymous": false,
      "inputs": [
        {
          "indexed": true,
          "internalType": "address",
          "name": "account",
          "type": "address"
        }
      ],
      "name": "PauserRemoved",
      "type": "event"
    },
    {
      "anonymous": false,
      "inputs": [
        {
          "indexed": true,
          "internalType": "address",
          "name": "account",
          "type": "address"
        }
      ],
      "name": "CitizenAdded",
      "type": "event"
    },
    {
      "anonymous": false,
      "inputs": [
        {
          "indexed": true,
          "internalType": "address",
          "name": "account",
          "type": "address"
        }
      ],
      "name": "CitizenRemoved",
      "type": "event"
    },
    {
      "anonymous": false,
      "inputs": [
        {
          "indexed": true,
          "internalType": "address",
          "name": "account",
          "type": "address"
        }
      ],
      "name": "CandidateAdded",
      "type": "event"
    },
    {
      "anonymous": false,
      "inputs": [
        {
          "indexed": true,
          "internalType": "address",
          "name": "account",
          "type": "address"
        }
      ],
      "name": "CandidateRemoved",
      "type": "event"
    },
    {
      "anonymous": false,
      "inputs": [
        {
          "indexed": true,
          "internalType": "address",
          "name": "account",
          "type": "address"
        }
      ],
      "name": "AdminAdded",
      "type": "event"
    },
    {
      "anonymous": false,
      "inputs": [
        {
          "indexed": true,
          "internalType": "address",
          "name": "account",
          "type": "address"
        }
      ],
      "name": "AdminRemoved",
      "type": "event"
    },
    {
      "constant": false,
      "inputs": [
        {
          "internalType": "address",
          "name": "_candidate",
          "type": "address"
        }
      ],
      "name": "vote",
      "outputs": [],
      "payable": false,
      "stateMutability": "nonpayable",
      "type": "function"
    },
    {
      "constant": false,
      "inputs": [
        {
          "internalType": "string",
          "name": "_name",
          "type": "string"
        }
      ],
      "name": "standForElections",
      "outputs": [],
      "payable": false,
      "stateMutability": "nonpayable",
      "type": "function"
    },
    {
      "constant": false,
      "inputs": [],
      "name": "withdrawFromElection",
      "outputs": [],
      "payable": false,
      "stateMutability": "nonpayable",
      "type": "function"
    }
  ],
  "bytecode": "0x608060405262000015336200004760201b60201c565b6200002633620000a860201b60201c565b6000600460006101000a81548160ff021916908315150217905550620002cd565b620000628160006200010960201b62001b201790919060201c565b8073ffffffffffffffffffffffffffffffffffffffff167f44d6d25963f097ad14f29f06854a01f575648a1ef82f30e562ccd3889717e33960405160405180910390a250565b620000c38160036200010960201b62001b201790919060201c565b8073ffffffffffffffffffffffffffffffffffffffff167f6719d08c1888103bea251a4ed56406bd0c3e69723c8a1686e017e7bbe159b6f860405160405180910390a250565b6200011b8282620001ed60201b60201c565b156200018f576040517f08c379a000000000000000000000000000000000000000000000000000000000815260040180806020018281038252601f8152602001807f526f6c65733a206163636f756e7420616c72656164792068617320726f6c650081525060200191505060405180910390fd5b60018260000160008373ffffffffffffffffffffffffffffffffffffffff1673ffffffffffffffffffffffffffffffffffffffff16815260200190815260200160002060006101000a81548160ff0219169083151502179055505050565b60008073ffffffffffffffffffffffffffffffffffffffff168273ffffffffffffffffffffffffffffffffffffffff16141562000276576040517f08c379a0000000000000000000000000000000000000000000000000000000008152600401808060200182810382526022815260200180620021f66022913960400191505060405180910390fd5b8260000160008373ffffffffffffffffffffffffffffffffffffffff1673ffffffffffffffffffffffffffffffffffffffff16815260200190815260200160002060009054906101000a900460ff16905092915050565b611f1980620002dd6000396000f3fe608060405234801561001057600080fd5b50600436106101425760003560e01c8063811ee724116100b8578063a3ec138d1161007c578063a3ec138d14610526578063bf03094814610582578063ccd668631461058c578063d51b9e93146105e8578063e64d27a514610644578063f3caad03146106ff57610142565b8063811ee7241461039357806382dc1ec41461039d5780638456cb59146103e15780638ab66a90146103eb5780639bf4dd0a146104e257610142565b806346fbf68e1161010a57806346fbf68e1461023f5780635c975abb1461029b5780636dd091f9146102bd5780636dd7d8ea146103015780636ef8d66d14610345578063704802751461034f57610142565b80631494351e1461014757806324d7806c146101515780633920dfdf146101ad5780633acd75f8146101f15780633f4ba83a14610235575b600080fd5b61014f61075b565b005b6101936004803603602081101561016757600080fd5b81019080803573ffffffffffffffffffffffffffffffffffffffff16906020019092919050505061093f565b604051808215151515815260200191505060405180910390f35b6101ef600480360360208110156101c357600080fd5b81019080803573ffffffffffffffffffffffffffffffffffffffff16906020019092919050505061095c565b005b6102336004803603602081101561020757600080fd5b81019080803573ffffffffffffffffffffffffffffffffffffffff1690602001909291905050506109c6565b005b61023d610a30565b005b6102816004803603602081101561025557600080fd5b81019080803573ffffffffffffffffffffffffffffffffffffffff169060200190929190505050610b90565b604051808215151515815260200191505060405180910390f35b6102a3610bad565b604051808215151515815260200191505060405180910390f35b6102ff600480360360208110156102d357600080fd5b81019080803573ffffffffffffffffffffffffffffffffffffffff169060200190929190505050610bc4565b005b6103436004803603602081101561031757600080fd5b81019080803573ffffffffffffffffffffffffffffffffffffffff169060200190929190505050610c2e565b005b61034d610f33565b005b6103916004803603602081101561036557600080fd5b81019080803573ffffffffffffffffffffffffffffffffffffffff169060200190929190505050610f3e565b005b61039b610fa8565b005b6103df600480360360208110156103b357600080fd5b81019080803573ffffffffffffffffffffffffffffffffffffffff169060200190929190505050610fb3565b005b6103e961101d565b005b61042d6004803603602081101561040157600080fd5b81019080803573ffffffffffffffffffffffffffffffffffffffff16906020019092919050505061117e565b604051808473ffffffffffffffffffffffffffffffffffffffff1673ffffffffffffffffffffffffffffffffffffffff16815260200180602001838152602001828103825284818151815260200191508051906020019080838360005b838110156104a557808201518184015260208101905061048a565b50505050905090810190601f1680156104d25780820380516001836020036101000a031916815260200191505b5094505050505060405180910390f35b610524600480360360208110156104f857600080fd5b81019080803573ffffffffffffffffffffffffffffffffffffffff169060200190929190505050611260565b005b6105686004803603602081101561053c57600080fd5b81019080803573ffffffffffffffffffffffffffffffffffffffff1690602001909291905050506112ca565b604051808215151515815260200191505060405180910390f35b61058a6112ea565b005b6105ce600480360360208110156105a257600080fd5b81019080803573ffffffffffffffffffffffffffffffffffffffff1690602001909291905050506112f5565b604051808215151515815260200191505060405180910390f35b61062a600480360360208110156105fe57600080fd5b81019080803573ffffffffffffffffffffffffffffffffffffffff169060200190929190505050611315565b604051808215151515815260200191505060405180910390f35b6106fd6004803603602081101561065a57600080fd5b810190808035906020019064010000000081111561067757600080fd5b82018360208201111561068957600080fd5b803590602001918460018302840111640100000000831117156106ab57600080fd5b91908080601f016020809104026020016040519081016040528093929190818152602001838380828437600081840152601f19601f820116905080830192505050505050509192919290505050611332565b005b6107416004803603602081101561071557600080fd5b81019080803573ffffffffffffffffffffffffffffffffffffffff169060200190929190505050611519565b604051808215151515815260200191505060405180910390f35b61076433611315565b6107b9576040517f08c379a0000000000000000000000000000000000000000000000000000000008152600401808060200182810382526036815260200180611db46036913960400191505060405180910390fd5b600460009054906101000a900460ff1661083b576040517f08c379a00000000000000000000000000000000000000000000000000000000081526004018080602001828103825260148152602001807f5061757361626c653a206e6f742070617573656400000000000000000000000081525060200191505060405180910390fd5b600660003373ffffffffffffffffffffffffffffffffffffffff1673ffffffffffffffffffffffffffffffffffffffff16815260200190815260200160002060009054906101000a900460ff166108dd576040517f08c379a0000000000000000000000000000000000000000000000000000000008152600401808060200182810382526024815260200180611d5e6024913960400191505060405180910390fd5b6000600660003373ffffffffffffffffffffffffffffffffffffffff1673ffffffffffffffffffffffffffffffffffffffff16815260200190815260200160002060006101000a81548160ff02191690831515021790555061093d611536565b565b600061095582600061157b90919063ffffffff16565b9050919050565b6109653361093f565b6109ba576040517f08c379a000000000000000000000000000000000000000000000000000000000815260040180806020018281038252602e815260200180611eb7602e913960400191505060405180910390fd5b6109c381611659565b50565b6109cf3361093f565b610a24576040517f08c379a000000000000000000000000000000000000000000000000000000000815260040180806020018281038252602e815260200180611eb7602e913960400191505060405180910390fd5b610a2d816116b3565b50565b610a3933610b90565b610a8e576040517f08c379a0000000000000000000000000000000000000000000000000000000008152600401808060200182810382526030815260200180611dea6030913960400191505060405180910390fd5b600460009054906101000a900460ff16610b10576040517f08c379a00000000000000000000000000000000000000000000000000000000081526004018080602001828103825260148152602001807f5061757361626c653a206e6f742070617573656400000000000000000000000081525060200191505060405180910390fd5b6000600460006101000a81548160ff0219169083151502179055507f5db9ee0a495bf2e6ff9c91a7834c1ba4fdd244a5e8aa4e537bd38aeae4b073aa33604051808273ffffffffffffffffffffffffffffffffffffffff1673ffffffffffffffffffffffffffffffffffffffff16815260200191505060405180910390a1565b6000610ba682600361157b90919063ffffffff16565b9050919050565b6000600460009054906101000a900460ff16905090565b610bcd3361093f565b610c22576040517f08c379a000000000000000000000000000000000000000000000000000000000815260040180806020018281038252602e815260200180611eb7602e913960400191505060405180910390fd5b610c2b8161170d565b50565b610c3733611519565b610c8c576040517f08c379a0000000000000000000000000000000000000000000000000000000008152600401808060200182810382526032815260200180611d826032913960400191505060405180910390fd5b610c9533611315565b610cea576040517f08c379a0000000000000000000000000000000000000000000000000000000008152600401808060200182810382526036815260200180611db46036913960400191505060405180910390fd5b600460009054906101000a900460ff1615610d6d576040517f08c379a00000000000000000000000000000000000000000000000000000000081526004018080602001828103825260108152602001807f5061757361626c653a207061757365640000000000000000000000000000000081525060200191505060405180910390fd5b600760003373ffffffffffffffffffffffffffffffffffffffff1673ffffffffffffffffffffffffffffffffffffffff16815260200190815260200160002060009054906101000a900460ff1615610e2d576040517f08c379a00000000000000000000000000000000000000000000000000000000081526004018080602001828103825260168152602001807f596f75206861766520616c726561647920766f7465640000000000000000000081525060200191505060405180910390fd5b600660008273ffffffffffffffffffffffffffffffffffffffff1673ffffffffffffffffffffffffffffffffffffffff16815260200190815260200160002060009054906101000a900460ff16610ecf576040517f08c379a0000000000000000000000000000000000000000000000000000000008152600401808060200182810382526038815260200180611e1a6038913960400191505060405180910390fd5b6001600760003373ffffffffffffffffffffffffffffffffffffffff1673ffffffffffffffffffffffffffffffffffffffff16815260200190815260200160002060006101000a81548160ff021916908315150217905550610f3081611767565b50565b610f3c33611836565b565b610f473361093f565b610f9c576040517f08c379a000000000000000000000000000000000000000000000000000000000815260040180806020018281038252602e815260200180611eb7602e913960400191505060405180910390fd5b610fa581611890565b50565b610fb13361170d565b565b610fbc33610b90565b611011576040517f08c379a0000000000000000000000000000000000000000000000000000000008152600401808060200182810382526030815260200180611dea6030913960400191505060405180910390fd5b61101a816118ea565b50565b61102633610b90565b61107b576040517f08c379a0000000000000000000000000000000000000000000000000000000008152600401808060200182810382526030815260200180611dea6030913960400191505060405180910390fd5b600460009054906101000a900460ff16156110fe576040517f08c379a00000000000000000000000000000000000000000000000000000000081526004018080602001828103825260108152602001807f5061757361626c653a207061757365640000000000000000000000000000000081525060200191505060405180910390fd5b6001600460006101000a81548160ff0219169083151502179055507f62e78cea01bee320cd4e420270b5ea74000d11b0c9f74754ebdbfc544b05a25833604051808273ffffffffffffffffffffffffffffffffffffffff1673ffffffffffffffffffffffffffffffffffffffff16815260200191505060405180910390a1565b60056020528060005260406000206000915090508060000160009054906101000a900473ffffffffffffffffffffffffffffffffffffffff1690806001018054600181600116156101000203166002900480601f0160208091040260200160405190810160405280929190818152602001828054600181600116156101000203166002900480156112505780601f1061122557610100808354040283529160200191611250565b820191906000526020600020905b81548152906001019060200180831161123357829003601f168201915b5050505050908060020154905083565b6112693361093f565b6112be576040517f08c379a000000000000000000000000000000000000000000000000000000000815260040180806020018281038252602e815260200180611eb7602e913960400191505060405180910390fd5b6112c781611944565b50565b60076020528060005260406000206000915054906101000a900460ff1681565b6112f33361199e565b565b60066020528060005260406000206000915054906101000a900460ff1681565b600061132b82600161157b90919063ffffffff16565b9050919050565b61133b33611315565b611390576040517f08c379a0000000000000000000000000000000000000000000000000000000008152600401808060200182810382526036815260200180611db46036913960400191505060405180910390fd5b600460009054906101000a900460ff16611412576040517f08c379a00000000000000000000000000000000000000000000000000000000081526004018080602001828103825260148152602001807f5061757361626c653a206e6f742070617573656400000000000000000000000081525060200191505060405180910390fd5b600660003373ffffffffffffffffffffffffffffffffffffffff1673ffffffffffffffffffffffffffffffffffffffff16815260200190815260200160002060009054906101000a900460ff16156114b5576040517f08c379a0000000000000000000000000000000000000000000000000000000008152600401808060200182810382526022815260200180611e956022913960400191505060405180910390fd5b6001600660003373ffffffffffffffffffffffffffffffffffffffff1673ffffffffffffffffffffffffffffffffffffffff16815260200190815260200160002060006101000a81548160ff021916908315150217905550611516816119f8565b50565b600061152f82600261157b90919063ffffffff16565b9050919050565b3373ffffffffffffffffffffffffffffffffffffffff167f8ddd868cbdb0255ebb188eb5559ca3a9f112c31cf19261256c43676483269bd260405160405180910390a2565b60008073ffffffffffffffffffffffffffffffffffffffff168273ffffffffffffffffffffffffffffffffffffffff161415611602576040517f08c379a0000000000000000000000000000000000000000000000000000000008152600401808060200182810382526022815260200180611e736022913960400191505060405180910390fd5b8260000160008373ffffffffffffffffffffffffffffffffffffffff1673ffffffffffffffffffffffffffffffffffffffff16815260200190815260200160002060009054906101000a900460ff16905092915050565b61166d816002611b2090919063ffffffff16565b8073ffffffffffffffffffffffffffffffffffffffff167f272724e48012716338baa876acb4880d28ebeeb2176425a360610dd5acb99c4760405160405180910390a250565b6116c7816001611b2090919063ffffffff16565b8073ffffffffffffffffffffffffffffffffffffffff167faa38be308bdffe126c2b6be720070355eb22e0efc549ac39221b1ce71642ed4060405160405180910390a250565b611721816001611bfb90919063ffffffff16565b8073ffffffffffffffffffffffffffffffffffffffff167fa9c38d4e36441185df66deccc5454d2ac0fab4f049d916441884300f6b7c605c60405160405180910390a250565b600560008273ffffffffffffffffffffffffffffffffffffffff1673ffffffffffffffffffffffffffffffffffffffff168152602001908152602001600020600201600081548092919060010191905055508073ffffffffffffffffffffffffffffffffffffffff167f1823a94934f802256db7958618e5f17e3f9b5671857295f8d6e353248c63465f33604051808273ffffffffffffffffffffffffffffffffffffffff1673ffffffffffffffffffffffffffffffffffffffff16815260200191505060405180910390a250565b61184a816003611bfb90919063ffffffff16565b8073ffffffffffffffffffffffffffffffffffffffff167fcd265ebaf09df2871cc7bd4133404a235ba12eff2041bb89d9c714a2621c7c7e60405160405180910390a250565b6118a4816000611b2090919063ffffffff16565b8073ffffffffffffffffffffffffffffffffffffffff167f44d6d25963f097ad14f29f06854a01f575648a1ef82f30e562ccd3889717e33960405160405180910390a250565b6118fe816003611b2090919063ffffffff16565b8073ffffffffffffffffffffffffffffffffffffffff167f6719d08c1888103bea251a4ed56406bd0c3e69723c8a1686e017e7bbe159b6f860405160405180910390a250565b611958816002611bfb90919063ffffffff16565b8073ffffffffffffffffffffffffffffffffffffffff167f86ffc4c1bcf9a37474de354dc295e858ac1bb8e5dcf6255375aafca4b7f7474f60405160405180910390a250565b6119b2816000611bfb90919063ffffffff16565b8073ffffffffffffffffffffffffffffffffffffffff167fa3b62bc36326052d97ea62d63c3d60308ed4c3ea8ac079dd8499f1e9c4f80c0f60405160405180910390a250565b60405180606001604052803373ffffffffffffffffffffffffffffffffffffffff1681526020018281526020016000815250600560003373ffffffffffffffffffffffffffffffffffffffff1673ffffffffffffffffffffffffffffffffffffffff16815260200190815260200160002060008201518160000160006101000a81548173ffffffffffffffffffffffffffffffffffffffff021916908373ffffffffffffffffffffffffffffffffffffffff1602179055506020820151816001019080519060200190611acc929190611cb8565b50604082015181600201559050503373ffffffffffffffffffffffffffffffffffffffff167fdc430418070de886094ffa28d1c3967fcbaca50582f676662c25711200b8195160405160405180910390a250565b611b2a828261157b565b15611b9d576040517f08c379a000000000000000000000000000000000000000000000000000000000815260040180806020018281038252601f8152602001807f526f6c65733a206163636f756e7420616c72656164792068617320726f6c650081525060200191505060405180910390fd5b60018260000160008373ffffffffffffffffffffffffffffffffffffffff1673ffffffffffffffffffffffffffffffffffffffff16815260200190815260200160002060006101000a81548160ff0219169083151502179055505050565b611c05828261157b565b611c5a576040517f08c379a0000000000000000000000000000000000000000000000000000000008152600401808060200182810382526021815260200180611e526021913960400191505060405180910390fd5b60008260000160008373ffffffffffffffffffffffffffffffffffffffff1673ffffffffffffffffffffffffffffffffffffffff16815260200190815260200160002060006101000a81548160ff0219169083151502179055505050565b828054600181600116156101000203166002900490600052602060002090601f016020900481019282601f10611cf957805160ff1916838001178555611d27565b82800160010185558215611d27579182015b82811115611d26578251825591602001919060010190611d0b565b5b509050611d349190611d38565b5090565b611d5a91905b80821115611d56576000816000905550600101611d3e565b5090565b9056fe596f7520617265206e6f742072756e6e696e6720666f722074686520656c656374696f6e436974697a656e526f6c653a2063616c6c657220646f6573206e6f7420686176652074686520436974697a656e20726f6c6543616e646964617465526f6c653a2063616c6c657220646f6573206e6f742068617665207468652043616e64696461746520726f6c65506175736572526f6c653a2063616c6c657220646f6573206e6f742068617665207468652050617573657220726f6c65546869732063616e646964617465206973206e6f742063757272656e746c792072756e6e696e6720666f722074686520656c656374696f6e526f6c65733a206163636f756e7420646f6573206e6f74206861766520726f6c65526f6c65733a206163636f756e7420697320746865207a65726f2061646472657373596f75206861766520616c72656164792072756e20666f7220656c656374696f6e7341646d696e526f6c653a2063616c6c657220646f6573206e6f742068617665207468652041646d696e20726f6c65a265627a7a72315820b5420cc1061ef5579b6d600bfdd0800eddba7a0e85438f9dcfa357d84443090d64736f6c634300050b0032526f6c65733a206163636f756e7420697320746865207a65726f2061646472657373",
  "source": "pragma solidity ^0.5.11;\r\n\r\nimport \"./SystemManager.sol\";\r\nimport \"../node_modules/openzeppelin-solidity/contracts/lifecycle/Pausable.sol\";\r\n\r\ncontract Election is SystemManager, Pausable {\r\n    event votedEvent (address indexed _candidate, address _voter);\r\n    event candidateEligible(address indexed _applicant);\r\n    event candidateWithdrawn(address indexed _candidate);\r\n\r\n    struct Candidate {\r\n        address account;\r\n        string name;\r\n        uint voteCount;\r\n    }\r\n    // Stores candidates' votes\r\n    mapping(address => Candidate) public candidates;\r\n    // Stores candidates that have applied to be eligible\r\n    mapping(address => bool) public applicants;\r\n    // Store accounts that have voted\r\n    mapping(address => bool) public voters;\r\n\r\n\r\n    function vote (address _candidate) public onlyCitizen onlyCandidate whenNotPaused {\r\n        // require that they haven't voted before\r\n        require(!voters[msg.sender], \"You have already voted\");\r\n        // require candidate is eligible\r\n        require(applicants[_candidate], \"This candidate is not currently running for the election\");\r\n        // record that the voter has voted\r\n        voters[msg.sender] = true;\r\n        _vote(_candidate);\r\n    }\r\n\r\n    function _vote (address _candidate) internal {\r\n        // update candidate vote count\r\n        candidates[_candidate].voteCount ++;\r\n        // trigger voted event\r\n        emit votedEvent(_candidate, msg.sender);\r\n    }\r\n\r\n    function standForElections(string memory _name) public onlyCandidate whenPaused {\r\n        require(!applicants[msg.sender], \"You have already run for elections\");\r\n        applicants[msg.sender] = true;\r\n        _standForElections(_name);\r\n    }\r\n\r\n    // msg.sender could show unexpected behaviour. msg.sender could be function\r\n    function _standForElections(string memory _name) internal {\r\n        candidates[msg.sender] = Candidate(msg.sender, _name, 0);\r\n        emit candidateEligible(msg.sender);\r\n    }\r\n\r\n    function withdrawFromElection() public onlyCandidate whenPaused {\r\n        require(applicants[msg.sender], \"You are not running for the election\");\r\n        applicants[msg.sender] = false;\r\n        _withdrawFromElection();\r\n    }\r\n\r\n    function _withdrawFromElection() internal {\r\n        emit candidateWithdrawn(msg.sender);\r\n    }\r\n}",
  "sourcePath": "C:/Users/amoro/Desktop/PROYECTOS/Blockchain/Ethereum/BitVoteSystem/System/bitvote-system/contracts/Election.sol",
  "compiler": {
    "name": "solc",
    "version": "0.5.11+commit.c082d0b4.Emscripten.clang"
  },
  "schemaVersion": "3.0.11",
  "updatedAt": "2019-08-26T15:11:58.136Z",
  "devdoc": {
    "methods": {
      "pause()": {
        "details": "Called by a pauser to pause, triggers stopped state."
      },
      "paused()": {
        "details": "Returns true if the contract is paused, and false otherwise."
      },
      "unpause()": {
        "details": "Called by a pauser to unpause, returns to normal state."
      }
    }
  },
  "userdoc": {
    "methods": {}
  }
}