{
  "contractName": "SystemManager",
  "abi": [
    {
      "constant": true,
      "inputs": [
        {
          "internalType": "address",
          "name": "account",
          "type": "address"
        }
      ],
      "name": "isAdmin",
      "outputs": [
        {
          "internalType": "bool",
          "name": "",
          "type": "bool"
        }
      ],
      "payable": false,
      "stateMutability": "view",
      "type": "function"
    },
    {
      "constant": false,
      "inputs": [
        {
          "internalType": "address",
          "name": "account",
          "type": "address"
        }
      ],
      "name": "addCitizen",
      "outputs": [],
      "payable": false,
      "stateMutability": "nonpayable",
      "type": "function"
    },
    {
      "constant": false,
      "inputs": [
        {
          "internalType": "address",
          "name": "account",
          "type": "address"
        }
      ],
      "name": "addCandidate",
      "outputs": [],
      "payable": false,
      "stateMutability": "nonpayable",
      "type": "function"
    },
    {
      "constant": false,
      "inputs": [
        {
          "internalType": "address",
          "name": "account",
          "type": "address"
        }
      ],
      "name": "removeCandidate",
      "outputs": [],
      "payable": false,
      "stateMutability": "nonpayable",
      "type": "function"
    },
    {
      "constant": false,
      "inputs": [
        {
          "internalType": "address",
          "name": "account",
          "type": "address"
        }
      ],
      "name": "addAdmin",
      "outputs": [],
      "payable": false,
      "stateMutability": "nonpayable",
      "type": "function"
    },
    {
      "constant": false,
      "inputs": [],
      "name": "renonceCandidate",
      "outputs": [],
      "payable": false,
      "stateMutability": "nonpayable",
      "type": "function"
    },
    {
      "constant": false,
      "inputs": [
        {
          "internalType": "address",
          "name": "account",
          "type": "address"
        }
      ],
      "name": "removeCitizen",
      "outputs": [],
      "payable": false,
      "stateMutability": "nonpayable",
      "type": "function"
    },
    {
      "constant": false,
      "inputs": [],
      "name": "renonceAdmin",
      "outputs": [],
      "payable": false,
      "stateMutability": "nonpayable",
      "type": "function"
    },
    {
      "constant": true,
      "inputs": [
        {
          "internalType": "address",
          "name": "account",
          "type": "address"
        }
      ],
      "name": "isCandidate",
      "outputs": [
        {
          "internalType": "bool",
          "name": "",
          "type": "bool"
        }
      ],
      "payable": false,
      "stateMutability": "view",
      "type": "function"
    },
    {
      "constant": true,
      "inputs": [
        {
          "internalType": "address",
          "name": "account",
          "type": "address"
        }
      ],
      "name": "isCitizen",
      "outputs": [
        {
          "internalType": "bool",
          "name": "",
          "type": "bool"
        }
      ],
      "payable": false,
      "stateMutability": "view",
      "type": "function"
    },
    {
      "anonymous": false,
      "inputs": [
        {
          "indexed": true,
          "internalType": "address",
          "name": "account",
          "type": "address"
        }
      ],
      "name": "CitizenAdded",
      "type": "event"
    },
    {
      "anonymous": false,
      "inputs": [
        {
          "indexed": true,
          "internalType": "address",
          "name": "account",
          "type": "address"
        }
      ],
      "name": "CitizenRemoved",
      "type": "event"
    },
    {
      "anonymous": false,
      "inputs": [
        {
          "indexed": true,
          "internalType": "address",
          "name": "account",
          "type": "address"
        }
      ],
      "name": "CandidateAdded",
      "type": "event"
    },
    {
      "anonymous": false,
      "inputs": [
        {
          "indexed": true,
          "internalType": "address",
          "name": "account",
          "type": "address"
        }
      ],
      "name": "CandidateRemoved",
      "type": "event"
    },
    {
      "anonymous": false,
      "inputs": [
        {
          "indexed": true,
          "internalType": "address",
          "name": "account",
          "type": "address"
        }
      ],
      "name": "AdminAdded",
      "type": "event"
    },
    {
      "anonymous": false,
      "inputs": [
        {
          "indexed": true,
          "internalType": "address",
          "name": "account",
          "type": "address"
        }
      ],
      "name": "AdminRemoved",
      "type": "event"
    }
  ],
  "bytecode": "0x60806040526100133361001860201b60201c565b610235565b61003081600061007660201b6108981790919060201c565b8073ffffffffffffffffffffffffffffffffffffffff167f44d6d25963f097ad14f29f06854a01f575648a1ef82f30e562ccd3889717e33960405160405180910390a250565b610086828261015760201b60201c565b156100f9576040517f08c379a000000000000000000000000000000000000000000000000000000000815260040180806020018281038252601f8152602001807f526f6c65733a206163636f756e7420616c72656164792068617320726f6c650081525060200191505060405180910390fd5b60018260000160008373ffffffffffffffffffffffffffffffffffffffff1673ffffffffffffffffffffffffffffffffffffffff16815260200190815260200160002060006101000a81548160ff0219169083151502179055505050565b60008073ffffffffffffffffffffffffffffffffffffffff168273ffffffffffffffffffffffffffffffffffffffff1614156101de576040517f08c379a0000000000000000000000000000000000000000000000000000000008152600401808060200182810382526022815260200180610d1a6022913960400191505060405180910390fd5b8260000160008373ffffffffffffffffffffffffffffffffffffffff1673ffffffffffffffffffffffffffffffffffffffff16815260200190815260200160002060009054906101000a900460ff16905092915050565b610ad6806102446000396000f3fe608060405234801561001057600080fd5b506004361061009e5760003560e01c8063811ee72411610066578063811ee7241461020f5780639bf4dd0a14610219578063bf0309481461025d578063d51b9e9314610267578063f3caad03146102c35761009e565b806324d7806c146100a35780633920dfdf146100ff5780633acd75f8146101435780636dd091f91461018757806370480275146101cb575b600080fd5b6100e5600480360360208110156100b957600080fd5b81019080803573ffffffffffffffffffffffffffffffffffffffff16906020019092919050505061031f565b604051808215151515815260200191505060405180910390f35b6101416004803603602081101561011557600080fd5b81019080803573ffffffffffffffffffffffffffffffffffffffff16906020019092919050505061033c565b005b6101856004803603602081101561015957600080fd5b81019080803573ffffffffffffffffffffffffffffffffffffffff1690602001909291905050506103a6565b005b6101c96004803603602081101561019d57600080fd5b81019080803573ffffffffffffffffffffffffffffffffffffffff169060200190929190505050610410565b005b61020d600480360360208110156101e157600080fd5b81019080803573ffffffffffffffffffffffffffffffffffffffff16906020019092919050505061047a565b005b6102176104e4565b005b61025b6004803603602081101561022f57600080fd5b81019080803573ffffffffffffffffffffffffffffffffffffffff1690602001909291905050506104ef565b005b610265610559565b005b6102a96004803603602081101561027d57600080fd5b81019080803573ffffffffffffffffffffffffffffffffffffffff169060200190929190505050610564565b604051808215151515815260200191505060405180910390f35b610305600480360360208110156102d957600080fd5b81019080803573ffffffffffffffffffffffffffffffffffffffff169060200190929190505050610581565b604051808215151515815260200191505060405180910390f35b600061033582600061059e90919063ffffffff16565b9050919050565b6103453361031f565b61039a576040517f08c379a000000000000000000000000000000000000000000000000000000000815260040180806020018281038252602e815260200180610a74602e913960400191505060405180910390fd5b6103a38161067c565b50565b6103af3361031f565b610404576040517f08c379a000000000000000000000000000000000000000000000000000000000815260040180806020018281038252602e815260200180610a74602e913960400191505060405180910390fd5b61040d816106d6565b50565b6104193361031f565b61046e576040517f08c379a000000000000000000000000000000000000000000000000000000000815260040180806020018281038252602e815260200180610a74602e913960400191505060405180910390fd5b61047781610730565b50565b6104833361031f565b6104d8576040517f08c379a000000000000000000000000000000000000000000000000000000000815260040180806020018281038252602e815260200180610a74602e913960400191505060405180910390fd5b6104e18161078a565b50565b6104ed33610730565b565b6104f83361031f565b61054d576040517f08c379a000000000000000000000000000000000000000000000000000000000815260040180806020018281038252602e815260200180610a74602e913960400191505060405180910390fd5b610556816107e4565b50565b6105623361083e565b565b600061057a82600161059e90919063ffffffff16565b9050919050565b600061059782600261059e90919063ffffffff16565b9050919050565b60008073ffffffffffffffffffffffffffffffffffffffff168273ffffffffffffffffffffffffffffffffffffffff161415610625576040517f08c379a0000000000000000000000000000000000000000000000000000000008152600401808060200182810382526022815260200180610a526022913960400191505060405180910390fd5b8260000160008373ffffffffffffffffffffffffffffffffffffffff1673ffffffffffffffffffffffffffffffffffffffff16815260200190815260200160002060009054906101000a900460ff16905092915050565b61069081600261089890919063ffffffff16565b8073ffffffffffffffffffffffffffffffffffffffff167f272724e48012716338baa876acb4880d28ebeeb2176425a360610dd5acb99c4760405160405180910390a250565b6106ea81600161089890919063ffffffff16565b8073ffffffffffffffffffffffffffffffffffffffff167faa38be308bdffe126c2b6be720070355eb22e0efc549ac39221b1ce71642ed4060405160405180910390a250565b61074481600161097390919063ffffffff16565b8073ffffffffffffffffffffffffffffffffffffffff167fa9c38d4e36441185df66deccc5454d2ac0fab4f049d916441884300f6b7c605c60405160405180910390a250565b61079e81600061089890919063ffffffff16565b8073ffffffffffffffffffffffffffffffffffffffff167f44d6d25963f097ad14f29f06854a01f575648a1ef82f30e562ccd3889717e33960405160405180910390a250565b6107f881600261097390919063ffffffff16565b8073ffffffffffffffffffffffffffffffffffffffff167f86ffc4c1bcf9a37474de354dc295e858ac1bb8e5dcf6255375aafca4b7f7474f60405160405180910390a250565b61085281600061097390919063ffffffff16565b8073ffffffffffffffffffffffffffffffffffffffff167fa3b62bc36326052d97ea62d63c3d60308ed4c3ea8ac079dd8499f1e9c4f80c0f60405160405180910390a250565b6108a2828261059e565b15610915576040517f08c379a000000000000000000000000000000000000000000000000000000000815260040180806020018281038252601f8152602001807f526f6c65733a206163636f756e7420616c72656164792068617320726f6c650081525060200191505060405180910390fd5b60018260000160008373ffffffffffffffffffffffffffffffffffffffff1673ffffffffffffffffffffffffffffffffffffffff16815260200190815260200160002060006101000a81548160ff0219169083151502179055505050565b61097d828261059e565b6109d2576040517f08c379a0000000000000000000000000000000000000000000000000000000008152600401808060200182810382526021815260200180610a316021913960400191505060405180910390fd5b60008260000160008373ffffffffffffffffffffffffffffffffffffffff1673ffffffffffffffffffffffffffffffffffffffff16815260200190815260200160002060006101000a81548160ff021916908315150217905550505056fe526f6c65733a206163636f756e7420646f6573206e6f74206861766520726f6c65526f6c65733a206163636f756e7420697320746865207a65726f206164647265737341646d696e526f6c653a2063616c6c657220646f6573206e6f742068617665207468652041646d696e20726f6c65a265627a7a72315820882832c5c5b2d686ce89af6b067c393ed4570ae0e10aa9a6c17c4d5b09972f6d64736f6c634300050b0032526f6c65733a206163636f756e7420697320746865207a65726f2061646472657373",
  "source": "pragma solidity ^0.5.11;\r\n\r\nimport \"./CandidateRole.sol\";\r\nimport \"./CitizenRole.sol\";\r\n\r\ncontract SystemManager is CandidateRole, CitizenRole {\r\n\r\n    // msg.sender already admin\r\n    \r\n}",
  "sourcePath": "C:\\Users\\amoro\\Desktop\\PROYECTOS\\Blockchain\\Ethereum\\BitVoteSystem\\System\\bitvote-system\\contracts\\SystemManager.sol",
  "compiler": {
    "name": "solc",
    "version": "0.5.11+commit.c082d0b4.Emscripten.clang"
  },
  "schemaVersion": "3.0.11",
  "updatedAt": "2019-08-27T21:56:31.811Z",
  "devdoc": {
    "methods": {}
  },
  "userdoc": {
    "methods": {}
  }
}